{"abi":[{"type":"constructor","inputs":[],"stateMutability":"nonpayable"},{"type":"function","name":"addLiquidityAndCreateVesting","inputs":[{"name":"company","type":"address","internalType":"address"},{"name":"pool","type":"address","internalType":"address"},{"name":"amount0","type":"uint256","internalType":"uint256"},{"name":"amount1","type":"uint256","internalType":"uint256"},{"name":"vestingId","type":"uint256","internalType":"uint256"},{"name":"vestingAmount","type":"uint256","internalType":"uint256"},{"name":"startTime","type":"uint256","internalType":"uint256"},{"name":"endTime","type":"uint256","internalType":"uint256"}],"outputs":[],"stateMutability":"nonpayable"},{"type":"function","name":"addLiquidityPosition","inputs":[{"name":"company","type":"address","internalType":"address"},{"name":"pool","type":"address","internalType":"address"},{"name":"amount0","type":"uint256","internalType":"uint256"},{"name":"amount1","type":"uint256","internalType":"uint256"}],"outputs":[],"stateMutability":"nonpayable"},{"type":"function","name":"cancelVesting","inputs":[{"name":"vestingId","type":"uint256","internalType":"uint256"},{"name":"company","type":"address","internalType":"address"}],"outputs":[],"stateMutability":"nonpayable"},{"type":"function","name":"claimRewards","inputs":[{"name":"company","type":"address","internalType":"address"},{"name":"positionIndex","type":"uint256","internalType":"uint256"}],"outputs":[],"stateMutability":"nonpayable"},{"type":"function","name":"claimVestedAmount","inputs":[{"name":"vestingId","type":"uint256","internalType":"uint256"},{"name":"company","type":"address","internalType":"address"}],"outputs":[],"stateMutability":"nonpayable"},{"type":"function","name":"companyPositionCount","inputs":[{"name":"","type":"address","internalType":"address"}],"outputs":[{"name":"","type":"uint256","internalType":"uint256"}],"stateMutability":"view"},{"type":"function","name":"companyPositions","inputs":[{"name":"","type":"address","internalType":"address"},{"name":"","type":"uint256","internalType":"uint256"}],"outputs":[{"name":"pool","type":"address","internalType":"address"},{"name":"positionId","type":"uint256","internalType":"uint256"},{"name":"totalAmount","type":"uint256","internalType":"uint256"},{"name":"availableAmount","type":"uint256","internalType":"uint256"},{"name":"totalRewards","type":"uint256","internalType":"uint256"},{"name":"claimedRewards","type":"uint256","internalType":"uint256"},{"name":"isActive","type":"bool","internalType":"bool"}],"stateMutability":"view"},{"type":"function","name":"createVestingMulti","inputs":[{"name":"vestingId","type":"uint256","internalType":"uint256"},{"name":"company","type":"address","internalType":"address"},{"name":"positionIndex","type":"uint256","internalType":"uint256"},{"name":"beneficiaries","type":"address[]","internalType":"address[]"},{"name":"amounts","type":"uint256[]","internalType":"uint256[]"},{"name":"startTime","type":"uint256","internalType":"uint256"},{"name":"endTime","type":"uint256","internalType":"uint256"}],"outputs":[],"stateMutability":"nonpayable"},{"type":"function","name":"getPositionInfo","inputs":[{"name":"company","type":"address","internalType":"address"},{"name":"positionIndex","type":"uint256","internalType":"uint256"}],"outputs":[{"name":"pool","type":"address","internalType":"address"},{"name":"positionId","type":"uint256","internalType":"uint256"},{"name":"totalAmount","type":"uint256","internalType":"uint256"},{"name":"availableAmount","type":"uint256","internalType":"uint256"},{"name":"totalRewards","type":"uint256","internalType":"uint256"},{"name":"claimedRewards","type":"uint256","internalType":"uint256"},{"name":"isActive","type":"bool","internalType":"bool"}],"stateMutability":"view"},{"type":"function","name":"getVestingInfo","inputs":[{"name":"vestingId","type":"uint256","internalType":"uint256"}],"outputs":[{"name":"positionIndex","type":"uint256","internalType":"uint256"},{"name":"amount","type":"uint256","internalType":"uint256"},{"name":"startTime","type":"uint256","internalType":"uint256"},{"name":"endTime","type":"uint256","internalType":"uint256"},{"name":"claimedAmount","type":"uint256","internalType":"uint256"},{"name":"isActive","type":"bool","internalType":"bool"}],"stateMutability":"view"},{"type":"function","name":"owner","inputs":[],"outputs":[{"name":"","type":"address","internalType":"address"}],"stateMutability":"view"},{"type":"function","name":"renounceOwnership","inputs":[],"outputs":[],"stateMutability":"nonpayable"},{"type":"function","name":"transferOwnership","inputs":[{"name":"newOwner","type":"address","internalType":"address"}],"outputs":[],"stateMutability":"nonpayable"},{"type":"function","name":"unlockVestingForBeneficiary","inputs":[{"name":"vestingId","type":"uint256","internalType":"uint256"},{"name":"beneficiary","type":"address","internalType":"address"},{"name":"company","type":"address","internalType":"address"}],"outputs":[],"stateMutability":"nonpayable"},{"type":"function","name":"updatePositionAmount","inputs":[{"name":"company","type":"address","internalType":"address"},{"name":"positionIndex","type":"uint256","internalType":"uint256"},{"name":"newAmount","type":"uint256","internalType":"uint256"}],"outputs":[],"stateMutability":"nonpayable"},{"type":"function","name":"vestingAmounts","inputs":[{"name":"","type":"uint256","internalType":"uint256"},{"name":"","type":"address","internalType":"address"}],"outputs":[{"name":"","type":"uint256","internalType":"uint256"}],"stateMutability":"view"},{"type":"function","name":"vestingBeneficiaries","inputs":[{"name":"","type":"uint256","internalType":"uint256"},{"name":"","type":"uint256","internalType":"uint256"}],"outputs":[{"name":"","type":"address","internalType":"address"}],"stateMutability":"view"},{"type":"function","name":"vestingHasClaimed","inputs":[{"name":"","type":"uint256","internalType":"uint256"},{"name":"","type":"address","internalType":"address"}],"outputs":[{"name":"","type":"bool","internalType":"bool"}],"stateMutability":"view"},{"type":"function","name":"vestingRewardSnapshots","inputs":[{"name":"","type":"uint256","internalType":"uint256"},{"name":"","type":"address","internalType":"address"}],"outputs":[{"name":"","type":"uint256","internalType":"uint256"}],"stateMutability":"view"},{"type":"function","name":"vestingUnlockTimes","inputs":[{"name":"","type":"uint256","internalType":"uint256"},{"name":"","type":"address","internalType":"address"}],"outputs":[{"name":"","type":"uint256","internalType":"uint256"}],"stateMutability":"view"},{"type":"function","name":"vestings","inputs":[{"name":"","type":"uint256","internalType":"uint256"}],"outputs":[{"name":"id","type":"uint256","internalType":"uint256"},{"name":"positionIndex","type":"uint256","internalType":"uint256"},{"name":"totalAmount","type":"uint256","internalType":"uint256"},{"name":"startTime","type":"uint256","internalType":"uint256"},{"name":"endTime","type":"uint256","internalType":"uint256"},{"name":"isActive","type":"bool","internalType":"bool"}],"stateMutability":"view"},{"type":"event","name":"LiquidityPositionAdded","inputs":[{"name":"company","type":"address","indexed":true,"internalType":"address"},{"name":"pool","type":"address","indexed":true,"internalType":"address"},{"name":"positionId","type":"uint256","indexed":true,"internalType":"uint256"},{"name":"amount0","type":"uint256","indexed":false,"internalType":"uint256"},{"name":"amount1","type":"uint256","indexed":false,"internalType":"uint256"}],"anonymous":false},{"type":"event","name":"OwnershipTransferred","inputs":[{"name":"previousOwner","type":"address","indexed":true,"internalType":"address"},{"name":"newOwner","type":"address","indexed":true,"internalType":"address"}],"anonymous":false},{"type":"event","name":"RewardsClaimed","inputs":[{"name":"company","type":"address","indexed":true,"internalType":"address"},{"name":"positionIndex","type":"uint256","indexed":true,"internalType":"uint256"},{"name":"amount","type":"uint256","indexed":false,"internalType":"uint256"}],"anonymous":false},{"type":"event","name":"VestingCancelled","inputs":[{"name":"vestingId","type":"uint256","indexed":true,"internalType":"uint256"},{"name":"company","type":"address","indexed":true,"internalType":"address"}],"anonymous":false},{"type":"event","name":"VestingClaimed","inputs":[{"name":"vestingId","type":"uint256","indexed":true,"internalType":"uint256"},{"name":"beneficiary","type":"address","indexed":true,"internalType":"address"},{"name":"amount","type":"uint256","indexed":false,"internalType":"uint256"}],"anonymous":false},{"type":"event","name":"VestingCreated","inputs":[{"name":"vestingId","type":"uint256","indexed":true,"internalType":"uint256"},{"name":"company","type":"address","indexed":true,"internalType":"address"},{"name":"positionIndex","type":"uint256","indexed":false,"internalType":"uint256"},{"name":"beneficiaries","type":"address[]","indexed":false,"internalType":"address[]"},{"name":"amounts","type":"uint256[]","indexed":false,"internalType":"uint256[]"},{"name":"startTime","type":"uint256","indexed":false,"internalType":"uint256"},{"name":"endTime","type":"uint256","indexed":false,"internalType":"uint256"}],"anonymous":false},{"type":"error","name":"AlreadyClaimed","inputs":[]},{"type":"error","name":"AlreadyUnlocked","inputs":[]},{"type":"error","name":"CannotReduceBelowAvailableAmount","inputs":[]},{"type":"error","name":"InsufficientAvailableAmount","inputs":[]},{"type":"error","name":"InvalidBeneficiariesAmounts","inputs":[]},{"type":"error","name":"InvalidPositionIndex","inputs":[]},{"type":"error","name":"NoRewardsToClaim","inputs":[]},{"type":"error","name":"NotABeneficiary","inputs":[]},{"type":"error","name":"OwnableInvalidOwner","inputs":[{"name":"owner","type":"address","internalType":"address"}]},{"type":"error","name":"OwnableUnauthorizedAccount","inputs":[{"name":"account","type":"address","internalType":"address"}]},{"type":"error","name":"PositionNotActive","inputs":[]},{"type":"error","name":"TokenTransferFailed","inputs":[]},{"type":"error","name":"VestingNotActive","inputs":[]},{"type":"error","name":"VestingNotEnded","inputs":[]}],"bytecode":{"object":"0x608080604052346071573315605e575f8054336001600160a01b0319821681178355916001600160a01b03909116907f8be0079c531659141344cd1fd0a4f28419497f9722a3daafe3b4186f6b6457e09080a3611a2f90816100768239f35b631e4fbdf760e01b5f525f60045260245ffd5b5f80fdfe60806040526004361015610011575f80fd5b5f3560e01c80630215d936146116b25780630f9c09081461167a5780631327d7fb14611595578063145e397f1461128157806320f6b0a914611204578063347091b5146111c0578063472d5c4f14610d5457806362a7ee3b14610caa5780636c60a1d314610c66578063715018a614610c0f578063821bee7314610b9557806383c2c855146107965780638da5cb5b1461076f5780639a99b4f0146106305780639ae5a9b6146105a3578063a13d5ddf1461055a578063b0cf3a0a1461030f578063b84e966d14610213578063d0225c61146101d9578063f2fde38b146101545763f5b93f2914610100575f80fd5b34610150576040366003190112610150576024356004355f52600460205260405f2080548210156101505760209161013791611780565b905460405160039290921b1c6001600160a01b03168152f35b5f80fd5b346101505760203660031901126101505761016d61170c565b6101756119d3565b6001600160a01b031680156101c6575f80546001600160a01b03198116831782556001600160a01b0316907f8be0079c531659141344cd1fd0a4f28419497f9722a3daafe3b4186f6b6457e09080a3005b631e4fbdf760e01b5f525f60045260245ffd5b34610150576060366003190112610150576101f26116f6565b6044356001600160a01b03811681036101505761021191600435611913565b005b346101505760603660031901126101505761022c61170c565b6001600160a01b03165f8181526003602052604090205460443591906024359081101561030057815f52600160205260ff600661026c8360405f20611753565b50015416156102f157610289915f52600160205260405f20611753565b50600281019081548084115f146102b85760036102a96102b392866117f0565b92019182546117e3565b905555005b906003019081546102c985836117f0565b81106102e2576102dc856102b3936117f0565b906117f0565b63ac33f69b60e01b5f5260045ffd5b63a8a168bf60e01b5f5260045ffd5b6302d576d960e01b5f5260045ffd5b346101505760403660031901126101505760043561032b6116f6565b90805f52600260205260405f209160ff6005840154161561054b575f82815260076020908152604080832033845290915290205460ff1661053c575f8281526005602090815260408083203384529091529020541561052d575f82815260066020908152604080832033845290915290205415610503575b600183015492825f52600860205260405f2060018060a01b0333165f5260205260405f20549160018060a01b031692835f52600160205261041a600260046103ee8860405f20611753565b50015493015493825f52600560205260405f2060018060a01b0333165f5260205260405f2054936117f0565b93828502948086048414901517156104ef5783156104db57815f52600760205260405f2060018060a01b0333165f5260205260405f20600160ff198254161790555f52600160205260036104718660405f20611753565b500161047e8382546117e3565b90556040519182527f14a81f9a556dbd4b3ae8c924aef3cc382cb6f3c4b91e88201a1be8e8cf35932860203393a3604051910481527fdacbdde355ba930696a362ea6738feb9f8bd52dfb3d81947558fd3217e23e32560203392a3005b634e487b7160e01b5f52601260045260245ffd5b634e487b7160e01b5f52601160045260245ffd5b6004830154421061051e57610519813384611913565b6103a3565b633e0ad23560e21b5f5260045ffd5b6343290f5b60e01b5f5260045ffd5b630c8d9eab60e31b5f5260045ffd5b63245075d160e11b5f5260045ffd5b34610150576040366003190112610150576105736116f6565b6004355f52600760205260405f209060018060a01b03165f52602052602060ff60405f2054166040519015158152f35b34610150576040366003190112610150576004356105bf6116f6565b6105c76119d3565b815f52600260205260ff600560405f200154161561054b576005915f52600260205260405f20906106236003610619600185015460028601549460018060a01b03165f52600160205260405f20611753565b50019182546117e3565b905501805460ff19169055005b346101505760403660031901126101505761064961170c565b6001600160a01b03165f81815260036020526040902054602435919082101561030057805f5260016020526106818260405f20611753565b5060ff600682015416156102f1575f90602060018060a01b03825416602460018401546040519586938492630962ef7960e01b845260048401525af1918215610764575f92610730575b508115610721577fdacbdde355ba930696a362ea6738feb9f8bd52dfb3d81947558fd3217e23e325916005826004602094016107088482546117e3565b9055016107168282546117e3565b9055604051908152a3005b6373380d9960e01b5f5260045ffd5b9091506020813d60201161075c575b8161074c602093836117b1565b81010312610150575190846106cb565b3d915061073f565b6040513d5f823e3d90fd5b34610150575f366003190112610150575f546040516001600160a01b039091168152602090f35b34610150576080366003190112610150576107af61170c565b6107b76116f6565b604051630dfe168160e01b8152604435916001600160a01b038116916064359190602081600481875afa908115610764575f91610b76575b506040516323b872dd60e01b81526001600160a01b038781166004830152306024830152604482018790529091602091839160649183915f91165af1908115610764575f91610b57575b5015610b0a5760405163d21220a760e01b8152602081600481875afa908115610764575f91610b38575b506040516323b872dd60e01b81526001600160a01b038781166004830152306024830152604482018590529091602091839160649183915f91165af1908115610764575f91610b19575b5015610b0a57604051630dfe168160e01b8152602081600481875afa908115610764575f91610aeb575b5060405163095ea7b360e01b81526001600160a01b038381166004830152602482018790529091602091839160449183915f91165af1801561076457610ace575b5060405163d21220a760e01b815290602082600481875afa9182156107645761097f9260209285925f92610a9f575b5060405163095ea7b360e01b81526001600160a01b0390911660048201526024810192909252909283919082905f9082906044820190565b03926001600160a01b03165af1801561076457610a72575b5060405192634e6a20ed60e11b8452600484015260248301526040826044815f855af1918215610764575f905f93610a3e575b506001600160a01b039093165f818152600160205260409081902090519194610a259492939192916109fb85611795565b8452602084015280604084015260608301525f60808301525f60a0830152600160c083015261185e565b5f52600360205260405f20610a3a8154611905565b9055005b610a259350610a65915060403d604011610a6b575b610a5d81836117b1565b810190611848565b926109ca565b503d610a53565b610a939060203d602011610a98575b610a8b81836117b1565b810190611830565b610997565b503d610a81565b610ac0919250843d8611610ac7575b610ab881836117b1565b810190611811565b9089610947565b503d610aae565b610ae69060203d602011610a9857610a8b81836117b1565b610918565b610b04915060203d602011610ac757610ab881836117b1565b866108d7565b63022e258160e11b5f5260045ffd5b610b32915060203d602011610a9857610a8b81836117b1565b866108ad565b610b51915060203d602011610ac757610ab881836117b1565b86610863565b610b70915060203d602011610a9857610a8b81836117b1565b86610839565b610b8f915060203d602011610ac757610ab881836117b1565b866107ef565b34610150576020366003190112610150576004355f52600260205260405f208054610c0b600183015492600281015490600381015460ff6005600484015493015416926040519687968794919260a0949197969360c0870198875260208701526040860152606085015260808401521515910152565b0390f35b34610150575f36600319011261015057610c276119d3565b5f80546001600160a01b0319811682556001600160a01b03167f8be0079c531659141344cd1fd0a4f28419497f9722a3daafe3b4186f6b6457e08280a3005b3461015057604036600319011261015057610c7f6116f6565b6004355f52600560205260405f209060018060a01b03165f52602052602060405f2054604051908152f35b3461015057604036600319011261015057610cc361170c565b6001600160a01b03165f90815260016020526040902080546024359081101561015057610cef91611753565b50805460018201546002830154600384015460048501546005860154600690960154604080516001600160a01b0390971687526020870195909552938501929092526060840152608083015260a082019290925260ff909116151560c082015260e090f35b346101505761010036600319011261015057610d6e61170c565b610d766116f6565b604051630dfe168160e01b8152604435929160a435916001600160a01b0382169160643591602081600481875afa908115610764575f916111a1575b506040516323b872dd60e01b81526001600160a01b038781166004830152306024830152604482018990529091602091839160649183915f91165af1908115610764575f91611182575b5015610b0a5760405163d21220a760e01b8152602081600481875afa908115610764575f91611163575b506040516323b872dd60e01b81526001600160a01b038781166004830152306024830152604482018590529091602091839160649183915f91165af1908115610764575f91611144575b5015610b0a57604051630dfe168160e01b8152602081600481875afa908115610764575f91611125575b5060405163095ea7b360e01b81526001600160a01b038381166004830152602482018990529091602091839160449183915f91165af1801561076457611108575b5060405163d21220a760e01b815290602082600481875afa91821561076457610f419260209285925f926110e9575060405163095ea7b360e01b81526001600160a01b0390911660048201526024810192909252909283919082905f9082906044820190565b03926001600160a01b03165af18015610764576110cc575b5060405194634e6a20ed60e11b8652600486015260248501526040846044815f855af1928315610764575f945f946110a1575b5090610fc39160018060a01b031694855f52600360205260405f205494865f52600160205260405f2091604051936109fb85611795565b825f52600360205260405f20610fd98154611905565b9055825f52600360205260405f205482101561030057825f52600160205260ff60066110088460405f20611753565b50015416156102f157825f5260016020528060036110298460405f20611753565b50015410611092576005925f526001602052600361104a8360405f20611753565b50016110578282546117f0565b90556084355f52600260205260405f20916001830155600282015560c435600382015560e435600482015501600160ff198254161790555f80f35b63b35f6c3760e01b5f5260045ffd5b610fc39295506110c191945060403d604011610a6b57610a5d81836117b1565b949094939091610f8c565b6110e49060203d602011610a9857610a8b81836117b1565b610f59565b611101919250843d8611610ac757610ab881836117b1565b908a610947565b6111209060203d602011610a9857610a8b81836117b1565b610edb565b61113e915060203d602011610ac757610ab881836117b1565b87610e9a565b61115d915060203d602011610a9857610a8b81836117b1565b87610e70565b61117c915060203d602011610ac757610ab881836117b1565b87610e26565b61119b915060203d602011610a9857610a8b81836117b1565b87610dfc565b6111ba915060203d602011610ac757610ab881836117b1565b87610db2565b34610150576040366003190112610150576111d96116f6565b6004355f52600660205260405f209060018060a01b03165f52602052602060405f2054604051908152f35b3461015057602036600319011261015057600480355f9081526002602081815260408084206001810154938101546003820154968201546008855283872033885285529583902054600590920154835195865293850152908301949094526060820192909252608081019290925260ff16151560a082015260c090f35b346101505760e03660031901126101505760043561129d6116f6565b906044359160643567ffffffffffffffff8111610150576112c2903690600401611722565b93909160843567ffffffffffffffff8111610150576112e5903690600401611722565b92909160018060a01b031690815f52600360205260405f205481101561030057815f52600160205260ff600661131e8360405f20611753565b50015416156102f15783871480159061158d575b61157e575f915f5b85811061155e5750805f52600160205282600361135a8460405f20611753565b50015410611092575f52600160205260036113788260405f20611753565b50016113858382546117f0565b90556040519060c082019082821067ffffffffffffffff83111761154a576114189360059260405288845260208401918252604084019081526060840160a4358152608085019160c435835260a0860193600185528b5f52600260205260405f209651875551600187015551600286015551600385015551600484015551151591019060ff801983541691151516179055565b5f5b85811061142357005b845f52600460205260405f209061144361143e8289886117d3565b6117fd565b825492600160401b84101561154a57836114639160018096018155611780565b819291549060031b91858060a01b0316821b91858060a01b03901b191617905561148e8185856117d3565b35865f52600560205260405f206114a961143e848b8a6117d3565b848060a01b03165f5260205260405f2055855f52600760205260405f206114d461143e838a896117d3565b838060a01b03165f5260205260405f2060ff198154169055855f52600660205260405f2061150661143e838a896117d3565b838060a01b03165f526020525f6040812055855f52600860205260405f2061153261143e838a896117d3565b838060a01b03165f526020525f60408120550161141a565b634e487b7160e01b5f52604160045260245ffd5b926115776001916115708689896117d3565b35906117e3565b930161133a565b634d2f260f60e11b5f5260045ffd5b508615611332565b34610150576040366003190112610150576115ae61170c565b6001600160a01b03165f8181526003602052604090205460243590811015610300576115e4915f52600160205260405f20611753565b50604051906115f282611795565b80546001600160a01b031680835260018201546020808501829052600284015460408087018290526003860154606080890182905260048801546080808b0182905260058a015460a0808d018290526006909b015460ff16151560c09c8d0181905286519a8b52978a019890985293880194909452860152840152928201529182015260e090f35b34610150576020366003190112610150576001600160a01b0361169b61170c565b165f526003602052602060405f2054604051908152f35b34610150576040366003190112610150576116cb6116f6565b6004355f52600860205260405f209060018060a01b03165f52602052602060405f2054604051908152f35b602435906001600160a01b038216820361015057565b600435906001600160a01b038216820361015057565b9181601f840112156101505782359167ffffffffffffffff8311610150576020808501948460051b01011161015057565b805482101561176c575f52600760205f20910201905f90565b634e487b7160e01b5f52603260045260245ffd5b805482101561176c575f5260205f2001905f90565b60e0810190811067ffffffffffffffff82111761154a57604052565b90601f8019910116810190811067ffffffffffffffff82111761154a57604052565b919081101561176c5760051b0190565b919082018092116104ef57565b919082039182116104ef57565b356001600160a01b03811681036101505790565b9081602091031261015057516001600160a01b03811681036101505790565b90816020910312610150575180151581036101505790565b9190826040910312610150576020825192015190565b8054600160401b81101561154a5761187b91600182018155611753565b6118f257600660c06118f09360018060a01b038151166bffffffffffffffffffffffff60a01b8554161784556020810151600185015560408101516002850155606081015160038501556080810151600485015560a081015160058501550151151591019060ff801983541691151516179055565b565b634e487b7160e01b5f525f60045260245ffd5b5f1981146104ef5760010190565b91825f52600260205260405f2060ff6005820154161561054b576004810154421061051e57835f52600660205260405f2060018060a01b0384165f5260205260405f20546119c45760049160016119a092015490855f52600660205260405f2060018060a01b0386165f5260205260405f2042905560018060a01b03165f52600160205260405f20611753565b500154915f52600860205260405f209060018060a01b03165f5260205260405f2055565b6328486b6360e11b5f5260045ffd5b5f546001600160a01b031633036119e657565b63118cdaa760e01b5f523360045260245ffdfea2646970667358221220788f69fa4ed529abb5c748e3bbf72e6a831f136f557fb0b27ab67208487afe0264736f6c634300081c0033","linkReferences":{}},"methodIdentifiers":{"addLiquidityAndCreateVesting(address,address,uint256,uint256,uint256,uint256,uint256,uint256)":"472d5c4f","addLiquidityPosition(address,address,uint256,uint256)":"83c2c855","cancelVesting(uint256,address)":"9ae5a9b6","claimRewards(address,uint256)":"9a99b4f0","claimVestedAmount(uint256,address)":"b0cf3a0a","companyPositionCount(address)":"0f9c0908","companyPositions(address,uint256)":"62a7ee3b","createVestingMulti(uint256,address,uint256,address[],uint256[],uint256,uint256)":"145e397f","getPositionInfo(address,uint256)":"1327d7fb","getVestingInfo(uint256)":"20f6b0a9","owner()":"8da5cb5b","renounceOwnership()":"715018a6","transferOwnership(address)":"f2fde38b","unlockVestingForBeneficiary(uint256,address,address)":"d0225c61","updatePositionAmount(address,uint256,uint256)":"b84e966d","vestingAmounts(uint256,address)":"6c60a1d3","vestingBeneficiaries(uint256,uint256)":"f5b93f29","vestingHasClaimed(uint256,address)":"a13d5ddf","vestingRewardSnapshots(uint256,address)":"0215d936","vestingUnlockTimes(uint256,address)":"347091b5","vestings(uint256)":"821bee73"},"id":0}