{"abi":[{"type":"constructor","inputs":[],"stateMutability":"nonpayable"},{"type":"function","name":"addLiquidityAndCreatePayroll","inputs":[{"name":"company","type":"address","internalType":"address"},{"name":"pool","type":"address","internalType":"address"},{"name":"amount0","type":"uint256","internalType":"uint256"},{"name":"amount1","type":"uint256","internalType":"uint256"},{"name":"payrollId","type":"uint256","internalType":"uint256"},{"name":"payrollAmount","type":"uint256","internalType":"uint256"},{"name":"startTime","type":"uint256","internalType":"uint256"},{"name":"endTime","type":"uint256","internalType":"uint256"}],"outputs":[],"stateMutability":"nonpayable"},{"type":"function","name":"addLiquidityPosition","inputs":[{"name":"company","type":"address","internalType":"address"},{"name":"pool","type":"address","internalType":"address"},{"name":"amount0","type":"uint256","internalType":"uint256"},{"name":"amount1","type":"uint256","internalType":"uint256"}],"outputs":[],"stateMutability":"nonpayable"},{"type":"function","name":"cancelPayroll","inputs":[{"name":"payrollId","type":"uint256","internalType":"uint256"},{"name":"company","type":"address","internalType":"address"}],"outputs":[],"stateMutability":"nonpayable"},{"type":"function","name":"claimPayrollAmount","inputs":[{"name":"payrollId","type":"uint256","internalType":"uint256"},{"name":"company","type":"address","internalType":"address"}],"outputs":[],"stateMutability":"nonpayable"},{"type":"function","name":"claimRewards","inputs":[{"name":"company","type":"address","internalType":"address"},{"name":"positionIndex","type":"uint256","internalType":"uint256"}],"outputs":[],"stateMutability":"nonpayable"},{"type":"function","name":"companyPositionCount","inputs":[{"name":"","type":"address","internalType":"address"}],"outputs":[{"name":"","type":"uint256","internalType":"uint256"}],"stateMutability":"view"},{"type":"function","name":"companyPositions","inputs":[{"name":"","type":"address","internalType":"address"},{"name":"","type":"uint256","internalType":"uint256"}],"outputs":[{"name":"pool","type":"address","internalType":"address"},{"name":"positionId","type":"uint256","internalType":"uint256"},{"name":"totalAmount","type":"uint256","internalType":"uint256"},{"name":"availableAmount","type":"uint256","internalType":"uint256"},{"name":"totalRewards","type":"uint256","internalType":"uint256"},{"name":"claimedRewards","type":"uint256","internalType":"uint256"},{"name":"isActive","type":"bool","internalType":"bool"}],"stateMutability":"view"},{"type":"function","name":"createPayrollMulti","inputs":[{"name":"payrollId","type":"uint256","internalType":"uint256"},{"name":"company","type":"address","internalType":"address"},{"name":"positionIndex","type":"uint256","internalType":"uint256"},{"name":"beneficiaries","type":"address[]","internalType":"address[]"},{"name":"amounts","type":"uint256[]","internalType":"uint256[]"},{"name":"startTime","type":"uint256","internalType":"uint256"},{"name":"endTime","type":"uint256","internalType":"uint256"}],"outputs":[],"stateMutability":"nonpayable"},{"type":"function","name":"getPayrollInfo","inputs":[{"name":"payrollId","type":"uint256","internalType":"uint256"}],"outputs":[{"name":"positionIndex","type":"uint256","internalType":"uint256"},{"name":"amount","type":"uint256","internalType":"uint256"},{"name":"startTime","type":"uint256","internalType":"uint256"},{"name":"endTime","type":"uint256","internalType":"uint256"},{"name":"claimedAmount","type":"uint256","internalType":"uint256"},{"name":"isActive","type":"bool","internalType":"bool"}],"stateMutability":"view"},{"type":"function","name":"getPositionInfo","inputs":[{"name":"company","type":"address","internalType":"address"},{"name":"positionIndex","type":"uint256","internalType":"uint256"}],"outputs":[{"name":"pool","type":"address","internalType":"address"},{"name":"positionId","type":"uint256","internalType":"uint256"},{"name":"totalAmount","type":"uint256","internalType":"uint256"},{"name":"availableAmount","type":"uint256","internalType":"uint256"},{"name":"totalRewards","type":"uint256","internalType":"uint256"},{"name":"claimedRewards","type":"uint256","internalType":"uint256"},{"name":"isActive","type":"bool","internalType":"bool"}],"stateMutability":"view"},{"type":"function","name":"owner","inputs":[],"outputs":[{"name":"","type":"address","internalType":"address"}],"stateMutability":"view"},{"type":"function","name":"payrollAmounts","inputs":[{"name":"","type":"uint256","internalType":"uint256"},{"name":"","type":"address","internalType":"address"}],"outputs":[{"name":"","type":"uint256","internalType":"uint256"}],"stateMutability":"view"},{"type":"function","name":"payrollBeneficiaries","inputs":[{"name":"","type":"uint256","internalType":"uint256"},{"name":"","type":"uint256","internalType":"uint256"}],"outputs":[{"name":"","type":"address","internalType":"address"}],"stateMutability":"view"},{"type":"function","name":"payrollHasClaimed","inputs":[{"name":"","type":"uint256","internalType":"uint256"},{"name":"","type":"address","internalType":"address"}],"outputs":[{"name":"","type":"bool","internalType":"bool"}],"stateMutability":"view"},{"type":"function","name":"payrollRewardSnapshots","inputs":[{"name":"","type":"uint256","internalType":"uint256"},{"name":"","type":"address","internalType":"address"}],"outputs":[{"name":"","type":"uint256","internalType":"uint256"}],"stateMutability":"view"},{"type":"function","name":"payrollUnlockTimes","inputs":[{"name":"","type":"uint256","internalType":"uint256"},{"name":"","type":"address","internalType":"address"}],"outputs":[{"name":"","type":"uint256","internalType":"uint256"}],"stateMutability":"view"},{"type":"function","name":"payrolls","inputs":[{"name":"","type":"uint256","internalType":"uint256"}],"outputs":[{"name":"id","type":"uint256","internalType":"uint256"},{"name":"positionIndex","type":"uint256","internalType":"uint256"},{"name":"totalAmount","type":"uint256","internalType":"uint256"},{"name":"startTime","type":"uint256","internalType":"uint256"},{"name":"endTime","type":"uint256","internalType":"uint256"},{"name":"isActive","type":"bool","internalType":"bool"}],"stateMutability":"view"},{"type":"function","name":"renounceOwnership","inputs":[],"outputs":[],"stateMutability":"nonpayable"},{"type":"function","name":"transferOwnership","inputs":[{"name":"newOwner","type":"address","internalType":"address"}],"outputs":[],"stateMutability":"nonpayable"},{"type":"function","name":"unlockPayrollForBeneficiary","inputs":[{"name":"payrollId","type":"uint256","internalType":"uint256"},{"name":"beneficiary","type":"address","internalType":"address"},{"name":"company","type":"address","internalType":"address"}],"outputs":[],"stateMutability":"nonpayable"},{"type":"function","name":"updatePositionAmount","inputs":[{"name":"company","type":"address","internalType":"address"},{"name":"positionIndex","type":"uint256","internalType":"uint256"},{"name":"newAmount","type":"uint256","internalType":"uint256"}],"outputs":[],"stateMutability":"nonpayable"},{"type":"event","name":"LiquidityPositionAdded","inputs":[{"name":"company","type":"address","indexed":true,"internalType":"address"},{"name":"pool","type":"address","indexed":true,"internalType":"address"},{"name":"positionId","type":"uint256","indexed":true,"internalType":"uint256"},{"name":"amount0","type":"uint256","indexed":false,"internalType":"uint256"},{"name":"amount1","type":"uint256","indexed":false,"internalType":"uint256"}],"anonymous":false},{"type":"event","name":"OwnershipTransferred","inputs":[{"name":"previousOwner","type":"address","indexed":true,"internalType":"address"},{"name":"newOwner","type":"address","indexed":true,"internalType":"address"}],"anonymous":false},{"type":"event","name":"PayrollCancelled","inputs":[{"name":"payrollId","type":"uint256","indexed":true,"internalType":"uint256"},{"name":"company","type":"address","indexed":true,"internalType":"address"}],"anonymous":false},{"type":"event","name":"PayrollClaimed","inputs":[{"name":"payrollId","type":"uint256","indexed":true,"internalType":"uint256"},{"name":"beneficiary","type":"address","indexed":true,"internalType":"address"},{"name":"amount","type":"uint256","indexed":false,"internalType":"uint256"}],"anonymous":false},{"type":"event","name":"PayrollCreated","inputs":[{"name":"payrollId","type":"uint256","indexed":true,"internalType":"uint256"},{"name":"company","type":"address","indexed":true,"internalType":"address"},{"name":"positionIndex","type":"uint256","indexed":false,"internalType":"uint256"},{"name":"beneficiaries","type":"address[]","indexed":false,"internalType":"address[]"},{"name":"amounts","type":"uint256[]","indexed":false,"internalType":"uint256[]"},{"name":"startTime","type":"uint256","indexed":false,"internalType":"uint256"},{"name":"endTime","type":"uint256","indexed":false,"internalType":"uint256"}],"anonymous":false},{"type":"event","name":"RewardsClaimed","inputs":[{"name":"company","type":"address","indexed":true,"internalType":"address"},{"name":"positionIndex","type":"uint256","indexed":true,"internalType":"uint256"},{"name":"amount","type":"uint256","indexed":false,"internalType":"uint256"}],"anonymous":false},{"type":"error","name":"AlreadyClaimed","inputs":[]},{"type":"error","name":"AlreadyUnlocked","inputs":[]},{"type":"error","name":"CannotReduceBelowAvailableAmount","inputs":[]},{"type":"error","name":"InsufficientAvailableAmount","inputs":[]},{"type":"error","name":"InvalidBeneficiariesAmounts","inputs":[]},{"type":"error","name":"InvalidPositionIndex","inputs":[]},{"type":"error","name":"NoRewardsToClaim","inputs":[]},{"type":"error","name":"NotABeneficiary","inputs":[]},{"type":"error","name":"OwnableInvalidOwner","inputs":[{"name":"owner","type":"address","internalType":"address"}]},{"type":"error","name":"OwnableUnauthorizedAccount","inputs":[{"name":"account","type":"address","internalType":"address"}]},{"type":"error","name":"PayrollNotActive","inputs":[]},{"type":"error","name":"PayrollNotEnded","inputs":[]},{"type":"error","name":"PositionNotActive","inputs":[]},{"type":"error","name":"TokenTransferFailed","inputs":[]}],"bytecode":{"object":"0x608080604052346071573315605e575f8054336001600160a01b0319821681178355916001600160a01b03909116907f8be0079c531659141344cd1fd0a4f28419497f9722a3daafe3b4186f6b6457e09080a3611a2f90816100768239f35b631e4fbdf760e01b5f525f60045260245ffd5b5f80fdfe6080806040526004361015610012575f80fd5b5f3560e01c9081630f9c0908146116c2575080631327d7fb146115dd5780631d4c8c8e14611599578063229f617d146115555780633c77a006146114d85780635632b1fa1461146257806362a7ee3b146113b3578063715018a61461135c57806383c2c85514610fc757806385ce44a214610f7e5780638da5cb5b14610f575780638f5b4cf514610eca5780639a99b4f014610d96578063a143c8cb14610a82578063adc18b8b14610a32578063b6224ed414610551578063b84e966d14610455578063d9e8af621461020a578063e9740041146101c6578063f2fde38b146101415763f36afac914610103575f80fd5b3461013d57606036600319011261013d5761011c61170c565b6044356001600160a01b038116810361013d5761013b91600435611913565b005b5f80fd5b3461013d57602036600319011261013d5761015a6116f6565b6101626119d3565b6001600160a01b031680156101b3575f80546001600160a01b03198116831782556001600160a01b0316907f8be0079c531659141344cd1fd0a4f28419497f9722a3daafe3b4186f6b6457e09080a3005b631e4fbdf760e01b5f525f60045260245ffd5b3461013d57604036600319011261013d576101df61170c565b6004355f52600560205260405f209060018060a01b03165f52602052602060405f2054604051908152f35b3461013d57604036600319011261013d5760043561022661170c565b90805f52600260205260405f209160ff60058401541615610446575f82815260076020908152604080832033845290915290205460ff16610437575f82815260056020908152604080832033845290915290205415610428575f828152600660209081526040808320338452909152902054156103fe575b600183015492825f52600860205260405f2060018060a01b0333165f5260205260405f20549160018060a01b031692835f526001602052610315600260046102e98860405f20611722565b50015493015493825f52600560205260405f2060018060a01b0333165f5260205260405f2054936118f2565b93828502948086048414901517156103ea5783156103d657815f52600760205260405f2060018060a01b0333165f5260205260405f20600160ff198254161790555f526001602052600361036c8660405f20611722565b50016103798382546118d5565b90556040519182527ff047ae97d6e77b909438ee0321b4cfd287bf5633f353d878e3ae78ebff0b8bc360203393a3604051910481527fdacbdde355ba930696a362ea6738feb9f8bd52dfb3d81947558fd3217e23e32560203392a3005b634e487b7160e01b5f52601260045260245ffd5b634e487b7160e01b5f52601160045260245ffd5b6004830154421061041957610414813384611913565b61029e565b63268e198560e21b5f5260045ffd5b6343290f5b60e01b5f5260045ffd5b630c8d9eab60e31b5f5260045ffd5b632402f7bb60e01b5f5260045ffd5b3461013d57606036600319011261013d5761046e6116f6565b6001600160a01b03165f8181526003602052604090205460443591906024359081101561054257815f52600160205260ff60066104ae8360405f20611722565b5001541615610533576104cb915f52600160205260405f20611722565b50600281019081548084115f146104fa5760036104eb6104f592866118f2565b92019182546118d5565b905555005b9060030190815461050b85836118f2565b81106105245761051e856104f5936118f2565b906118f2565b63ac33f69b60e01b5f5260045ffd5b63a8a168bf60e01b5f5260045ffd5b6302d576d960e01b5f5260045ffd5b3461013d5761010036600319011261013d5761056b6116f6565b61057361170c565b604051630dfe168160e01b8152604435929160a435916001600160a01b0382169160643591602081600481875afa908115610904575f91610a13575b506040516323b872dd60e01b81526001600160a01b038781166004830152306024830152604482018990529091602091839160649183915f91165af1908115610904575f916109f4575b50156109a75760405163d21220a760e01b8152602081600481875afa908115610904575f916109d5575b506040516323b872dd60e01b81526001600160a01b038781166004830152306024830152604482018590529091602091839160649183915f91165af1908115610904575f916109b6575b50156109a757604051630dfe168160e01b8152602081600481875afa908115610904575f91610988575b5060405163095ea7b360e01b81526001600160a01b038381166004830152602482018990529091602091839160449183915f91165af180156109045761096b575b5060405163d21220a760e01b815290602082600481875afa9182156109045761073f9260209285925f9261093c575b5060405163095ea7b360e01b81526001600160a01b0390911660048201526024810192909252909283919082905f9082906044820190565b03926001600160a01b03165af180156109045761090f575b5060405194634e6a20ed60e11b8652600486015260248501526040846044815f855af1928315610904575f945f946108c9575b50906107eb9160018060a01b031694855f52600360205260405f205494865f52600160205260405f2091604051936107c185611795565b8452602084015280604084015260608301525f60808301525f60a0830152600160c0830152611820565b825f52600360205260405f2061080181546118c7565b9055825f52600360205260405f205482101561054257825f52600160205260ff60066108308460405f20611722565b500154161561053357825f5260016020528060036108518460405f20611722565b500154106108ba576005925f52600160205260036108728360405f20611722565b500161087f8282546118f2565b90556084355f52600260205260405f20916001830155600282015560c435600382015560e435600482015501600160ff198254161790555f80f35b63b35f6c3760e01b5f5260045ffd5b6107eb9295506108f291945060403d6040116108fd575b6108ea81836117b1565b81019061180a565b94909493909161078a565b503d6108e0565b6040513d5f823e3d90fd5b6109309060203d602011610935575b61092881836117b1565b8101906117f2565b610757565b503d61091e565b61095d919250843d8611610964575b61095581836117b1565b8101906117d3565b908a610707565b503d61094b565b6109839060203d6020116109355761092881836117b1565b6106d8565b6109a1915060203d6020116109645761095581836117b1565b87610697565b63022e258160e11b5f5260045ffd5b6109cf915060203d6020116109355761092881836117b1565b8761066d565b6109ee915060203d6020116109645761095581836117b1565b87610623565b610a0d915060203d6020116109355761092881836117b1565b876105f9565b610a2c915060203d6020116109645761095581836117b1565b876105af565b3461013d57604036600319011261013d576024356004355f52600460205260405f20805482101561013d57602091610a6991611780565b905460405160039290921b1c6001600160a01b03168152f35b3461013d5760e036600319011261013d57600435610a9e61170c565b906044359160643567ffffffffffffffff811161013d57610ac390369060040161174f565b93909160843567ffffffffffffffff811161013d57610ae690369060040161174f565b92909160018060a01b031690815f52600360205260405f205481101561054257815f52600160205260ff6006610b1f8360405f20611722565b500154161561053357838714801590610d8e575b610d7f575f915f5b858110610d5f5750805f526001602052826003610b5b8460405f20611722565b500154106108ba575f5260016020526003610b798260405f20611722565b5001610b868382546118f2565b90556040519060c082019082821067ffffffffffffffff831117610d4b57610c199360059260405288845260208401918252604084019081526060840160a4358152608085019160c435835260a0860193600185528b5f52600260205260405f209651875551600187015551600286015551600385015551600484015551151591019060ff801983541691151516179055565b5f5b858110610c2457005b845f52600460205260405f2090610c44610c3f8289886118e2565b6118ff565b825492600160401b841015610d4b5783610c649160018096018155611780565b819291549060031b91858060a01b0316821b91858060a01b03901b1916179055610c8f8185856118e2565b35865f52600560205260405f20610caa610c3f848b8a6118e2565b848060a01b03165f5260205260405f2055855f52600760205260405f20610cd5610c3f838a896118e2565b838060a01b03165f5260205260405f2060ff198154169055855f52600660205260405f20610d07610c3f838a896118e2565b838060a01b03165f526020525f6040812055855f52600860205260405f20610d33610c3f838a896118e2565b838060a01b03165f526020525f604081205501610c1b565b634e487b7160e01b5f52604160045260245ffd5b92610d78600191610d718689896118e2565b35906118d5565b9301610b3b565b634d2f260f60e11b5f5260045ffd5b508615610b33565b3461013d57604036600319011261013d57610daf6116f6565b6001600160a01b03165f81815260036020526040902054602435919082101561054257805f526001602052610de78260405f20611722565b5060ff60068201541615610533575f90602060018060a01b03825416602460018401546040519586938492630962ef7960e01b845260048401525af1918215610904575f92610e96575b508115610e87577fdacbdde355ba930696a362ea6738feb9f8bd52dfb3d81947558fd3217e23e32591600582600460209401610e6e8482546118d5565b905501610e7c8282546118d5565b9055604051908152a3005b6373380d9960e01b5f5260045ffd5b9091506020813d602011610ec2575b81610eb2602093836117b1565b8101031261013d57519084610e31565b3d9150610ea5565b3461013d57604036600319011261013d57600435610ee661170c565b610eee6119d3565b815f52600260205260ff600560405f2001541615610446576005915f52600260205260405f2090610f4a6003610f40600185015460028601549460018060a01b03165f52600160205260405f20611722565b50019182546118d5565b905501805460ff19169055005b3461013d575f36600319011261013d575f546040516001600160a01b039091168152602090f35b3461013d57604036600319011261013d57610f9761170c565b6004355f52600760205260405f209060018060a01b03165f52602052602060ff60405f2054166040519015158152f35b3461013d57608036600319011261013d57610fe06116f6565b610fe861170c565b604051630dfe168160e01b8152604435916001600160a01b038116916064359190602081600481875afa908115610904575f9161133d575b506040516323b872dd60e01b81526001600160a01b038781166004830152306024830152604482018790529091602091839160649183915f91165af1908115610904575f9161131e575b50156109a75760405163d21220a760e01b8152602081600481875afa908115610904575f916112ff575b506040516323b872dd60e01b81526001600160a01b038781166004830152306024830152604482018590529091602091839160649183915f91165af1908115610904575f916112e0575b50156109a757604051630dfe168160e01b8152602081600481875afa908115610904575f916112c1575b5060405163095ea7b360e01b81526001600160a01b038381166004830152602482018790529091602091839160449183915f91165af18015610904576112a4575b5060405163d21220a760e01b815290602082600481875afa918215610904576111af9260209285925f92611285575060405163095ea7b360e01b81526001600160a01b0390911660048201526024810192909252909283919082905f9082906044820190565b03926001600160a01b03165af1801561090457611268575b5060405192634e6a20ed60e11b8452600484015260248301526040826044815f855af1918215610904575f905f93611244575b506001600160a01b039093165f81815260016020526040908190209051919461122b9492939192916107c185611795565b5f52600360205260405f2061124081546118c7565b9055005b61122b9350611262915060403d6040116108fd576108ea81836117b1565b926111fa565b6112809060203d6020116109355761092881836117b1565b6111c7565b61129d919250843d86116109645761095581836117b1565b9089610707565b6112bc9060203d6020116109355761092881836117b1565b611149565b6112da915060203d6020116109645761095581836117b1565b86611108565b6112f9915060203d6020116109355761092881836117b1565b866110de565b611318915060203d6020116109645761095581836117b1565b86611094565b611337915060203d6020116109355761092881836117b1565b8661106a565b611356915060203d6020116109645761095581836117b1565b86611020565b3461013d575f36600319011261013d576113746119d3565b5f80546001600160a01b0319811682556001600160a01b03167f8be0079c531659141344cd1fd0a4f28419497f9722a3daafe3b4186f6b6457e08280a3005b3461013d57604036600319011261013d576113cc6116f6565b6001600160a01b03165f90815260016020526040902080546024359081101561013d576113f891611722565b50805460018201546002830154600384015460048501546005860154600690960154604080516001600160a01b0390971687526020870195909552938501929092526060840152608083015260a082019290925260ff909116151560c08201528060e081015b0390f35b3461013d57602036600319011261013d576004355f52600260205260405f20805461145e600183015492600281015490600381015460ff6005600484015493015416926040519687968794919260a0949197969360c0870198875260208701526040860152606085015260808401521515910152565b3461013d57602036600319011261013d57600480355f9081526002602081815260408084206001810154938101546003820154968201546008855283872033885285529583902054600590920154835195865293850152908301949094526060820192909252608081019290925260ff16151560a082015260c090f35b3461013d57604036600319011261013d5761156e61170c565b6004355f52600860205260405f209060018060a01b03165f52602052602060405f2054604051908152f35b3461013d57604036600319011261013d576115b261170c565b6004355f52600660205260405f209060018060a01b03165f52602052602060405f2054604051908152f35b3461013d57604036600319011261013d576115f66116f6565b6001600160a01b03165f81815260036020526040902054602435908110156105425761162c915f52600160205260405f20611722565b506040519061163a82611795565b80546001600160a01b031680835260018201546020808501829052600284015460408087018290526003860154606080890182905260048801546080808b0182905260058a015460a0808d018290526006909b015460ff16151560c09c8d0181905286519a8b52978a019890985293880194909452860152840152928201529182015260e090f35b3461013d57602036600319011261013d576020906001600160a01b036116e66116f6565b165f526003825260405f20548152f35b600435906001600160a01b038216820361013d57565b602435906001600160a01b038216820361013d57565b805482101561173b575f52600760205f20910201905f90565b634e487b7160e01b5f52603260045260245ffd5b9181601f8401121561013d5782359167ffffffffffffffff831161013d576020808501948460051b01011161013d57565b805482101561173b575f5260205f2001905f90565b60e0810190811067ffffffffffffffff821117610d4b57604052565b90601f8019910116810190811067ffffffffffffffff821117610d4b57604052565b9081602091031261013d57516001600160a01b038116810361013d5790565b9081602091031261013d5751801515810361013d5790565b919082604091031261013d576020825192015190565b8054600160401b811015610d4b5761183d91600182018155611722565b6118b457600660c06118b29360018060a01b038151166bffffffffffffffffffffffff60a01b8554161784556020810151600185015560408101516002850155606081015160038501556080810151600485015560a081015160058501550151151591019060ff801983541691151516179055565b565b634e487b7160e01b5f525f60045260245ffd5b5f1981146103ea5760010190565b919082018092116103ea57565b919081101561173b5760051b0190565b919082039182116103ea57565b356001600160a01b038116810361013d5790565b91825f52600260205260405f2060ff60058201541615610446576004810154421061041957835f52600660205260405f2060018060a01b0384165f5260205260405f20546119c45760049160016119a092015490855f52600660205260405f2060018060a01b0386165f5260205260405f2042905560018060a01b03165f52600160205260405f20611722565b500154915f52600860205260405f209060018060a01b03165f5260205260405f2055565b6328486b6360e11b5f5260045ffd5b5f546001600160a01b031633036119e657565b63118cdaa760e01b5f523360045260245ffdfea26469706673582212205543b0d39f186b6b8870803c952d21468e3fb77a6e85dc4365a4141055da527864736f6c634300081c0033","linkReferences":{}},"methodIdentifiers":{"addLiquidityAndCreatePayroll(address,address,uint256,uint256,uint256,uint256,uint256,uint256)":"b6224ed4","addLiquidityPosition(address,address,uint256,uint256)":"83c2c855","cancelPayroll(uint256,address)":"8f5b4cf5","claimPayrollAmount(uint256,address)":"d9e8af62","claimRewards(address,uint256)":"9a99b4f0","companyPositionCount(address)":"0f9c0908","companyPositions(address,uint256)":"62a7ee3b","createPayrollMulti(uint256,address,uint256,address[],uint256[],uint256,uint256)":"a143c8cb","getPayrollInfo(uint256)":"3c77a006","getPositionInfo(address,uint256)":"1327d7fb","owner()":"8da5cb5b","payrollAmounts(uint256,address)":"e9740041","payrollBeneficiaries(uint256,uint256)":"adc18b8b","payrollHasClaimed(uint256,address)":"85ce44a2","payrollRewardSnapshots(uint256,address)":"229f617d","payrollUnlockTimes(uint256,address)":"1d4c8c8e","payrolls(uint256)":"5632b1fa","renounceOwnership()":"715018a6","transferOwnership(address)":"f2fde38b","unlockPayrollForBeneficiary(uint256,address,address)":"f36afac9","updatePositionAmount(address,uint256,uint256)":"b84e966d"},"id":0}