{"abi":[{"type":"constructor","inputs":[],"stateMutability":"nonpayable"},{"type":"function","name":"addLiquidityAndCreateVesting","inputs":[{"name":"company","type":"address","internalType":"address"},{"name":"pool","type":"address","internalType":"address"},{"name":"amount0","type":"uint256","internalType":"uint256"},{"name":"amount1","type":"uint256","internalType":"uint256"},{"name":"vestingId","type":"uint256","internalType":"uint256"},{"name":"vestingAmount","type":"uint256","internalType":"uint256"},{"name":"startTime","type":"uint256","internalType":"uint256"},{"name":"endTime","type":"uint256","internalType":"uint256"}],"outputs":[],"stateMutability":"nonpayable"},{"type":"function","name":"addLiquidityPosition","inputs":[{"name":"company","type":"address","internalType":"address"},{"name":"pool","type":"address","internalType":"address"},{"name":"amount0","type":"uint256","internalType":"uint256"},{"name":"amount1","type":"uint256","internalType":"uint256"}],"outputs":[],"stateMutability":"nonpayable"},{"type":"function","name":"cancelVesting","inputs":[{"name":"vestingId","type":"uint256","internalType":"uint256"},{"name":"company","type":"address","internalType":"address"}],"outputs":[],"stateMutability":"nonpayable"},{"type":"function","name":"claimRewards","inputs":[{"name":"company","type":"address","internalType":"address"},{"name":"positionIndex","type":"uint256","internalType":"uint256"}],"outputs":[],"stateMutability":"nonpayable"},{"type":"function","name":"claimVestedAmount","inputs":[{"name":"vestingId","type":"uint256","internalType":"uint256"},{"name":"company","type":"address","internalType":"address"}],"outputs":[],"stateMutability":"nonpayable"},{"type":"function","name":"companyPositionCount","inputs":[{"name":"","type":"address","internalType":"address"}],"outputs":[{"name":"","type":"uint256","internalType":"uint256"}],"stateMutability":"view"},{"type":"function","name":"companyPositions","inputs":[{"name":"","type":"address","internalType":"address"},{"name":"","type":"uint256","internalType":"uint256"}],"outputs":[{"name":"pool","type":"address","internalType":"address"},{"name":"positionId","type":"uint256","internalType":"uint256"},{"name":"totalAmount","type":"uint256","internalType":"uint256"},{"name":"availableAmount","type":"uint256","internalType":"uint256"},{"name":"totalRewards","type":"uint256","internalType":"uint256"},{"name":"claimedRewards","type":"uint256","internalType":"uint256"},{"name":"isActive","type":"bool","internalType":"bool"}],"stateMutability":"view"},{"type":"function","name":"createVestingMulti","inputs":[{"name":"vestingId","type":"uint256","internalType":"uint256"},{"name":"company","type":"address","internalType":"address"},{"name":"positionIndex","type":"uint256","internalType":"uint256"},{"name":"beneficiaries","type":"address[]","internalType":"address[]"},{"name":"amounts","type":"uint256[]","internalType":"uint256[]"},{"name":"startTime","type":"uint256","internalType":"uint256"},{"name":"endTime","type":"uint256","internalType":"uint256"}],"outputs":[],"stateMutability":"nonpayable"},{"type":"function","name":"getPositionInfo","inputs":[{"name":"company","type":"address","internalType":"address"},{"name":"positionIndex","type":"uint256","internalType":"uint256"}],"outputs":[{"name":"pool","type":"address","internalType":"address"},{"name":"positionId","type":"uint256","internalType":"uint256"},{"name":"totalAmount","type":"uint256","internalType":"uint256"},{"name":"availableAmount","type":"uint256","internalType":"uint256"},{"name":"totalRewards","type":"uint256","internalType":"uint256"},{"name":"claimedRewards","type":"uint256","internalType":"uint256"},{"name":"isActive","type":"bool","internalType":"bool"}],"stateMutability":"view"},{"type":"function","name":"getVestingInfo","inputs":[{"name":"vestingId","type":"uint256","internalType":"uint256"}],"outputs":[{"name":"positionIndex","type":"uint256","internalType":"uint256"},{"name":"amount","type":"uint256","internalType":"uint256"},{"name":"startTime","type":"uint256","internalType":"uint256"},{"name":"endTime","type":"uint256","internalType":"uint256"},{"name":"claimedAmount","type":"uint256","internalType":"uint256"},{"name":"isActive","type":"bool","internalType":"bool"}],"stateMutability":"view"},{"type":"function","name":"owner","inputs":[],"outputs":[{"name":"","type":"address","internalType":"address"}],"stateMutability":"view"},{"type":"function","name":"renounceOwnership","inputs":[],"outputs":[],"stateMutability":"nonpayable"},{"type":"function","name":"transferOwnership","inputs":[{"name":"newOwner","type":"address","internalType":"address"}],"outputs":[],"stateMutability":"nonpayable"},{"type":"function","name":"unlockVestingForBeneficiary","inputs":[{"name":"vestingId","type":"uint256","internalType":"uint256"},{"name":"beneficiary","type":"address","internalType":"address"},{"name":"company","type":"address","internalType":"address"}],"outputs":[],"stateMutability":"nonpayable"},{"type":"function","name":"updatePositionAmount","inputs":[{"name":"company","type":"address","internalType":"address"},{"name":"positionIndex","type":"uint256","internalType":"uint256"},{"name":"newAmount","type":"uint256","internalType":"uint256"}],"outputs":[],"stateMutability":"nonpayable"},{"type":"function","name":"vestingAmounts","inputs":[{"name":"","type":"uint256","internalType":"uint256"},{"name":"","type":"address","internalType":"address"}],"outputs":[{"name":"","type":"uint256","internalType":"uint256"}],"stateMutability":"view"},{"type":"function","name":"vestingBeneficiaries","inputs":[{"name":"","type":"uint256","internalType":"uint256"},{"name":"","type":"uint256","internalType":"uint256"}],"outputs":[{"name":"","type":"address","internalType":"address"}],"stateMutability":"view"},{"type":"function","name":"vestingHasClaimed","inputs":[{"name":"","type":"uint256","internalType":"uint256"},{"name":"","type":"address","internalType":"address"}],"outputs":[{"name":"","type":"bool","internalType":"bool"}],"stateMutability":"view"},{"type":"function","name":"vestingRewardSnapshots","inputs":[{"name":"","type":"uint256","internalType":"uint256"},{"name":"","type":"address","internalType":"address"}],"outputs":[{"name":"","type":"uint256","internalType":"uint256"}],"stateMutability":"view"},{"type":"function","name":"vestingUnlockTimes","inputs":[{"name":"","type":"uint256","internalType":"uint256"},{"name":"","type":"address","internalType":"address"}],"outputs":[{"name":"","type":"uint256","internalType":"uint256"}],"stateMutability":"view"},{"type":"function","name":"vestings","inputs":[{"name":"","type":"uint256","internalType":"uint256"}],"outputs":[{"name":"id","type":"uint256","internalType":"uint256"},{"name":"positionIndex","type":"uint256","internalType":"uint256"},{"name":"totalAmount","type":"uint256","internalType":"uint256"},{"name":"startTime","type":"uint256","internalType":"uint256"},{"name":"endTime","type":"uint256","internalType":"uint256"},{"name":"isActive","type":"bool","internalType":"bool"}],"stateMutability":"view"},{"type":"event","name":"LiquidityPositionAdded","inputs":[{"name":"company","type":"address","indexed":true,"internalType":"address"},{"name":"pool","type":"address","indexed":true,"internalType":"address"},{"name":"positionId","type":"uint256","indexed":true,"internalType":"uint256"},{"name":"amount0","type":"uint256","indexed":false,"internalType":"uint256"},{"name":"amount1","type":"uint256","indexed":false,"internalType":"uint256"}],"anonymous":false},{"type":"event","name":"OwnershipTransferred","inputs":[{"name":"previousOwner","type":"address","indexed":true,"internalType":"address"},{"name":"newOwner","type":"address","indexed":true,"internalType":"address"}],"anonymous":false},{"type":"event","name":"RewardsClaimed","inputs":[{"name":"company","type":"address","indexed":true,"internalType":"address"},{"name":"positionIndex","type":"uint256","indexed":true,"internalType":"uint256"},{"name":"amount","type":"uint256","indexed":false,"internalType":"uint256"}],"anonymous":false},{"type":"event","name":"VestingCancelled","inputs":[{"name":"vestingId","type":"uint256","indexed":true,"internalType":"uint256"},{"name":"company","type":"address","indexed":true,"internalType":"address"}],"anonymous":false},{"type":"event","name":"VestingClaimed","inputs":[{"name":"vestingId","type":"uint256","indexed":true,"internalType":"uint256"},{"name":"beneficiary","type":"address","indexed":true,"internalType":"address"},{"name":"amount","type":"uint256","indexed":false,"internalType":"uint256"}],"anonymous":false},{"type":"event","name":"VestingCreated","inputs":[{"name":"vestingId","type":"uint256","indexed":true,"internalType":"uint256"},{"name":"company","type":"address","indexed":true,"internalType":"address"},{"name":"positionIndex","type":"uint256","indexed":false,"internalType":"uint256"},{"name":"beneficiaries","type":"address[]","indexed":false,"internalType":"address[]"},{"name":"amounts","type":"uint256[]","indexed":false,"internalType":"uint256[]"},{"name":"startTime","type":"uint256","indexed":false,"internalType":"uint256"},{"name":"endTime","type":"uint256","indexed":false,"internalType":"uint256"}],"anonymous":false},{"type":"error","name":"OwnableInvalidOwner","inputs":[{"name":"owner","type":"address","internalType":"address"}]},{"type":"error","name":"OwnableUnauthorizedAccount","inputs":[{"name":"account","type":"address","internalType":"address"}]}],"bytecode":{"object":"0x608080604052346071573315605e575f8054336001600160a01b0319821681178355916001600160a01b03909116907f8be0079c531659141344cd1fd0a4f28419497f9722a3daafe3b4186f6b6457e09080a3611ce890816100768239f35b631e4fbdf760e01b5f525f60045260245ffd5b5f80fdfe60806040526004361015610011575f80fd5b5f3560e01c80630215d9361461175c5780630f9c0908146117245780631327d7fb1461164b578063145e397f1461130957806320f6b0a91461128c578063347091b514611248578063472d5c4f14610de057806362a7ee3b14610d365780636c60a1d314610cf2578063715018a614610c9b578063821bee7314610c2157806383c2c8551461082b5780638da5cb5b146108045780639a99b4f0146106935780639ae5a9b614610604578063a13d5ddf146105bb578063b0cf3a0a14610334578063b84e966d14610213578063d0225c61146101d9578063f2fde38b146101545763f5b93f2914610100575f80fd5b34610150576040366003190112610150576024356004355f52600460205260405f208054821015610150576020916101379161182a565b905460405160039290921b1c6001600160a01b03168152f35b5f80fd5b346101505760203660031901126101505761016d6117b6565b610175611c8c565b6001600160a01b031680156101c6575f80546001600160a01b03198116831782556001600160a01b0316907f8be0079c531659141344cd1fd0a4f28419497f9722a3daafe3b4186f6b6457e09080a3005b631e4fbdf760e01b5f525f60045260245ffd5b34610150576060366003190112610150576101f26117a0565b6044356001600160a01b03811681036101505761021191600435611b9b565b005b346101505760603660031901126101505761022c6117b6565b61028a6024356044359260018060a01b0316805f52600360205261025560405f2054831061183f565b805f52600160205261027a60ff60066102718560405f206117fd565b500154166118c2565b5f52600160205260405f206117fd565b50600281019081548084115f146102b95760036102aa6102b4928661196d565b9201918254611914565b905555005b906003019081546102ca858361196d565b81106102e3576102dd856102b49361196d565b9061196d565b60405162461bcd60e51b8152602060048201526024808201527f43616e6e6f74207265647563652062656c6f7720617661696c61626c6520616d6044820152631bdd5b9d60e21b6064820152608490fd5b34610150576040366003190112610150576004356103506117a0565b90805f52600260205260405f209161036e60ff600585015416611b1a565b5f82815260076020908152604080832033845290915290205460ff16610584575f8281526005602090815260408083203384529091529020541561054b575f8281526006602090815260408083203384529091529020541561052b575b600183015492825f52600860205260405f2060018060a01b0333165f5260205260405f20549160018060a01b031692835f526001602052610442600260046104168860405f206117fd565b50015493015493825f52600560205260405f2060018060a01b0333165f5260205260405f20549361196d565b938285029480860484149015171561051757831561050357815f52600760205260405f2060018060a01b0333165f5260205260405f20600160ff198254161790555f52600160205260036104998660405f206117fd565b50016104a6838254611914565b90556040519182527f14a81f9a556dbd4b3ae8c924aef3cc382cb6f3c4b91e88201a1be8e8cf35932860203393a3604051910481527fdacbdde355ba930696a362ea6738feb9f8bd52dfb3d81947558fd3217e23e32560203392a3005b634e487b7160e01b5f52601260045260245ffd5b634e487b7160e01b5f52601160045260245ffd5b61053b6004840154421015611b5b565b610546813384611b9b565b6103cb565b60405162461bcd60e51b81526020600482015260116024820152704e6f7420612062656e656669636961727960781b6044820152606490fd5b60405162461bcd60e51b815260206004820152600f60248201526e105b1c9958591e4818db185a5b5959608a1b6044820152606490fd5b34610150576040366003190112610150576105d46117a0565b6004355f52600760205260405f209060018060a01b03165f52602052602060ff60405f2054166040519015158152f35b346101505760403660031901126101505760056004356106226117a0565b9061062b611c8c565b805f52600260205261064560ff8460405f20015416611b1a565b5f52600260205260405f2090610686600361067c600185015460028601549460018060a01b03165f52600160205260405f206117fd565b5001918254611914565b905501805460ff19169055005b34610150576040366003190112610150576106ac6117b6565b6001600160a01b03165f8181526003602052604090205460243591906106d390831061183f565b805f5260016020525f6106e983604083206117fd565b506106fa60ff6006830154166118c2565b602060018060a01b03825416602460018401546040519586938492630962ef7960e01b845260048401525af19182156107f9575f926107c5575b50811561078a577fdacbdde355ba930696a362ea6738feb9f8bd52dfb3d81947558fd3217e23e32591600582600460209401610771848254611914565b90550161077f828254611914565b9055604051908152a3005b60405162461bcd60e51b81526020600482015260136024820152724e6f207265776172647320746f20636c61696d60681b6044820152606490fd5b9091506020813d6020116107f1575b816107e1602093836118a0565b8101031261015057519084610734565b3d91506107d4565b6040513d5f823e3d90fd5b34610150575f366003190112610150575f546040516001600160a01b039091168152602090f35b34610150576080366003190112610150576108446117b6565b61084c6117a0565b604051630dfe168160e01b8152604435916001600160a01b038116916064359190602081600481875afa9081156107f9575f91610c02575b506040516323b872dd60e01b81526001600160a01b038781166004830152306024830152604482018790529091602091839160649183915f91165af180156107f9576108d7915f91610be3575b506119c5565b60405163d21220a760e01b8152602081600481875afa9081156107f9575f91610bc4575b506040516323b872dd60e01b81526001600160a01b038781166004830152306024830152604482018590529091602091839160649183915f91165af180156107f95761094e915f91610ba5575b50611a0a565b604051630dfe168160e01b8152602081600481875afa9081156107f9575f91610b86575b5060405163095ea7b360e01b81526001600160a01b038381166004830152602482018790529091602091839160449183915f91165af180156107f957610b69575b5060405163d21220a760e01b815290602082600481875afa9182156107f957610a1a9260209285925f92610b3a575b5060405163095ea7b360e01b81526001600160a01b0390911660048201526024810192909252909283919082905f9082906044820190565b03926001600160a01b03165af180156107f957610b0d575b5060405192634e6a20ed60e11b8452600484015260248301526040826044815f855af19182156107f9575f905f93610ad9575b506001600160a01b039093165f818152600160205260409081902090519194610ac0949293919291610a9685611884565b8452602084015280604084015260608301525f60808301525f60a0830152600160c0830152611a65565b5f52600360205260405f20610ad58154611b0c565b9055005b610ac09350610b00915060403d604011610b06575b610af881836118a0565b810190611a4f565b92610a65565b503d610aee565b610b2e9060203d602011610b33575b610b2681836118a0565b8101906119ad565b610a32565b503d610b1c565b610b5b919250843d8611610b62575b610b5381836118a0565b81019061198e565b90896109e2565b503d610b49565b610b819060203d602011610b3357610b2681836118a0565b6109b3565b610b9f915060203d602011610b6257610b5381836118a0565b86610972565b610bbe915060203d602011610b3357610b2681836118a0565b87610948565b610bdd915060203d602011610b6257610b5381836118a0565b866108fb565b610bfc915060203d602011610b3357610b2681836118a0565b876108d1565b610c1b915060203d602011610b6257610b5381836118a0565b86610884565b34610150576020366003190112610150576004355f52600260205260405f208054610c97600183015492600281015490600381015460ff6005600484015493015416926040519687968794919260a0949197969360c0870198875260208701526040860152606085015260808401521515910152565b0390f35b34610150575f36600319011261015057610cb3611c8c565b5f80546001600160a01b0319811682556001600160a01b03167f8be0079c531659141344cd1fd0a4f28419497f9722a3daafe3b4186f6b6457e08280a3005b3461015057604036600319011261015057610d0b6117a0565b6004355f52600560205260405f209060018060a01b03165f52602052602060405f2054604051908152f35b3461015057604036600319011261015057610d4f6117b6565b6001600160a01b03165f90815260016020526040902080546024359081101561015057610d7b916117fd565b50805460018201546002830154600384015460048501546005860154600690960154604080516001600160a01b0390971687526020870195909552938501929092526060840152608083015260a082019290925260ff909116151560c082015260e090f35b346101505761010036600319011261015057610dfa6117b6565b610e026117a0565b604051630dfe168160e01b81526001600160a01b0382169160a435916044359160643591602081600481895afa80156107f95784602091610e81935f9161120c575b506040516323b872dd60e01b81526001600160a01b038b1660048201523060248201526044810192909252909283919082905f9082906064820190565b03926001600160a01b03165af180156107f957610ea4915f9161122957506119c5565b60405163d21220a760e01b8152602081600481895afa80156107f95783602091610f0b935f9161120c57506040516323b872dd60e01b81526001600160a01b038b1660048201523060248201526044810192909252909283919082905f9082906064820190565b03926001600160a01b03165af180156107f957610f2e915f916111ed5750611a0a565b604051630dfe168160e01b8152602081600481895afa9081156107f9575f916111ce575b5060405163095ea7b360e01b81526001600160a01b038381166004830152602482018690529091602091839160449183915f91165af180156107f9576111b1575b5060405163d21220a760e01b815290602082600481895afa9182156107f957610ff99260209285925f92611192575060405163095ea7b360e01b81526001600160a01b0390911660048201526024810192909252909283919082905f9082906044820190565b03926001600160a01b03165af180156107f957611175575b5060405191634e6a20ed60e11b8352600483015260248201526040816044815f875af19283156107f9576005945f925f9561114c575b509061107e9160018060a01b031692835f52600360205260405f205495845f52600160205260405f209160405193610a9685611884565b805f52600360205260405f206110948154611b0c565b9055805f5260036020526110ad60405f2054841061183f565b805f5260016020526110c960ff60066102718660405f206117fd565b805f5260016020526110ee8260036110e48660405f206117fd565b5001541015611921565b5f52600160205260036111048360405f206117fd565b500161111182825461196d565b90556084355f52600260205260405f20916001830155600282015560c435600382015560e435600482015501600160ff198254161790555f80f35b61116c91955061107e92935060403d604011610b0657610af881836118a0565b94909291611047565b61118d9060203d602011610b3357610b2681836118a0565b611011565b6111aa919250843d8611610b6257610b5381836118a0565b908a6109e2565b6111c99060203d602011610b3357610b2681836118a0565b610f93565b6111e7915060203d602011610b6257610b5381836118a0565b87610f52565b611206915060203d602011610b3357610b2681836118a0565b88610948565b6112239150833d8511610b6257610b5381836118a0565b8a610e44565b611242915060203d602011610b3357610b2681836118a0565b886108d1565b34610150576040366003190112610150576112616117a0565b6004355f52600660205260405f209060018060a01b03165f52602052602060405f2054604051908152f35b3461015057602036600319011261015057600480355f9081526002602081815260408084206001810154938101546003820154968201546008855283872033885285529583902054600590920154835195865293850152908301949094526060820192909252608081019290925260ff16151560a082015260c090f35b346101505760e0366003190112610150576004356113256117a0565b906044359160643567ffffffffffffffff81116101505761134a9036906004016117cc565b93909160843567ffffffffffffffff81116101505761136d9036906004016117cc565b92909160018060a01b031690815f52600360205261139060405f2054821061183f565b815f5260016020526113ac60ff60066102718460405f206117fd565b83871480611642575b156115fd575f915f5b8581106115dd5750805f5260016020526113e18360036110e48560405f206117fd565b5f52600160205260036113f78260405f206117fd565b500161140483825461196d565b90556040519060c082019082821067ffffffffffffffff8311176115c9576114979360059260405288845260208401918252604084019081526060840160a4358152608085019160c435835260a0860193600185528b5f52600260205260405f209651875551600187015551600286015551600385015551600484015551151591019060ff801983541691151516179055565b5f5b8581106114a257005b845f52600460205260405f20906114c26114bd828988611904565b61197a565b825492600160401b8410156115c957836114e2916001809601815561182a565b819291549060031b91858060a01b0316821b91858060a01b03901b191617905561150d818585611904565b35865f52600560205260405f206115286114bd848b8a611904565b848060a01b03165f5260205260405f2055855f52600760205260405f206115536114bd838a89611904565b838060a01b03165f5260205260405f2060ff198154169055855f52600660205260405f206115856114bd838a89611904565b838060a01b03165f526020525f6040812055855f52600860205260405f206115b16114bd838a89611904565b838060a01b03165f526020525f604081205501611499565b634e487b7160e01b5f52604160045260245ffd5b926115f66001916115ef868989611904565b3590611914565b93016113be565b60405162461bcd60e51b815260206004820152601d60248201527f496e76616c69642062656e656669636961726965732f616d6f756e74730000006044820152606490fd5b508615156113b5565b346101505760403660031901126101505761168e6116676117b6565b6001600160a01b03165f81815260036020526040902054602435919061027a90831061183f565b506040519061169c82611884565b80546001600160a01b031680835260018201546020808501829052600284015460408087018290526003860154606080890182905260048801546080808b0182905260058a015460a0808d018290526006909b015460ff16151560c09c8d0181905286519a8b52978a019890985293880194909452860152840152928201529182015260e090f35b34610150576020366003190112610150576001600160a01b036117456117b6565b165f526003602052602060405f2054604051908152f35b34610150576040366003190112610150576117756117a0565b6004355f52600860205260405f209060018060a01b03165f52602052602060405f2054604051908152f35b602435906001600160a01b038216820361015057565b600435906001600160a01b038216820361015057565b9181601f840112156101505782359167ffffffffffffffff8311610150576020808501948460051b01011161015057565b8054821015611816575f52600760205f20910201905f90565b634e487b7160e01b5f52603260045260245ffd5b8054821015611816575f5260205f2001905f90565b1561184657565b60405162461bcd60e51b8152602060048201526016602482015275092dcecc2d8d2c840e0dee6d2e8d2dedc40d2dcc8caf60531b6044820152606490fd5b60e0810190811067ffffffffffffffff8211176115c957604052565b90601f8019910116810190811067ffffffffffffffff8211176115c957604052565b156118c957565b60405162461bcd60e51b8152602060048201526013602482015272506f736974696f6e206e6f742061637469766560681b6044820152606490fd5b91908110156118165760051b0190565b9190820180921161051757565b1561192857565b60405162461bcd60e51b815260206004820152601d60248201527f496e73756666696369656e7420617661696c61626c6520616d6f756e740000006044820152606490fd5b9190820391821161051757565b356001600160a01b03811681036101505790565b9081602091031261015057516001600160a01b03811681036101505790565b90816020910312610150575180151581036101505790565b156119cc57565b60405162461bcd60e51b8152602060048201526016602482015275151bdad95b8c081d1c985b9cd9995c8819985a5b195960521b6044820152606490fd5b15611a1157565b60405162461bcd60e51b8152602060048201526016602482015275151bdad95b8c481d1c985b9cd9995c8819985a5b195960521b6044820152606490fd5b9190826040910312610150576020825192015190565b8054600160401b8110156115c957611a82916001820181556117fd565b611af957600660c0611af79360018060a01b038151166bffffffffffffffffffffffff60a01b8554161784556020810151600185015560408101516002850155606081015160038501556080810151600485015560a081015160058501550151151591019060ff801983541691151516179055565b565b634e487b7160e01b5f525f60045260245ffd5b5f1981146105175760010190565b15611b2157565b60405162461bcd60e51b815260206004820152601260248201527156657374696e67206e6f742061637469766560701b6044820152606490fd5b15611b6257565b60405162461bcd60e51b815260206004820152601160248201527015995cdd1a5b99c81b9bdd08195b991959607a1b6044820152606490fd5b91825f52600260205260405f20611bb860ff600583015416611b1a565b611bc86004820154421015611b5b565b835f52600660205260405f2060018060a01b0384165f5260205260405f2054611c54576004916001611c3092015490855f52600660205260405f2060018060a01b0386165f5260205260405f2042905560018060a01b03165f52600160205260405f206117fd565b500154915f52600860205260405f209060018060a01b03165f5260205260405f2055565b60405162461bcd60e51b815260206004820152601060248201526f105b1c9958591e481d5b9b1bd8dad95960821b6044820152606490fd5b5f546001600160a01b03163303611c9f57565b63118cdaa760e01b5f523360045260245ffdfea2646970667358221220d9d590678ca835e67b8cb6d6e7fca3bc79a9661f3a9c9d3d190407d5ec4aa6f264736f6c634300081c0033","linkReferences":{}},"methodIdentifiers":{"addLiquidityAndCreateVesting(address,address,uint256,uint256,uint256,uint256,uint256,uint256)":"472d5c4f","addLiquidityPosition(address,address,uint256,uint256)":"83c2c855","cancelVesting(uint256,address)":"9ae5a9b6","claimRewards(address,uint256)":"9a99b4f0","claimVestedAmount(uint256,address)":"b0cf3a0a","companyPositionCount(address)":"0f9c0908","companyPositions(address,uint256)":"62a7ee3b","createVestingMulti(uint256,address,uint256,address[],uint256[],uint256,uint256)":"145e397f","getPositionInfo(address,uint256)":"1327d7fb","getVestingInfo(uint256)":"20f6b0a9","owner()":"8da5cb5b","renounceOwnership()":"715018a6","transferOwnership(address)":"f2fde38b","unlockVestingForBeneficiary(uint256,address,address)":"d0225c61","updatePositionAmount(address,uint256,uint256)":"b84e966d","vestingAmounts(uint256,address)":"6c60a1d3","vestingBeneficiaries(uint256,uint256)":"f5b93f29","vestingHasClaimed(uint256,address)":"a13d5ddf","vestingRewardSnapshots(uint256,address)":"0215d936","vestingUnlockTimes(uint256,address)":"347091b5","vestings(uint256)":"821bee73"},"id":0}