{"abi":[{"type":"constructor","inputs":[{"name":"_token0","type":"address","internalType":"address"},{"name":"_token1","type":"address","internalType":"address"},{"name":"_owner","type":"address","internalType":"address"}],"stateMutability":"nonpayable"},{"type":"function","name":"REWARD_RATE","inputs":[],"outputs":[{"name":"","type":"uint256","internalType":"uint256"}],"stateMutability":"view"},{"type":"function","name":"addLiquidity","inputs":[{"name":"amount0","type":"uint256","internalType":"uint256"},{"name":"amount1","type":"uint256","internalType":"uint256"}],"outputs":[{"name":"positionId","type":"uint256","internalType":"uint256"},{"name":"liquidity","type":"uint256","internalType":"uint256"}],"stateMutability":"nonpayable"},{"type":"function","name":"addRewards","inputs":[{"name":"positionId","type":"uint256","internalType":"uint256"},{"name":"amount","type":"uint256","internalType":"uint256"}],"outputs":[],"stateMutability":"nonpayable"},{"type":"function","name":"calculateRewards","inputs":[{"name":"positionId","type":"uint256","internalType":"uint256"}],"outputs":[{"name":"rewards","type":"uint256","internalType":"uint256"}],"stateMutability":"view"},{"type":"function","name":"claimRewards","inputs":[{"name":"positionId","type":"uint256","internalType":"uint256"}],"outputs":[{"name":"rewards","type":"uint256","internalType":"uint256"}],"stateMutability":"nonpayable"},{"type":"function","name":"getPosition","inputs":[{"name":"positionId","type":"uint256","internalType":"uint256"}],"outputs":[{"name":"owner","type":"address","internalType":"address"},{"name":"amount0","type":"uint256","internalType":"uint256"},{"name":"amount1","type":"uint256","internalType":"uint256"},{"name":"liquidity","type":"uint256","internalType":"uint256"},{"name":"rewards","type":"uint256","internalType":"uint256"},{"name":"isActive","type":"bool","internalType":"bool"}],"stateMutability":"view"},{"type":"function","name":"nextPositionId","inputs":[],"outputs":[{"name":"","type":"uint256","internalType":"uint256"}],"stateMutability":"view"},{"type":"function","name":"owner","inputs":[],"outputs":[{"name":"","type":"address","internalType":"address"}],"stateMutability":"view"},{"type":"function","name":"positions","inputs":[{"name":"","type":"uint256","internalType":"uint256"}],"outputs":[{"name":"owner","type":"address","internalType":"address"},{"name":"amount0","type":"uint256","internalType":"uint256"},{"name":"amount1","type":"uint256","internalType":"uint256"},{"name":"liquidity","type":"uint256","internalType":"uint256"},{"name":"rewards","type":"uint256","internalType":"uint256"},{"name":"lastRewardUpdate","type":"uint256","internalType":"uint256"},{"name":"isActive","type":"bool","internalType":"bool"}],"stateMutability":"view"},{"type":"function","name":"removeLiquidity","inputs":[{"name":"positionId","type":"uint256","internalType":"uint256"}],"outputs":[{"name":"amount0","type":"uint256","internalType":"uint256"},{"name":"amount1","type":"uint256","internalType":"uint256"},{"name":"rewards","type":"uint256","internalType":"uint256"}],"stateMutability":"nonpayable"},{"type":"function","name":"renounceOwnership","inputs":[],"outputs":[],"stateMutability":"nonpayable"},{"type":"function","name":"token0","inputs":[],"outputs":[{"name":"","type":"address","internalType":"contract IERC20"}],"stateMutability":"view"},{"type":"function","name":"token1","inputs":[],"outputs":[{"name":"","type":"address","internalType":"contract IERC20"}],"stateMutability":"view"},{"type":"function","name":"transferOwnership","inputs":[{"name":"newOwner","type":"address","internalType":"address"}],"outputs":[],"stateMutability":"nonpayable"},{"type":"event","name":"OwnershipTransferred","inputs":[{"name":"previousOwner","type":"address","indexed":true,"internalType":"address"},{"name":"newOwner","type":"address","indexed":true,"internalType":"address"}],"anonymous":false},{"type":"event","name":"PositionCreated","inputs":[{"name":"positionId","type":"uint256","indexed":true,"internalType":"uint256"},{"name":"owner","type":"address","indexed":true,"internalType":"address"},{"name":"amount0","type":"uint256","indexed":false,"internalType":"uint256"},{"name":"amount1","type":"uint256","indexed":false,"internalType":"uint256"},{"name":"liquidity","type":"uint256","indexed":false,"internalType":"uint256"}],"anonymous":false},{"type":"event","name":"PositionRemoved","inputs":[{"name":"positionId","type":"uint256","indexed":true,"internalType":"uint256"},{"name":"owner","type":"address","indexed":true,"internalType":"address"},{"name":"amount0","type":"uint256","indexed":false,"internalType":"uint256"},{"name":"amount1","type":"uint256","indexed":false,"internalType":"uint256"},{"name":"rewards","type":"uint256","indexed":false,"internalType":"uint256"}],"anonymous":false},{"type":"event","name":"RewardsAdded","inputs":[{"name":"positionId","type":"uint256","indexed":true,"internalType":"uint256"},{"name":"amount","type":"uint256","indexed":false,"internalType":"uint256"}],"anonymous":false},{"type":"event","name":"RewardsClaimed","inputs":[{"name":"positionId","type":"uint256","indexed":true,"internalType":"uint256"},{"name":"owner","type":"address","indexed":true,"internalType":"address"},{"name":"amount","type":"uint256","indexed":false,"internalType":"uint256"}],"anonymous":false},{"type":"error","name":"OwnableInvalidOwner","inputs":[{"name":"owner","type":"address","internalType":"address"}]},{"type":"error","name":"OwnableUnauthorizedAccount","inputs":[{"name":"account","type":"address","internalType":"address"}]}],"bytecode":{"object":"0x60c03461012d57601f610f5438819003918201601f19168301916001600160401b038311848410176101315780849260609460405283398101031261012d5761004781610145565b9061005460208201610145565b906001600160a01b039061006a90604001610145565b1691821561011a575f80546001600160a01b031981168517825560405194916001600160a01b03909116907f8be0079c531659141344cd1fd0a4f28419497f9722a3daafe3b4186f6b6457e09080a36001600160a01b039081166080521660a052610dfa908161015a823960805181818161011801528181610563015281816107a60152818161094901528181610a0a0152610d1b015260a051818181610302015281816104d501526107180152f35b631e4fbdf760e01b5f525f60045260245ffd5b5f80fd5b634e487b7160e01b5f52604160045260245ffd5b51906001600160a01b038216820361012d5756fe60806040526004361015610011575f80fd5b5f3560e01c80630962ef79146109785780630dfe1681146109345780635997bb3714610915578063715018a6146108be578063899346c7146108a15780638da5cb5b1461087a57806399fbab88146108025780639c8f9f231461060e5780639cd441da14610331578063d21220a7146102ed578063d3ea4350146102c7578063eb02c30114610254578063f2fde38b146101cb5763fc41aa09146100b3575f80fd5b346101c7576100c136610ada565b6100c9610d9e565b815f52600160205260405f20906100e660ff600684015416610b31565b6040516323b872dd60e01b815233600482015230602482015260448101829052906020826064815f6001600160a01b037f0000000000000000000000000000000000000000000000000000000000000000165af180156101bc577f40df43107e8b4d467127964bd3c966687c0a6a39aaede970755397fd09535e98936101786004926020955f9161018f575b50610bad565b01610184828254610c7c565b9055604051908152a2005b6101af9150863d88116101b5575b6101a78183610b73565b810190610b95565b5f610172565b503d61019d565b6040513d5f823e3d90fd5b5f80fd5b346101c75760203660031901126101c7576004356001600160a01b038116908190036101c7576101f9610d9e565b8015610241575f80546001600160a01b03198116831782556001600160a01b0316907f8be0079c531659141344cd1fd0a4f28419497f9722a3daafe3b4186f6b6457e09080a3005b631e4fbdf760e01b5f525f60045260245ffd5b346101c75760203660031901126101c75760c0600435805f52600160205260405f209060018060a01b0382541691600181015491600282015460ff600661029f600386015494610c89565b94015416936040519586526020860152604085015260608401526080830152151560a0820152f35b346101c75760203660031901126101c75760206102e5600435610c89565b604051908152f35b346101c7575f3660031901126101c7576040517f00000000000000000000000000000000000000000000000000000000000000006001600160a01b03168152602090f35b346101c75761033f36610ada565b90801580158091610605575b156105c057610532575b816104a4575b6103658282610c7c565b600254915f19831461049057600183016002556040519360e085019480861067ffffffffffffffff87111761047c578385927f175931250abbefa875152bcfbd7d338a80deb332ba3fedca8dfe1c2cf4c1e1aa926040988952338152600660208201918783528a81018481526060820186815260808301905f825260a084019242845260c0850196600188528b5f5260016020528f5f209560018060a01b039051166bffffffffffffffffffffffff60a01b875416178655516001860155516002850155516003840155516004830155516005820155019051151560ff8019835416911617905561046d88519283923397846040919493926060820195825260208201520152565b0390a382519182526020820152f35b634e487b7160e01b5f52604160045260245ffd5b634e487b7160e01b5f52601160045260245ffd5b6040516323b872dd60e01b8152336004820152306024820152604481018390526020816064815f6001600160a01b037f0000000000000000000000000000000000000000000000000000000000000000165af180156101bc5761050e915f91610513575b50610c37565b61035b565b61052c915060203d6020116101b5576101a78183610b73565b84610508565b6040516323b872dd60e01b8152336004820152306024820152604481018290526020816064815f6001600160a01b037f0000000000000000000000000000000000000000000000000000000000000000165af180156101bc5761059c915f916105a1575b50610bf2565b610355565b6105ba915060203d6020116101b5576101a78183610b73565b84610596565b60405162461bcd60e51b815260206004820152601760248201527f4d7573742061646420736f6d65206c69717569646974790000000000000000006044820152606490fd5b5082151561034b565b346101c75760203660031901126101c757600435805f52600160205260405f209061064360018060a01b038354163314610af0565b600682019081549261065760ff8516610b31565b61066082610c89565b9060018101549360028201549560ff191690555f60048201556005429101558261077b575b836106ec575b60408051848152602081018690529081018290526106e89233917fa779f43a8272f792f597b5d0998cb96f56154d0792ec835a9057007d020cec3b90606090a3604051938493846040919493926060820195825260208201520152565b0390f35b60405163a9059cbb60e01b815233600482015260248101859052916020836044815f6001600160a01b037f0000000000000000000000000000000000000000000000000000000000000000165af19283156101bc576106e893610755915f9161075c5750610c37565b915061068b565b610775915060203d6020116101b5576101a78183610b73565b87610508565b60405163a9059cbb60e01b8152336004820152602481018490526020816044815f6001600160a01b037f0000000000000000000000000000000000000000000000000000000000000000165af180156101bc576107de915f916107e35750610bf2565b610685565b6107fc915060203d6020116101b5576101a78183610b73565b86610596565b346101c75760203660031901126101c7576004355f52600160205260e060405f2060018060a01b03815416906001810154906002810154600382015460048301549160ff600660058601549501541694604051968752602087015260408601526060850152608084015260a0830152151560c0820152f35b346101c7575f3660031901126101c7575f546040516001600160a01b039091168152602090f35b346101c7575f3660031901126101c7576020600254604051908152f35b346101c7575f3660031901126101c7576108d6610d9e565b5f80546001600160a01b0319811682556001600160a01b03167f8be0079c531659141344cd1fd0a4f28419497f9722a3daafe3b4186f6b6457e08280a3005b346101c7575f3660031901126101c757602060405164e8d4a510008152f35b346101c7575f3660031901126101c7576040517f00000000000000000000000000000000000000000000000000000000000000006001600160a01b03168152602090f35b346101c75760203660031901126101c757600435805f52600160205260405f206109ac60018060a01b038254163314610af0565b6109bc60ff600683015416610b31565b6109c582610c89565b908115610a9f575f6004828101919091554260059092019190915560405163a9059cbb60e01b815233918101919091526024810182905291602083806044810103815f7f00000000000000000000000000000000000000000000000000000000000000006001600160a01b03165af19283156101bc57602093610a4e915f91610a825750610bad565b604051908282527f3300bdb359cfb956935bca32e9db727413eab1ca84341f2e36caea85bb796968843393a3604051908152f35b610a999150853d87116101b5576101a78183610b73565b85610172565b60405162461bcd60e51b81526020600482015260136024820152724e6f207265776172647320746f20636c61696d60681b6044820152606490fd5b60409060031901126101c7576004359060243590565b15610af757565b60405162461bcd60e51b81526020600482015260126024820152712737ba103837b9b4ba34b7b71037bbb732b960711b6044820152606490fd5b15610b3857565b60405162461bcd60e51b8152602060048201526013602482015272506f736974696f6e206e6f742061637469766560681b6044820152606490fd5b90601f8019910116810190811067ffffffffffffffff82111761047c57604052565b908160209103126101c7575180151581036101c75790565b15610bb457565b60405162461bcd60e51b815260206004820152601660248201527514995dd85c99081d1c985b9cd9995c8819985a5b195960521b6044820152606490fd5b15610bf957565b60405162461bcd60e51b8152602060048201526016602482015275151bdad95b8c081d1c985b9cd9995c8819985a5b195960521b6044820152606490fd5b15610c3e57565b60405162461bcd60e51b8152602060048201526016602482015275151bdad95b8c481d1c985b9cd9995c8819985a5b195960521b6044820152606490fd5b9190820180921161049057565b5f52600160205260405f2060ff60068201541615610d99576005810154420390428211610490576003600482015491015464e8d4a5100081029080820464e8d4a51000148115171561049057830264e8d4a510000292811591840414171561049057670de0b6b3a7640000610cff920490610c7c565b6040516370a0823160e01b8152306004820152906020826024817f00000000000000000000000000000000000000000000000000000000000000006001600160a01b03165afa9182156101bc575f92610d65575b5081811115610d60575090565b905090565b9091506020813d602011610d91575b81610d8160209383610b73565b810103126101c75751905f610d53565b3d9150610d74565b505f90565b5f546001600160a01b03163303610db157565b63118cdaa760e01b5f523360045260245ffdfea26469706673582212208adc3e5dbdee0940f205498e65be541dd4f542fb81b39d4cea2c74969ac3a67464736f6c634300081c0033","linkReferences":{}},"methodIdentifiers":{"REWARD_RATE()":"5997bb37","addLiquidity(uint256,uint256)":"9cd441da","addRewards(uint256,uint256)":"fc41aa09","calculateRewards(uint256)":"d3ea4350","claimRewards(uint256)":"0962ef79","getPosition(uint256)":"eb02c301","nextPositionId()":"899346c7","owner()":"8da5cb5b","positions(uint256)":"99fbab88","removeLiquidity(uint256)":"9c8f9f23","renounceOwnership()":"715018a6","token0()":"0dfe1681","token1()":"d21220a7","transferOwnership(address)":"f2fde38b"},"id":5}