{"abi":[{"type":"constructor","inputs":[],"stateMutability":"nonpayable"},{"type":"function","name":"beneficiaryInfo","inputs":[{"name":"","type":"uint256","internalType":"uint256"},{"name":"","type":"address","internalType":"address"}],"outputs":[{"name":"amount","type":"uint256","internalType":"uint256"},{"name":"claimedAmount","type":"uint256","internalType":"uint256"},{"name":"isActive","type":"bool","internalType":"bool"}],"stateMutability":"view"},{"type":"function","name":"cancelVesting","inputs":[{"name":"vestingId","type":"uint256","internalType":"uint256"},{"name":"company","type":"address","internalType":"address"}],"outputs":[{"name":"remainingAmount","type":"uint256","internalType":"uint256"}],"stateMutability":"nonpayable"},{"type":"function","name":"claimVestedAmount","inputs":[{"name":"vestingId","type":"uint256","internalType":"uint256"},{"name":"company","type":"address","internalType":"address"},{"name":"currentTotalRewards","type":"uint256","internalType":"uint256"}],"outputs":[{"name":"userShare","type":"uint256","internalType":"uint256"},{"name":"rewardShare","type":"uint256","internalType":"uint256"}],"stateMutability":"nonpayable"},{"type":"function","name":"createVestingMulti","inputs":[{"name":"vestingId","type":"uint256","internalType":"uint256"},{"name":"company","type":"address","internalType":"address"},{"name":"positionIndex","type":"uint256","internalType":"uint256"},{"name":"beneficiaries","type":"address[]","internalType":"address[]"},{"name":"amounts","type":"uint256[]","internalType":"uint256[]"},{"name":"startTime","type":"uint256","internalType":"uint256"},{"name":"endTime","type":"uint256","internalType":"uint256"}],"outputs":[],"stateMutability":"nonpayable"},{"type":"function","name":"getVestingInfo","inputs":[{"name":"vestingId","type":"uint256","internalType":"uint256"}],"outputs":[{"name":"info","type":"tuple","internalType":"struct CompanyLiquidityModels.VestingInfo","components":[{"name":"id","type":"uint256","internalType":"uint256"},{"name":"positionIndex","type":"uint256","internalType":"uint256"},{"name":"totalAmount","type":"uint256","internalType":"uint256"},{"name":"startTime","type":"uint256","internalType":"uint256"},{"name":"endTime","type":"uint256","internalType":"uint256"},{"name":"claimedAmount","type":"uint256","internalType":"uint256"},{"name":"isActive","type":"bool","internalType":"bool"}]}],"stateMutability":"view"},{"type":"function","name":"owner","inputs":[],"outputs":[{"name":"","type":"address","internalType":"address"}],"stateMutability":"view"},{"type":"function","name":"renounceOwnership","inputs":[],"outputs":[],"stateMutability":"nonpayable"},{"type":"function","name":"transferOwnership","inputs":[{"name":"newOwner","type":"address","internalType":"address"}],"outputs":[],"stateMutability":"nonpayable"},{"type":"function","name":"vestingBeneficiaries","inputs":[{"name":"","type":"uint256","internalType":"uint256"},{"name":"","type":"uint256","internalType":"uint256"}],"outputs":[{"name":"","type":"address","internalType":"address"}],"stateMutability":"view"},{"type":"function","name":"vestings","inputs":[{"name":"","type":"uint256","internalType":"uint256"}],"outputs":[{"name":"id","type":"uint256","internalType":"uint256"},{"name":"positionIndex","type":"uint256","internalType":"uint256"},{"name":"totalAmount","type":"uint256","internalType":"uint256"},{"name":"startTime","type":"uint256","internalType":"uint256"},{"name":"endTime","type":"uint256","internalType":"uint256"},{"name":"claimedAmount","type":"uint256","internalType":"uint256"},{"name":"isActive","type":"bool","internalType":"bool"}],"stateMutability":"view"},{"type":"event","name":"LiquidityPositionAdded","inputs":[{"name":"company","type":"address","indexed":true,"internalType":"address"},{"name":"pool","type":"address","indexed":true,"internalType":"address"},{"name":"positionId","type":"uint256","indexed":true,"internalType":"uint256"},{"name":"amount0","type":"uint256","indexed":false,"internalType":"uint256"},{"name":"amount1","type":"uint256","indexed":false,"internalType":"uint256"}],"anonymous":false},{"type":"event","name":"OwnershipTransferred","inputs":[{"name":"previousOwner","type":"address","indexed":true,"internalType":"address"},{"name":"newOwner","type":"address","indexed":true,"internalType":"address"}],"anonymous":false},{"type":"event","name":"RewardsClaimed","inputs":[{"name":"company","type":"address","indexed":true,"internalType":"address"},{"name":"positionIndex","type":"uint256","indexed":true,"internalType":"uint256"},{"name":"amount","type":"uint256","indexed":false,"internalType":"uint256"}],"anonymous":false},{"type":"event","name":"VestingCancelled","inputs":[{"name":"vestingId","type":"uint256","indexed":true,"internalType":"uint256"},{"name":"company","type":"address","indexed":true,"internalType":"address"}],"anonymous":false},{"type":"event","name":"VestingClaimed","inputs":[{"name":"vestingId","type":"uint256","indexed":true,"internalType":"uint256"},{"name":"beneficiary","type":"address","indexed":true,"internalType":"address"},{"name":"amount","type":"uint256","indexed":false,"internalType":"uint256"}],"anonymous":false},{"type":"event","name":"VestingCreated","inputs":[{"name":"vestingId","type":"uint256","indexed":true,"internalType":"uint256"},{"name":"company","type":"address","indexed":true,"internalType":"address"},{"name":"positionIndex","type":"uint256","indexed":false,"internalType":"uint256"},{"name":"beneficiaries","type":"address[]","indexed":false,"internalType":"address[]"},{"name":"amounts","type":"uint256[]","indexed":false,"internalType":"uint256[]"},{"name":"startTime","type":"uint256","indexed":false,"internalType":"uint256"},{"name":"endTime","type":"uint256","indexed":false,"internalType":"uint256"}],"anonymous":false},{"type":"error","name":"AlreadyClaimed","inputs":[]},{"type":"error","name":"AlreadyUnlocked","inputs":[]},{"type":"error","name":"CannotReduceBelowAvailableAmount","inputs":[]},{"type":"error","name":"InsufficientAvailableAmount","inputs":[]},{"type":"error","name":"InvalidBeneficiariesAmounts","inputs":[]},{"type":"error","name":"InvalidPositionIndex","inputs":[]},{"type":"error","name":"NoRewardsToClaim","inputs":[]},{"type":"error","name":"NotABeneficiary","inputs":[]},{"type":"error","name":"OwnableInvalidOwner","inputs":[{"name":"owner","type":"address","internalType":"address"}]},{"type":"error","name":"OwnableUnauthorizedAccount","inputs":[{"name":"account","type":"address","internalType":"address"}]},{"type":"error","name":"PositionNotActive","inputs":[]},{"type":"error","name":"TokenTransferFailed","inputs":[]},{"type":"error","name":"VestingNotActive","inputs":[]},{"type":"error","name":"VestingNotEnded","inputs":[]}],"bytecode":{"object":"0x608080604052346071573315605e575f8054336001600160a01b0319821681178355916001600160a01b03909116907f8be0079c531659141344cd1fd0a4f28419497f9722a3daafe3b4186f6b6457e09080a3610a1790816100768239f35b631e4fbdf760e01b5f525f60045260245ffd5b5f80fdfe60806040526004361015610011575f80fd5b5f3560e01c8063145e397f146105f557806320f6b0a9146104f5578063715018a61461049e578063821bee731461042e5780638da5cb5b146104075780639ae5a9b6146103765780639b192c0b14610316578063cbe06c1e14610164578063f2fde38b146100db5763f5b93f2914610087575f80fd5b346100d75760403660031901126100d7576024356004355f52600260205260405f2080548210156100d7576020916100be9161094e565b905460405160039290921b1c6001600160a01b03168152f35b5f80fd5b346100d75760203660031901126100d7576004356001600160a01b038116908190036100d7576101096109bb565b8015610151575f80546001600160a01b03198116831782556001600160a01b0316907f8be0079c531659141344cd1fd0a4f28419497f9722a3daafe3b4186f6b6457e09080a3005b631e4fbdf760e01b5f525f60045260245ffd5b346100d75760603660031901126100d757600435610180610907565b505f818152600160209081526040808320600383528184203385529092529091206006820154604435919060ff16156102e95760018101938454610307578154156102f85760ff600283015416610263575b84549154938284039284841161024f578584029384048614908514171561024f576002015492831561023b57604095558451908482527f14a81f9a556dbd4b3ae8c924aef3cc382cb6f3c4b91e88201a1be8e8cf35932860203393a38351928352046020820152f35b634e487b7160e01b5f52601260045260245ffd5b634e487b7160e01b5f52601160045260245ffd5b600484015442106102da575f81815260016020908152604080832060038352818420338552909252909120600682015490919060ff16156102e9576004015442106102da57600281019081549060ff8216156102cb57859260019260ff1916905501556101d2565b6328486b6360e11b5f5260045ffd5b633e0ad23560e21b5f5260045ffd5b63245075d160e11b5f5260045ffd5b6343290f5b60e01b5f5260045ffd5b630c8d9eab60e31b5f5260045ffd5b346100d75760403660031901126100d75761032f610907565b6004355f52600360205260405f209060018060a01b03165f52602052606060405f2080549060ff600260018301549201541690604051928352602083015215156040820152f35b346100d75760403660031901126100d757600435610392610907565b61039a6109bb565b815f52600160205260ff600660405f20015416156102e957816020925f526001835260405f209060066002830154920160ff1981541690556040519260018060a01b0316907f2682f1553038e2d8aabc9a3a8c5e94d28e37d33f26d874dd376eed68e039c5d35f80a38152f35b346100d7575f3660031901126100d7575f546040516001600160a01b039091168152602090f35b346100d75760203660031901126100d7576004355f52600160205260e060405f208054906001810154906002810154600382015460048301549160ff600660058601549501541694604051968752602087015260408601526060850152608084015260a0830152151560c0820152f35b346100d7575f3660031901126100d7576104b66109bb565b5f80546001600160a01b0319811682556001600160a01b03167f8be0079c531659141344cd1fd0a4f28419497f9722a3daafe3b4186f6b6457e08280a3005b346100d75760203660031901126100d75760e06004355f60c0610516610987565b8281528260208201528260408201528260608201528260808201528260a08201520152805f52600160205260405f209061054e610987565b9180548352600181015460208401908152600282015460408501908152600383015490606086019182526004840154926080870193845260ff600660058701549660a08a019788520154169560c0880196151587525f52600360205260405f2060018060a01b0333165f52602052600160405f2001548552604051965187525160208701525160408601525160608501525160808401525160a083015251151560c0820152f35b346100d75760e03660031901126100d757600435610611610907565b9060443560643567ffffffffffffffff81116100d75761063590369060040161091d565b91909360843567ffffffffffffffff81116100d75761065890369060040161091d565b9060a4359260c435958381148015906108ff575b6108f0575f805b8582106108d057610701915060068a61068a610987565b928184528b60208501918c83526040860190815260608601908c82526080870192835260a08701935f855260c0880195600187525f52600160205260405f209751885551600188015551600287015551600386015551600485015551600584015551151591019060ff801983541691151516179055565b5f5b8181106107c05750806040519660a0880190885260a060208901525260c0860198905f905b8082106107965750505084880360408601528288526001600160fb1b0383116100d7577f96423d9cd5a81593c30c8b0dd1f767e28d3e155d3c8153ca2ee94d372e6ae5a095602094869460051b8094878c0137606085015260808401526001600160a01b03169601030190a3005b9091998a359060018060a01b0382168092036100d757602081600193829352019b01920190610728565b885f526002602052896107e06107db838560405f2094610977565b6109a7565b908054680100000000000000008110156108bc576108039160018201815561094e565b81546001600160a01b0393841660039290921b91821b9390911b1916919091179055610830818686610977565b359060405191606083019280841067ffffffffffffffff8511176108bc5760028c8e6108b694600197604052845260208401905f825260408501928884525f5260036020526108876107db888b60405f2094610977565b888060a01b03165f5260205260405f2093518455518684015551151591019060ff801983541691151516179055565b01610703565b634e487b7160e01b5f52604160045260245ffd5b6108db828787610977565b35810180911161024f57600190910190610673565b634d2f260f60e11b5f5260045ffd5b50801561066c565b602435906001600160a01b03821682036100d757565b9181601f840112156100d75782359167ffffffffffffffff83116100d7576020808501948460051b0101116100d757565b8054821015610963575f5260205f2001905f90565b634e487b7160e01b5f52603260045260245ffd5b91908110156109635760051b0190565b6040519060e0820182811067ffffffffffffffff8211176108bc57604052565b356001600160a01b03811681036100d75790565b5f546001600160a01b031633036109ce57565b63118cdaa760e01b5f523360045260245ffdfea2646970667358221220d8ea36e89d5095adb36323e31a608dd342dd2d96ab62aa7a4f0d6b446a61e37164736f6c634300081c0033","linkReferences":{}},"methodIdentifiers":{"beneficiaryInfo(uint256,address)":"9b192c0b","cancelVesting(uint256,address)":"9ae5a9b6","claimVestedAmount(uint256,address,uint256)":"cbe06c1e","createVestingMulti(uint256,address,uint256,address[],uint256[],uint256,uint256)":"145e397f","getVestingInfo(uint256)":"20f6b0a9","owner()":"8da5cb5b","renounceOwnership()":"715018a6","transferOwnership(address)":"f2fde38b","vestingBeneficiaries(uint256,uint256)":"f5b93f29","vestings(uint256)":"821bee73"},"id":1}