{
  "_format": "hh-sol-artifact-1",
  "contractName": "CompanyLiquidityManager",
  "sourceName": "contracts/CompanyLiquidityManager.sol",
  "abi": [
    {
      "inputs": [],
      "stateMutability": "nonpayable",
      "type": "constructor"
    },
    {
      "inputs": [],
      "name": "AlreadyClaimed",
      "type": "error"
    },
    {
      "inputs": [],
      "name": "AlreadyUnlocked",
      "type": "error"
    },
    {
      "inputs": [],
      "name": "CannotReduceBelowAvailableAmount",
      "type": "error"
    },
    {
      "inputs": [],
      "name": "InsufficientAvailableAmount",
      "type": "error"
    },
    {
      "inputs": [],
      "name": "InvalidBeneficiariesAmounts",
      "type": "error"
    },
    {
      "inputs": [],
      "name": "InvalidPositionIndex",
      "type": "error"
    },
    {
      "inputs": [],
      "name": "NoRewardsToClaim",
      "type": "error"
    },
    {
      "inputs": [],
      "name": "NotABeneficiary",
      "type": "error"
    },
    {
      "inputs": [
        {
          "internalType": "address",
          "name": "owner",
          "type": "address"
        }
      ],
      "name": "OwnableInvalidOwner",
      "type": "error"
    },
    {
      "inputs": [
        {
          "internalType": "address",
          "name": "account",
          "type": "address"
        }
      ],
      "name": "OwnableUnauthorizedAccount",
      "type": "error"
    },
    {
      "inputs": [],
      "name": "PayrollNotActive",
      "type": "error"
    },
    {
      "inputs": [],
      "name": "PayrollNotEnded",
      "type": "error"
    },
    {
      "inputs": [],
      "name": "PositionNotActive",
      "type": "error"
    },
    {
      "inputs": [],
      "name": "TokenTransferFailed",
      "type": "error"
    },
    {
      "anonymous": false,
      "inputs": [
        {
          "indexed": true,
          "internalType": "address",
          "name": "company",
          "type": "address"
        },
        {
          "indexed": true,
          "internalType": "address",
          "name": "pool",
          "type": "address"
        },
        {
          "indexed": true,
          "internalType": "uint256",
          "name": "positionId",
          "type": "uint256"
        },
        {
          "indexed": false,
          "internalType": "uint256",
          "name": "amount0",
          "type": "uint256"
        },
        {
          "indexed": false,
          "internalType": "uint256",
          "name": "amount1",
          "type": "uint256"
        }
      ],
      "name": "LiquidityPositionAdded",
      "type": "event"
    },
    {
      "anonymous": false,
      "inputs": [
        {
          "indexed": true,
          "internalType": "address",
          "name": "previousOwner",
          "type": "address"
        },
        {
          "indexed": true,
          "internalType": "address",
          "name": "newOwner",
          "type": "address"
        }
      ],
      "name": "OwnershipTransferred",
      "type": "event"
    },
    {
      "anonymous": false,
      "inputs": [
        {
          "indexed": true,
          "internalType": "uint256",
          "name": "payrollId",
          "type": "uint256"
        },
        {
          "indexed": true,
          "internalType": "address",
          "name": "company",
          "type": "address"
        }
      ],
      "name": "PayrollCancelled",
      "type": "event"
    },
    {
      "anonymous": false,
      "inputs": [
        {
          "indexed": true,
          "internalType": "uint256",
          "name": "payrollId",
          "type": "uint256"
        },
        {
          "indexed": true,
          "internalType": "address",
          "name": "beneficiary",
          "type": "address"
        },
        {
          "indexed": false,
          "internalType": "uint256",
          "name": "amount",
          "type": "uint256"
        }
      ],
      "name": "PayrollClaimed",
      "type": "event"
    },
    {
      "anonymous": false,
      "inputs": [
        {
          "indexed": true,
          "internalType": "uint256",
          "name": "payrollId",
          "type": "uint256"
        },
        {
          "indexed": true,
          "internalType": "address",
          "name": "company",
          "type": "address"
        },
        {
          "indexed": false,
          "internalType": "uint256",
          "name": "positionIndex",
          "type": "uint256"
        },
        {
          "indexed": false,
          "internalType": "address[]",
          "name": "beneficiaries",
          "type": "address[]"
        },
        {
          "indexed": false,
          "internalType": "uint256[]",
          "name": "amounts",
          "type": "uint256[]"
        },
        {
          "indexed": false,
          "internalType": "uint256",
          "name": "startTime",
          "type": "uint256"
        },
        {
          "indexed": false,
          "internalType": "uint256",
          "name": "endTime",
          "type": "uint256"
        }
      ],
      "name": "PayrollCreated",
      "type": "event"
    },
    {
      "anonymous": false,
      "inputs": [
        {
          "indexed": true,
          "internalType": "address",
          "name": "company",
          "type": "address"
        },
        {
          "indexed": true,
          "internalType": "uint256",
          "name": "positionIndex",
          "type": "uint256"
        },
        {
          "indexed": false,
          "internalType": "uint256",
          "name": "amount",
          "type": "uint256"
        }
      ],
      "name": "RewardsClaimed",
      "type": "event"
    },
    {
      "inputs": [
        {
          "internalType": "address",
          "name": "company",
          "type": "address"
        },
        {
          "internalType": "address",
          "name": "pool",
          "type": "address"
        },
        {
          "internalType": "uint256",
          "name": "amount0",
          "type": "uint256"
        },
        {
          "internalType": "uint256",
          "name": "amount1",
          "type": "uint256"
        },
        {
          "internalType": "uint256",
          "name": "payrollId",
          "type": "uint256"
        },
        {
          "internalType": "uint256",
          "name": "payrollAmount",
          "type": "uint256"
        },
        {
          "internalType": "uint256",
          "name": "startTime",
          "type": "uint256"
        },
        {
          "internalType": "uint256",
          "name": "endTime",
          "type": "uint256"
        }
      ],
      "name": "addLiquidityAndCreatePayroll",
      "outputs": [],
      "stateMutability": "nonpayable",
      "type": "function"
    },
    {
      "inputs": [
        {
          "internalType": "address",
          "name": "company",
          "type": "address"
        },
        {
          "internalType": "address",
          "name": "pool",
          "type": "address"
        },
        {
          "internalType": "uint256",
          "name": "amount0",
          "type": "uint256"
        },
        {
          "internalType": "uint256",
          "name": "amount1",
          "type": "uint256"
        }
      ],
      "name": "addLiquidityPosition",
      "outputs": [],
      "stateMutability": "nonpayable",
      "type": "function"
    },
    {
      "inputs": [
        {
          "internalType": "uint256",
          "name": "payrollId",
          "type": "uint256"
        },
        {
          "internalType": "address",
          "name": "company",
          "type": "address"
        }
      ],
      "name": "cancelPayroll",
      "outputs": [],
      "stateMutability": "nonpayable",
      "type": "function"
    },
    {
      "inputs": [
        {
          "internalType": "uint256",
          "name": "payrollId",
          "type": "uint256"
        },
        {
          "internalType": "address",
          "name": "company",
          "type": "address"
        }
      ],
      "name": "claimPayrollAmount",
      "outputs": [],
      "stateMutability": "nonpayable",
      "type": "function"
    },
    {
      "inputs": [
        {
          "internalType": "address",
          "name": "company",
          "type": "address"
        },
        {
          "internalType": "uint256",
          "name": "positionIndex",
          "type": "uint256"
        }
      ],
      "name": "claimRewards",
      "outputs": [],
      "stateMutability": "nonpayable",
      "type": "function"
    },
    {
      "inputs": [
        {
          "internalType": "address",
          "name": "",
          "type": "address"
        }
      ],
      "name": "companyPositionCount",
      "outputs": [
        {
          "internalType": "uint256",
          "name": "",
          "type": "uint256"
        }
      ],
      "stateMutability": "view",
      "type": "function"
    },
    {
      "inputs": [
        {
          "internalType": "address",
          "name": "",
          "type": "address"
        },
        {
          "internalType": "uint256",
          "name": "",
          "type": "uint256"
        }
      ],
      "name": "companyPositions",
      "outputs": [
        {
          "internalType": "address",
          "name": "pool",
          "type": "address"
        },
        {
          "internalType": "uint256",
          "name": "positionId",
          "type": "uint256"
        },
        {
          "internalType": "uint256",
          "name": "totalAmount",
          "type": "uint256"
        },
        {
          "internalType": "uint256",
          "name": "availableAmount",
          "type": "uint256"
        },
        {
          "internalType": "uint256",
          "name": "totalRewards",
          "type": "uint256"
        },
        {
          "internalType": "uint256",
          "name": "claimedRewards",
          "type": "uint256"
        },
        {
          "internalType": "bool",
          "name": "isActive",
          "type": "bool"
        }
      ],
      "stateMutability": "view",
      "type": "function"
    },
    {
      "inputs": [
        {
          "internalType": "uint256",
          "name": "payrollId",
          "type": "uint256"
        },
        {
          "internalType": "address",
          "name": "company",
          "type": "address"
        },
        {
          "internalType": "uint256",
          "name": "positionIndex",
          "type": "uint256"
        },
        {
          "internalType": "address[]",
          "name": "beneficiaries",
          "type": "address[]"
        },
        {
          "internalType": "uint256[]",
          "name": "amounts",
          "type": "uint256[]"
        },
        {
          "internalType": "uint256",
          "name": "startTime",
          "type": "uint256"
        },
        {
          "internalType": "uint256",
          "name": "endTime",
          "type": "uint256"
        }
      ],
      "name": "createPayrollMulti",
      "outputs": [],
      "stateMutability": "nonpayable",
      "type": "function"
    },
    {
      "inputs": [
        {
          "internalType": "uint256",
          "name": "payrollId",
          "type": "uint256"
        }
      ],
      "name": "getPayrollBeneficiariesInfo",
      "outputs": [
        {
          "internalType": "address[]",
          "name": "beneficiaries",
          "type": "address[]"
        },
        {
          "internalType": "uint256[]",
          "name": "amounts",
          "type": "uint256[]"
        },
        {
          "internalType": "uint256[]",
          "name": "unlockTimes",
          "type": "uint256[]"
        },
        {
          "internalType": "bool[]",
          "name": "hasClaimed",
          "type": "bool[]"
        },
        {
          "internalType": "uint256[]",
          "name": "rewardSnapshots",
          "type": "uint256[]"
        }
      ],
      "stateMutability": "view",
      "type": "function"
    },
    {
      "inputs": [
        {
          "internalType": "uint256",
          "name": "payrollId",
          "type": "uint256"
        },
        {
          "internalType": "address",
          "name": "company",
          "type": "address"
        }
      ],
      "name": "getPayrollCompleteInfo",
      "outputs": [
        {
          "components": [
            {
              "internalType": "uint256",
              "name": "id",
              "type": "uint256"
            },
            {
              "internalType": "uint256",
              "name": "positionIndex",
              "type": "uint256"
            },
            {
              "internalType": "uint256",
              "name": "totalAmount",
              "type": "uint256"
            },
            {
              "internalType": "uint256",
              "name": "startTime",
              "type": "uint256"
            },
            {
              "internalType": "uint256",
              "name": "endTime",
              "type": "uint256"
            },
            {
              "internalType": "bool",
              "name": "isActive",
              "type": "bool"
            }
          ],
          "internalType": "struct CompanyLiquidityModels.PayrollInfo",
          "name": "payrollInfo",
          "type": "tuple"
        },
        {
          "components": [
            {
              "internalType": "address",
              "name": "beneficiary",
              "type": "address"
            },
            {
              "internalType": "uint256",
              "name": "amount",
              "type": "uint256"
            },
            {
              "internalType": "uint256",
              "name": "unlockTime",
              "type": "uint256"
            },
            {
              "internalType": "bool",
              "name": "hasClaimed",
              "type": "bool"
            },
            {
              "internalType": "uint256",
              "name": "rewardSnapshot",
              "type": "uint256"
            }
          ],
          "internalType": "struct CompanyLiquidityModels.BeneficiaryInfo[]",
          "name": "beneficiariesInfo",
          "type": "tuple[]"
        },
        {
          "components": [
            {
              "internalType": "address",
              "name": "pool",
              "type": "address"
            },
            {
              "internalType": "uint256",
              "name": "positionId",
              "type": "uint256"
            },
            {
              "internalType": "uint256",
              "name": "totalAmount",
              "type": "uint256"
            },
            {
              "internalType": "uint256",
              "name": "availableAmount",
              "type": "uint256"
            },
            {
              "internalType": "uint256",
              "name": "totalRewards",
              "type": "uint256"
            },
            {
              "internalType": "uint256",
              "name": "claimedRewards",
              "type": "uint256"
            },
            {
              "internalType": "bool",
              "name": "isActive",
              "type": "bool"
            }
          ],
          "internalType": "struct CompanyLiquidityModels.LiquidityPosition",
          "name": "positionInfo",
          "type": "tuple"
        }
      ],
      "stateMutability": "view",
      "type": "function"
    },
    {
      "inputs": [
        {
          "internalType": "uint256",
          "name": "payrollId",
          "type": "uint256"
        }
      ],
      "name": "getPayrollInfo",
      "outputs": [
        {
          "internalType": "uint256",
          "name": "positionIndex",
          "type": "uint256"
        },
        {
          "internalType": "uint256",
          "name": "amount",
          "type": "uint256"
        },
        {
          "internalType": "uint256",
          "name": "startTime",
          "type": "uint256"
        },
        {
          "internalType": "uint256",
          "name": "endTime",
          "type": "uint256"
        },
        {
          "internalType": "uint256",
          "name": "claimedAmount",
          "type": "uint256"
        },
        {
          "internalType": "bool",
          "name": "isActive",
          "type": "bool"
        }
      ],
      "stateMutability": "view",
      "type": "function"
    },
    {
      "inputs": [
        {
          "internalType": "address",
          "name": "company",
          "type": "address"
        },
        {
          "internalType": "uint256",
          "name": "positionIndex",
          "type": "uint256"
        }
      ],
      "name": "getPositionInfo",
      "outputs": [
        {
          "internalType": "address",
          "name": "pool",
          "type": "address"
        },
        {
          "internalType": "uint256",
          "name": "positionId",
          "type": "uint256"
        },
        {
          "internalType": "uint256",
          "name": "totalAmount",
          "type": "uint256"
        },
        {
          "internalType": "uint256",
          "name": "availableAmount",
          "type": "uint256"
        },
        {
          "internalType": "uint256",
          "name": "totalRewards",
          "type": "uint256"
        },
        {
          "internalType": "uint256",
          "name": "claimedRewards",
          "type": "uint256"
        },
        {
          "internalType": "bool",
          "name": "isActive",
          "type": "bool"
        }
      ],
      "stateMutability": "view",
      "type": "function"
    },
    {
      "inputs": [],
      "name": "owner",
      "outputs": [
        {
          "internalType": "address",
          "name": "",
          "type": "address"
        }
      ],
      "stateMutability": "view",
      "type": "function"
    },
    {
      "inputs": [
        {
          "internalType": "uint256",
          "name": "",
          "type": "uint256"
        },
        {
          "internalType": "address",
          "name": "",
          "type": "address"
        }
      ],
      "name": "payrollAmounts",
      "outputs": [
        {
          "internalType": "uint256",
          "name": "",
          "type": "uint256"
        }
      ],
      "stateMutability": "view",
      "type": "function"
    },
    {
      "inputs": [
        {
          "internalType": "uint256",
          "name": "",
          "type": "uint256"
        },
        {
          "internalType": "uint256",
          "name": "",
          "type": "uint256"
        }
      ],
      "name": "payrollBeneficiaries",
      "outputs": [
        {
          "internalType": "address",
          "name": "",
          "type": "address"
        }
      ],
      "stateMutability": "view",
      "type": "function"
    },
    {
      "inputs": [
        {
          "internalType": "uint256",
          "name": "",
          "type": "uint256"
        },
        {
          "internalType": "address",
          "name": "",
          "type": "address"
        }
      ],
      "name": "payrollHasClaimed",
      "outputs": [
        {
          "internalType": "bool",
          "name": "",
          "type": "bool"
        }
      ],
      "stateMutability": "view",
      "type": "function"
    },
    {
      "inputs": [
        {
          "internalType": "uint256",
          "name": "",
          "type": "uint256"
        },
        {
          "internalType": "address",
          "name": "",
          "type": "address"
        }
      ],
      "name": "payrollRewardSnapshots",
      "outputs": [
        {
          "internalType": "uint256",
          "name": "",
          "type": "uint256"
        }
      ],
      "stateMutability": "view",
      "type": "function"
    },
    {
      "inputs": [
        {
          "internalType": "uint256",
          "name": "",
          "type": "uint256"
        },
        {
          "internalType": "address",
          "name": "",
          "type": "address"
        }
      ],
      "name": "payrollUnlockTimes",
      "outputs": [
        {
          "internalType": "uint256",
          "name": "",
          "type": "uint256"
        }
      ],
      "stateMutability": "view",
      "type": "function"
    },
    {
      "inputs": [
        {
          "internalType": "uint256",
          "name": "",
          "type": "uint256"
        }
      ],
      "name": "payrolls",
      "outputs": [
        {
          "internalType": "uint256",
          "name": "id",
          "type": "uint256"
        },
        {
          "internalType": "uint256",
          "name": "positionIndex",
          "type": "uint256"
        },
        {
          "internalType": "uint256",
          "name": "totalAmount",
          "type": "uint256"
        },
        {
          "internalType": "uint256",
          "name": "startTime",
          "type": "uint256"
        },
        {
          "internalType": "uint256",
          "name": "endTime",
          "type": "uint256"
        },
        {
          "internalType": "bool",
          "name": "isActive",
          "type": "bool"
        }
      ],
      "stateMutability": "view",
      "type": "function"
    },
    {
      "inputs": [],
      "name": "renounceOwnership",
      "outputs": [],
      "stateMutability": "nonpayable",
      "type": "function"
    },
    {
      "inputs": [
        {
          "internalType": "address",
          "name": "newOwner",
          "type": "address"
        }
      ],
      "name": "transferOwnership",
      "outputs": [],
      "stateMutability": "nonpayable",
      "type": "function"
    },
    {
      "inputs": [
        {
          "internalType": "uint256",
          "name": "payrollId",
          "type": "uint256"
        },
        {
          "internalType": "address",
          "name": "beneficiary",
          "type": "address"
        },
        {
          "internalType": "address",
          "name": "company",
          "type": "address"
        }
      ],
      "name": "unlockPayrollForBeneficiary",
      "outputs": [],
      "stateMutability": "nonpayable",
      "type": "function"
    },
    {
      "inputs": [
        {
          "internalType": "address",
          "name": "company",
          "type": "address"
        },
        {
          "internalType": "uint256",
          "name": "positionIndex",
          "type": "uint256"
        },
        {
          "internalType": "uint256",
          "name": "newAmount",
          "type": "uint256"
        }
      ],
      "name": "updatePositionAmount",
      "outputs": [],
      "stateMutability": "nonpayable",
      "type": "function"
    }
  ],
  "bytecode": "0x6080604052348015600f57600080fd5b503380603557604051631e4fbdf760e01b81526000600482015260240160405180910390fd5b603c816041565b506091565b600080546001600160a01b038381166001600160a01b0319831681178455604051919092169283917f8be0079c531659141344cd1fd0a4f28419497f9722a3daafe3b4186f6b6457e09190a35050565b6133ec806100a06000396000f3fe608060405234801561001057600080fd5b506004361061014d5760003560e01c806385ce44a2116100c3578063b6224ed41161007c578063b6224ed414610423578063b84e966d14610436578063d9e8af6214610449578063e97400411461045c578063f2fde38b14610487578063f36afac91461049a57600080fd5b806385ce44a2146103745780638da5cb5b146103b25780638f5b4cf5146103d75780639a99b4f0146103ea578063a143c8cb146103fd578063adc18b8b1461041057600080fd5b80633c77a006116101155780633c77a006146102515780635632b1fa146102d857806362a7ee3b14610320578063715018a61461033357806380947bd31461033d57806383c2c8551461036157600080fd5b80630f9c0908146101525780631327d7fb14610185578063197da46f146101d95780631d4c8c8e146101fb578063229f617d14610226575b600080fd5b610172610160366004612d58565b60036020526000908152604090205481565b6040519081526020015b60405180910390f35b610198610193366004612d7c565b6104ad565b604080516001600160a01b0390981688526020880196909652948601939093526060850191909152608084015260a0830152151560c082015260e00161017c565b6101ec6101e7366004612da8565b610641565b60405161017c93929190612dd8565b610172610209366004612da8565b600660209081526000928352604080842090915290825290205481565b610172610234366004612da8565b600860209081526000928352604080842090915290825290205481565b6102a961025f366004612eea565b60009081526002602081815260408084206001810154938101546003820154600483015460088652848820338952909552929095205460059091015493959193909160ff90911690565b6040805196875260208701959095529385019290925260608401526080830152151560a082015260c00161017c565b6102a96102e6366004612eea565b6002602081905260009182526040909120805460018201549282015460038301546004840154600590940154929493919290919060ff1686565b61019861032e366004612d7c565b610a65565b61033b610acc565b005b61035061034b366004612eea565b610ae0565b60405161017c959493929190612f73565b61033b61036f366004613013565b610dcb565b6103a2610382366004612da8565b600760209081526000928352604080842090915290825290205460ff1681565b604051901515815260200161017c565b6000546001600160a01b03165b6040516001600160a01b03909116815260200161017c565b61033b6103e5366004612da8565b611361565b61033b6103f8366004612d7c565b611411565b61033b61040b3660046130a5565b6115bd565b6103bf61041e366004613152565b611a01565b61033b610431366004613174565b611a39565b61033b6104443660046131df565b611a62565b61033b610457366004612da8565b611bc5565b61017261046a366004612da8565b600560209081526000928352604080842090915290825290205481565b61033b610495366004612d58565b61201c565b61033b6104a8366004613214565b61205f565b6000806000806000806000600360008a6001600160a01b03166001600160a01b031681526020019081526020016000205488106104fd576040516302d576d960e01b815260040160405180910390fd5b6001600160a01b038916600090815260016020526040812080548a90811061052757610527613256565b600091825260208083206040805160e08101825260079490940290910180546001600160a01b03168085526001820154938501849052600282015485840152600382015460608601526004808301546080870152600583015460a087015260069092015460ff16151560c08601529151630d3ea43560e41b81529081019290925291935063d3ea435090602401602060405180830381865afa1580156105d1573d6000803e3d6000fd5b505050506040513d601f19601f820116820180604052508101906105f5919061326c565b9050816000015182602001518360400151846060015184866080015161061b919061329b565b8660a001518760c001519850985098509850985098509850505092959891949750929550565b61067c6040518060c0016040528060008152602001600081526020016000815260200160008152602001600081526020016000151581525090565b60606106c96040518060e0016040528060006001600160a01b0316815260200160008152602001600081526020016000815260200160008152602001600081526020016000151581525090565b600085815260026020818152604092839020835160c08101855281548152600182015492810192909252918201549281019290925260038101546060830152600481015460808301526005015460ff16151560a0820181905290935061074257604051632402f7bb60e01b815260040160405180910390fd5b6001600160a01b0384166000908152600360209081526040909120549084015110610780576040516302d576d960e01b815260040160405180910390fd5b6001600160a01b038416600090815260016020908152604090912090840151815481106107af576107af613256565b600091825260208083206040805160e08101825260079490940290910180546001600160a01b03168085526001820154938501849052600282015485840152600382015460608601526004808301546080870152600583015460a087015260069092015460ff16151560c08601529151630d3ea43560e41b81529081019290925291935063d3ea435090602401602060405180830381865afa158015610859573d6000803e3d6000fd5b505050506040513d601f19601f8201168201806040525081019061087d919061326c565b90508082608001818151610891919061329b565b9052506000868152600460209081526040808320805482518185028101850190935280835291929091908301828280156108f457602002820191906000526020600020905b81546001600160a01b031681526001909101906020018083116108d6575b50508351939450839250505067ffffffffffffffff811115610918576109186132b4565b60405190808252806020026020018201604052801561098657816020015b6109736040518060a0016040528060006001600160a01b031681526020016000815260200160008152602001600015158152602001600081525090565b8152602001906001900390816109365790505b50945060005b81811015610a5a5760008382815181106109a8576109a8613256565b6020908102919091018101516040805160a0810182526001600160a01b03831680825260008f815260058652838120828252865283812054838701528f815260068652838120828252865283812054838501528f81526007865283812082825286528381205460ff16151560608401528f815260088652838120918152945292205460808301528851909250889084908110610a4657610a46613256565b60209081029190910101525060010161098c565b505050509250925092565b60016020528160005260406000208181548110610a8157600080fd5b600091825260209091206007909102018054600182015460028301546003840154600485015460058601546006909601546001600160a01b0390951697509295509093909260ff1687565b610ad4612182565b610ade60006121af565b565b606080606080606060046000878152602001908152602001600020805480602002602001604051908101604052809291908181526020018280548015610b4f57602002820191906000526020600020905b81546001600160a01b03168152600190910190602001808311610b31575b50508351939850839250505067ffffffffffffffff811115610b7357610b736132b4565b604051908082528060200260200182016040528015610b9c578160200160208202803683370190505b5094508067ffffffffffffffff811115610bb857610bb86132b4565b604051908082528060200260200182016040528015610be1578160200160208202803683370190505b5093508067ffffffffffffffff811115610bfd57610bfd6132b4565b604051908082528060200260200182016040528015610c26578160200160208202803683370190505b5092508067ffffffffffffffff811115610c4257610c426132b4565b604051908082528060200260200182016040528015610c6b578160200160208202803683370190505b50915060005b81811015610dc0576000878281518110610c8d57610c8d613256565b60200260200101519050600560008a81526020019081526020016000206000826001600160a01b03166001600160a01b0316815260200190815260200160002054878381518110610ce057610ce0613256565b60209081029190910181019190915260008a81526006825260408082206001600160a01b038516835290925220548651879084908110610d2257610d22613256565b60209081029190910181019190915260008a81526007825260408082206001600160a01b03851683529092522054855160ff90911690869084908110610d6a57610d6a613256565b91151560209283029190910182015260008a81526008825260408082206001600160a01b038516835290925220548451859084908110610dac57610dac613256565b602090810291909101015250600101610c71565b505091939590929450565b826001600160a01b0316630dfe16816040518163ffffffff1660e01b8152600401602060405180830381865afa158015610e09573d6000803e3d6000fd5b505050506040513d601f19601f82011682018060405250810190610e2d91906132ca565b6001600160a01b03166323b872dd8530856040518463ffffffff1660e01b8152600401610e5c939291906132e7565b6020604051808303816000875af1158015610e7b573d6000803e3d6000fd5b505050506040513d601f19601f82011682018060405250810190610e9f919061330b565b610ebc5760405163022e258160e11b815260040160405180910390fd5b826001600160a01b031663d21220a76040518163ffffffff1660e01b8152600401602060405180830381865afa158015610efa573d6000803e3d6000fd5b505050506040513d601f19601f82011682018060405250810190610f1e91906132ca565b6001600160a01b03166323b872dd8530846040518463ffffffff1660e01b8152600401610f4d939291906132e7565b6020604051808303816000875af1158015610f6c573d6000803e3d6000fd5b505050506040513d601f19601f82011682018060405250810190610f90919061330b565b610fad5760405163022e258160e11b815260040160405180910390fd5b826001600160a01b0316630dfe16816040518163ffffffff1660e01b8152600401602060405180830381865afa158015610feb573d6000803e3d6000fd5b505050506040513d601f19601f8201168201806040525081019061100f91906132ca565b60405163095ea7b360e01b81526001600160a01b03858116600483015260248201859052919091169063095ea7b3906044016020604051808303816000875af1158015611060573d6000803e3d6000fd5b505050506040513d601f19601f82011682018060405250810190611084919061330b565b50826001600160a01b031663d21220a76040518163ffffffff1660e01b8152600401602060405180830381865afa1580156110c3573d6000803e3d6000fd5b505050506040513d601f19601f820116820180604052508101906110e791906132ca565b60405163095ea7b360e01b81526001600160a01b03858116600483015260248201849052919091169063095ea7b3906044016020604051808303816000875af1158015611138573d6000803e3d6000fd5b505050506040513d601f19601f8201168201806040525081019061115c919061330b565b50604051634e6a20ed60e11b8152600481018390526024810182905260009081906001600160a01b03861690639cd441da9060440160408051808303816000875af11580156111af573d6000803e3d6000fd5b505050506040513d601f19601f820116820180604052508101906111d3919061332d565b91509150600082905060008290506000600360008a6001600160a01b03166001600160a01b03168152602001908152602001600020549050600160008a6001600160a01b03166001600160a01b031681526020019081526020016000206040518060e001604052808a6001600160a01b03168152602001858152602001848152602001848152602001600081526020016000815260200160011515815250908060018154018082558091505060019003906000526020600020906007020160009091909190915060008201518160000160006101000a8154816001600160a01b0302191690836001600160a01b031602179055506020820151816001015560408201518160020155606082015181600301556080820151816004015560a0820151816005015560c08201518160060160006101000a81548160ff0219169083151502179055505050600360008a6001600160a01b03166001600160a01b03168152602001908152602001600020600081548092919061135190613351565b9190505550505050505050505050565b611369612182565b60008281526002602052604090206005015460ff1661139b57604051632402f7bb60e01b815260040160405180910390fd5b6000828152600260208181526040808420600180820154948201546001600160a01b0388168752935293208054829190849081106113db576113db613256565b906000526020600020906007020160030160008282546113fb919061329b565b90915550505050600501805460ff191690555050565b6001600160a01b0382166000908152600360205260409020548110611449576040516302d576d960e01b815260040160405180910390fd5b6001600160a01b038216600090815260016020526040812080548390811061147357611473613256565b60009182526020909120600790910201600681015490915060ff166114ab5760405163a8a168bf60e01b815260040160405180910390fd5b80546001820154604051630962ef7960e01b815260048101919091526000916001600160a01b031690630962ef79906024016020604051808303816000875af11580156114fc573d6000803e3d6000fd5b505050506040513d601f19601f82011682018060405250810190611520919061326c565b905080600003611543576040516373380d9960e01b815260040160405180910390fd5b80826004016000828254611557919061329b565b9250508190555080826005016000828254611572919061329b565b909155505060405181815283906001600160a01b038616907fdacbdde355ba930696a362ea6738feb9f8bd52dfb3d81947558fd3217e23e3259060200160405180910390a350505050565b6001600160a01b03881660009081526003602052604090205487106115f5576040516302d576d960e01b815260040160405180910390fd5b6001600160a01b038816600090815260016020526040902080548890811061161f5761161f613256565b600091825260209091206006600790920201015460ff166116535760405163a8a168bf60e01b815260040160405180910390fd5b8483141580611660575084155b1561167e57604051634d2f260f60e11b815260040160405180910390fd5b6000805b848110156116b85785858281811061169c5761169c613256565b90506020020135826116ae919061329b565b9150600101611682565b506001600160a01b038916600090815260016020526040902080548291908a9081106116e6576116e6613256565b90600052602060002090600702016003015410156117175760405163b35f6c3760e01b815260040160405180910390fd5b6001600160a01b038916600090815260016020526040902080548291908a90811061174457611744613256565b90600052602060002090600702016003016000828254611764919061336a565b925050819055506040518060c001604052808b815260200189815260200182815260200184815260200183815260200160011515815250600260008c8152602001908152602001600020600082015181600001556020820151816001015560408201518160020155606082015181600301556080820151816004015560a08201518160050160006101000a81548160ff02191690831515021790555090505060005b868110156119f45760008b815260046020526040902088888381811061182e5761182e613256565b90506020020160208101906118439190612d58565b81546001810183556000928352602090922090910180546001600160a01b0319166001600160a01b0390921691909117905585858281811061188757611887613256565b90506020020135600560008d815260200190815260200160002060008a8a858181106118b5576118b5613256565b90506020020160208101906118ca9190612d58565b6001600160a01b0316815260208082019290925260409081016000908120939093558d835260079091528120818a8a8581811061190957611909613256565b905060200201602081019061191e9190612d58565b6001600160a01b0316815260208082019290925260409081016000908120805460ff1916941515949094179093558d835260069091528120818a8a8581811061196957611969613256565b905060200201602081019061197e9190612d58565b6001600160a01b0316815260208082019290925260409081016000908120939093558d835260089091528120818a8a858181106119bd576119bd613256565b90506020020160208101906119d29190612d58565b6001600160a01b03168152602081019190915260400160002055600101611806565b5050505050505050505050565b60046020528160005260406000208181548110611a1d57600080fd5b6000918252602090912001546001600160a01b03169150829050565b6000611a47898989896121ff565b9050611a57858a83878787612797565b505050505050505050565b6001600160a01b0383166000908152600360205260409020548210611a9a576040516302d576d960e01b815260040160405180910390fd5b6001600160a01b0383166000908152600160205260409020805483908110611ac457611ac4613256565b600091825260209091206006600790920201015460ff16611af85760405163a8a168bf60e01b815260040160405180910390fd5b6001600160a01b0383166000908152600160205260408120805484908110611b2257611b22613256565b9060005260206000209060070201905060008160020154905080831115611b6b57611b4d818461336a565b826003016000828254611b60919061329b565b90915550611bbc9050565b611b75838261336a565b82600301541015611b995760405163ac33f69b60e01b815260040160405180910390fd5b611ba3838261336a565b826003016000828254611bb6919061336a565b90915550505b50600201555050565b6000828152600260205260409020600581015460ff16611bf857604051632402f7bb60e01b815260040160405180910390fd5b600083815260076020908152604080832033845290915290205460ff1615611c3357604051630c8d9eab60e31b815260040160405180910390fd5b6000838152600560209081526040808320338085529252822054909103611c6d576040516343290f5b60e01b815260040160405180910390fd5b60008481526006602090815260408083206001600160a01b03851684529091528120549003611cc6578160040154421015611cbb5760405163268e198560e21b815260040160405180910390fd5b611cc684828561205f565b60018083015460008681526008602090815260408083206001600160a01b038088168552908352818420549089168452949091528120805492939284908110611d1157611d11613256565b600091825260208083206004600790930201919091015460028801548a84526005835260408085206001600160a01b038a1686529093529183205490935090918282611d5d878761336a565b611d67919061337d565b611d719190613394565b60008b81526007602090815260408083206001600160a01b03808d168552908352818420805460ff19166001908117909155908e16845290915290208054919250839188908110611dc457611dc4613256565b90600052602060002090600702016003016000828254611de4919061329b565b90915550506001600160a01b0389166000908152600160205260408120805488908110611e1357611e13613256565b6000918252602080832060079092029091015460408051630dfe168160e01b815290516001600160a01b0390921694508492630dfe1681926004808401938290030181865afa158015611e6a573d6000803e3d6000fd5b505050506040513d601f19601f82011682018060405250810190611e8e91906132ca565b90508215611f9a5760405163095ea7b360e01b81526001600160a01b0383811660048301526024820185905282169063095ea7b3906044016020604051808303816000875af1158015611ee5573d6000803e3d6000fd5b505050506040513d601f19601f82011682018060405250810190611f09919061330b565b506040516323b872dd60e01b81526001600160a01b038216906323b872dd90611f3a9085908d9088906004016132e7565b6020604051808303816000875af1158015611f59573d6000803e3d6000fd5b505050506040513d601f19601f82011682018060405250810190611f7d919061330b565b611f9a5760405163022e258160e11b815260040160405180910390fd5b6000611fa7600286613394565b90506000611fb5828761336a565b9050611fc38b85848461291c565b50506001600160a01b038b168e7ff047ae97d6e77b909438ee0321b4cfd287bf5633f353d878e3ae78ebff0b8bc3611ffb888a61329b565b60405190815260200160405180910390a35050505050505050505050505050565b612024612182565b6001600160a01b03811661205357604051631e4fbdf760e01b8152600060048201526024015b60405180910390fd5b61205c816121af565b50565b6000838152600260205260409020600581015460ff1661209257604051632402f7bb60e01b815260040160405180910390fd5b80600401544210156120b75760405163268e198560e21b815260040160405180910390fd5b60008481526006602090815260408083206001600160a01b0387168452909152902054156120f8576040516328486b6360e11b815260040160405180910390fd5b60018082015460008681526006602090815260408083206001600160a01b03808a168552908352818420429055871683529390529190912080548290811061214257612142613256565b60009182526020808320600460079093020191909101549682526008815260408083206001600160a01b0390971683529590529390932093909355505050565b6000546001600160a01b03163314610ade5760405163118cdaa760e01b815233600482015260240161204a565b600080546001600160a01b038381166001600160a01b0319831681178455604051919092169283917f8be0079c531659141344cd1fd0a4f28419497f9722a3daafe3b4186f6b6457e09190a35050565b6000836001600160a01b0316630dfe16816040518163ffffffff1660e01b8152600401602060405180830381865afa15801561223f573d6000803e3d6000fd5b505050506040513d601f19601f8201168201806040525081019061226391906132ca565b6001600160a01b03166323b872dd8630866040518463ffffffff1660e01b8152600401612292939291906132e7565b6020604051808303816000875af11580156122b1573d6000803e3d6000fd5b505050506040513d601f19601f820116820180604052508101906122d5919061330b565b6122f25760405163022e258160e11b815260040160405180910390fd5b836001600160a01b031663d21220a76040518163ffffffff1660e01b8152600401602060405180830381865afa158015612330573d6000803e3d6000fd5b505050506040513d601f19601f8201168201806040525081019061235491906132ca565b6001600160a01b03166323b872dd8630856040518463ffffffff1660e01b8152600401612383939291906132e7565b6020604051808303816000875af11580156123a2573d6000803e3d6000fd5b505050506040513d601f19601f820116820180604052508101906123c6919061330b565b6123e35760405163022e258160e11b815260040160405180910390fd5b836001600160a01b0316630dfe16816040518163ffffffff1660e01b8152600401602060405180830381865afa158015612421573d6000803e3d6000fd5b505050506040513d601f19601f8201168201806040525081019061244591906132ca565b60405163095ea7b360e01b81526001600160a01b03868116600483015260248201869052919091169063095ea7b3906044016020604051808303816000875af1158015612496573d6000803e3d6000fd5b505050506040513d601f19601f820116820180604052508101906124ba919061330b565b50836001600160a01b031663d21220a76040518163ffffffff1660e01b8152600401602060405180830381865afa1580156124f9573d6000803e3d6000fd5b505050506040513d601f19601f8201168201806040525081019061251d91906132ca565b60405163095ea7b360e01b81526001600160a01b03868116600483015260248201859052919091169063095ea7b3906044016020604051808303816000875af115801561256e573d6000803e3d6000fd5b505050506040513d601f19601f82011682018060405250810190612592919061330b565b50604051634e6a20ed60e11b8152600481018490526024810183905260009081906001600160a01b03871690639cd441da9060440160408051808303816000875af11580156125e5573d6000803e3d6000fd5b505050506040513d601f19601f82011682018060405250810190612609919061332d565b9150915060008290506000829050600360008a6001600160a01b03166001600160a01b03168152602001908152602001600020549450600160008a6001600160a01b03166001600160a01b031681526020019081526020016000206040518060e001604052808a6001600160a01b03168152602001848152602001838152602001838152602001600081526020016000815260200160011515815250908060018154018082558091505060019003906000526020600020906007020160009091909190915060008201518160000160006101000a8154816001600160a01b0302191690836001600160a01b031602179055506020820151816001015560408201518160020155606082015181600301556080820151816004015560a0820151816005015560c08201518160060160006101000a81548160ff0219169083151502179055505050600360008a6001600160a01b03166001600160a01b03168152602001908152602001600020600081548092919061278590613351565b9190505550505050505b949350505050565b6001600160a01b03851660009081526003602052604090205484106127cf576040516302d576d960e01b815260040160405180910390fd5b6001600160a01b03851660009081526001602052604090208054859081106127f9576127f9613256565b600091825260209091206006600790920201015460ff1661282d5760405163a8a168bf60e01b815260040160405180910390fd5b6001600160a01b038516600090815260016020526040902080548491908690811061285a5761285a613256565b906000526020600020906007020160030154101561288b5760405163b35f6c3760e01b815260040160405180910390fd5b6001600160a01b03851660009081526001602052604090208054849190869081106128b8576128b8613256565b906000526020600020906007020160030160008282546128d8919061336a565b9091555050600095865260026020819052604090962060018082019590955595860192909255600385015560048401556005909201805460ff191690921790915550565b6000806000856001600160a01b0316630dfe16816040518163ffffffff1660e01b8152600401602060405180830381865afa15801561295f573d6000803e3d6000fd5b505050506040513d601f19601f8201168201806040525081019061298391906132ca565b90506000866001600160a01b031663d21220a76040518163ffffffff1660e01b8152600401602060405180830381865afa1580156129c5573d6000803e3d6000fd5b505050506040513d601f19601f820116820180604052508101906129e991906132ca565b60405163095ea7b360e01b81526001600160a01b038981166004830152602482018990529192509083169063095ea7b3906044016020604051808303816000875af1158015612a3c573d6000803e3d6000fd5b505050506040513d601f19601f82011682018060405250810190612a60919061330b565b5060405163095ea7b360e01b81526001600160a01b0388811660048301526024820187905282169063095ea7b3906044016020604051808303816000875af1158015612ab0573d6000803e3d6000fd5b505050506040513d601f19601f82011682018060405250810190612ad4919061330b565b506001600160a01b0380891660009081526003602090815260408083205460018352818420825160e081018452958d16865292850193909352919290918101612b1d898b61329b565b8152602001612b2c898b61329b565b8152600060208083018290526040808401839052600160609485018190528654808201885596845292829020855160079097020180546001600160a01b0319166001600160a01b039788161781559185015192820192909255838201516002820155918301516003830155608083015160048084019190915560a0840151600584015560c0909301516006909201805460ff19169215159290921790915551634e6a20ed60e11b81529081018990526024810188905290891690639cd441da9060440160408051808303816000875af1158015612c0d573d6000803e3d6000fd5b505050506040513d601f19601f82011682018060405250810190612c31919061332d565b6001600160a01b038b1660009081526001602052604090208054929750909550869183908110612c6357612c63613256565b90600052602060002090600702016001018190555083600160008b6001600160a01b03166001600160a01b031681526020019081526020016000208281548110612caf57612caf613256565b90600052602060002090600702016002018190555083600160008b6001600160a01b03166001600160a01b031681526020019081526020016000208281548110612cfb57612cfb613256565b6000918252602080832060036007909302018201939093556001600160a01b038c16825290915260408120805491612d3283613351565b919050555050505094509492505050565b6001600160a01b038116811461205c57600080fd5b600060208284031215612d6a57600080fd5b8135612d7581612d43565b9392505050565b60008060408385031215612d8f57600080fd5b8235612d9a81612d43565b946020939093013593505050565b60008060408385031215612dbb57600080fd5b823591506020830135612dcd81612d43565b809150509250929050565b60006101c08201855183526020860151602084015260408601516040840152606086015160608401526080860151608084015260a0860151151560a08401526101c060c08401528085518083526101e08501915060208701925060005b81811015612e8b57835180516001600160a01b031684526020808201518186015260408083015190860152606080830151151590860152608091820151918501919091529093019260a090920191600101612e35565b505084516001600160a01b031660e0850152602085015161010085015260408501516101208501526060850151610140850152608085015161016085015260a085015161018085015260c085015115156101a0850152915061278f9050565b600060208284031215612efc57600080fd5b5035919050565b600081518084526020840193506020830160005b82811015612f35578151865260209586019590910190600101612f17565b5093949350505050565b600081518084526020840193506020830160005b82811015612f355781511515865260209586019590910190600101612f53565b60a08082528651908201819052600090602088019060c0840190835b81811015612fb65783516001600160a01b0316835260209384019390920191600101612f8f565b50508381036020850152612fca8189612f03565b9150508281036040840152612fdf8187612f03565b90508281036060840152612ff38186612f3f565b905082810360808401526130078185612f03565b98975050505050505050565b6000806000806080858703121561302957600080fd5b843561303481612d43565b9350602085013561304481612d43565b93969395505050506040820135916060013590565b60008083601f84011261306b57600080fd5b50813567ffffffffffffffff81111561308357600080fd5b6020830191508360208260051b850101111561309e57600080fd5b9250929050565b600080600080600080600080600060e08a8c0312156130c357600080fd5b8935985060208a01356130d581612d43565b975060408a0135965060608a013567ffffffffffffffff8111156130f857600080fd5b6131048c828d01613059565b90975095505060808a013567ffffffffffffffff81111561312457600080fd5b6131308c828d01613059565b9a9d999c50979a96999598959660a08101359660c09091013595509350505050565b6000806040838503121561316557600080fd5b50508035926020909101359150565b600080600080600080600080610100898b03121561319157600080fd5b883561319c81612d43565b975060208901356131ac81612d43565b979a9799505050506040860135956060810135956080820135955060a0820135945060c0820135935060e0909101359150565b6000806000606084860312156131f457600080fd5b83356131ff81612d43565b95602085013595506040909401359392505050565b60008060006060848603121561322957600080fd5b83359250602084013561323b81612d43565b9150604084013561324b81612d43565b809150509250925092565b634e487b7160e01b600052603260045260246000fd5b60006020828403121561327e57600080fd5b5051919050565b634e487b7160e01b600052601160045260246000fd5b808201808211156132ae576132ae613285565b92915050565b634e487b7160e01b600052604160045260246000fd5b6000602082840312156132dc57600080fd5b8151612d7581612d43565b6001600160a01b039384168152919092166020820152604081019190915260600190565b60006020828403121561331d57600080fd5b81518015158114612d7557600080fd5b6000806040838503121561334057600080fd5b505080516020909101519092909150565b60006001820161336357613363613285565b5060010190565b818103818111156132ae576132ae613285565b80820281158282048414176132ae576132ae613285565b6000826133b157634e487b7160e01b600052601260045260246000fd5b50049056fea2646970667358221220e05fce02029403ef3b8fb222b3727becb276625d2a143e0132c31156a436c30b64736f6c634300081c0033",
  "linkReferences": {},
  "deployedLinkReferences": {}
}