{
  "_format": "hh-sol-artifact-1",
  "contractName": "MockLiquidityPool",
  "sourceName": "contracts/mocks/MockLiquidityPool.sol",
  "abi": [
    {
      "inputs": [
        {
          "internalType": "address",
          "name": "_token0",
          "type": "address"
        },
        {
          "internalType": "address",
          "name": "_token1",
          "type": "address"
        },
        {
          "internalType": "address",
          "name": "_owner",
          "type": "address"
        }
      ],
      "stateMutability": "nonpayable",
      "type": "constructor"
    },
    {
      "inputs": [
        {
          "internalType": "address",
          "name": "owner",
          "type": "address"
        }
      ],
      "name": "OwnableInvalidOwner",
      "type": "error"
    },
    {
      "inputs": [
        {
          "internalType": "address",
          "name": "account",
          "type": "address"
        }
      ],
      "name": "OwnableUnauthorizedAccount",
      "type": "error"
    },
    {
      "anonymous": false,
      "inputs": [
        {
          "indexed": true,
          "internalType": "address",
          "name": "previousOwner",
          "type": "address"
        },
        {
          "indexed": true,
          "internalType": "address",
          "name": "newOwner",
          "type": "address"
        }
      ],
      "name": "OwnershipTransferred",
      "type": "event"
    },
    {
      "anonymous": false,
      "inputs": [
        {
          "indexed": true,
          "internalType": "uint256",
          "name": "positionId",
          "type": "uint256"
        },
        {
          "indexed": true,
          "internalType": "address",
          "name": "owner",
          "type": "address"
        },
        {
          "indexed": false,
          "internalType": "uint256",
          "name": "amount0",
          "type": "uint256"
        },
        {
          "indexed": false,
          "internalType": "uint256",
          "name": "amount1",
          "type": "uint256"
        },
        {
          "indexed": false,
          "internalType": "uint256",
          "name": "liquidity",
          "type": "uint256"
        }
      ],
      "name": "PositionCreated",
      "type": "event"
    },
    {
      "anonymous": false,
      "inputs": [
        {
          "indexed": true,
          "internalType": "uint256",
          "name": "positionId",
          "type": "uint256"
        },
        {
          "indexed": true,
          "internalType": "address",
          "name": "owner",
          "type": "address"
        },
        {
          "indexed": false,
          "internalType": "uint256",
          "name": "amount0",
          "type": "uint256"
        },
        {
          "indexed": false,
          "internalType": "uint256",
          "name": "amount1",
          "type": "uint256"
        },
        {
          "indexed": false,
          "internalType": "uint256",
          "name": "rewards",
          "type": "uint256"
        }
      ],
      "name": "PositionRemoved",
      "type": "event"
    },
    {
      "anonymous": false,
      "inputs": [
        {
          "indexed": true,
          "internalType": "uint256",
          "name": "positionId",
          "type": "uint256"
        },
        {
          "indexed": false,
          "internalType": "uint256",
          "name": "amount",
          "type": "uint256"
        }
      ],
      "name": "RewardsAdded",
      "type": "event"
    },
    {
      "anonymous": false,
      "inputs": [
        {
          "indexed": true,
          "internalType": "uint256",
          "name": "positionId",
          "type": "uint256"
        },
        {
          "indexed": true,
          "internalType": "address",
          "name": "owner",
          "type": "address"
        },
        {
          "indexed": false,
          "internalType": "uint256",
          "name": "amount",
          "type": "uint256"
        }
      ],
      "name": "RewardsClaimed",
      "type": "event"
    },
    {
      "inputs": [],
      "name": "INITIAL_REWARDS",
      "outputs": [
        {
          "internalType": "uint256",
          "name": "",
          "type": "uint256"
        }
      ],
      "stateMutability": "view",
      "type": "function"
    },
    {
      "inputs": [],
      "name": "REWARD_RATE",
      "outputs": [
        {
          "internalType": "uint256",
          "name": "",
          "type": "uint256"
        }
      ],
      "stateMutability": "view",
      "type": "function"
    },
    {
      "inputs": [
        {
          "internalType": "uint256",
          "name": "amount0",
          "type": "uint256"
        },
        {
          "internalType": "uint256",
          "name": "amount1",
          "type": "uint256"
        }
      ],
      "name": "addLiquidity",
      "outputs": [
        {
          "internalType": "uint256",
          "name": "positionId",
          "type": "uint256"
        },
        {
          "internalType": "uint256",
          "name": "liquidity",
          "type": "uint256"
        }
      ],
      "stateMutability": "nonpayable",
      "type": "function"
    },
    {
      "inputs": [
        {
          "internalType": "uint256",
          "name": "positionId",
          "type": "uint256"
        },
        {
          "internalType": "uint256",
          "name": "amount",
          "type": "uint256"
        }
      ],
      "name": "addRewards",
      "outputs": [],
      "stateMutability": "nonpayable",
      "type": "function"
    },
    {
      "inputs": [
        {
          "internalType": "uint256",
          "name": "positionId",
          "type": "uint256"
        }
      ],
      "name": "calculateRewards",
      "outputs": [
        {
          "internalType": "uint256",
          "name": "rewards",
          "type": "uint256"
        }
      ],
      "stateMutability": "view",
      "type": "function"
    },
    {
      "inputs": [
        {
          "internalType": "uint256",
          "name": "positionId",
          "type": "uint256"
        }
      ],
      "name": "claimRewards",
      "outputs": [
        {
          "internalType": "uint256",
          "name": "rewards",
          "type": "uint256"
        }
      ],
      "stateMutability": "nonpayable",
      "type": "function"
    },
    {
      "inputs": [
        {
          "internalType": "uint256",
          "name": "positionId",
          "type": "uint256"
        }
      ],
      "name": "getPosition",
      "outputs": [
        {
          "internalType": "address",
          "name": "owner",
          "type": "address"
        },
        {
          "internalType": "uint256",
          "name": "amount0",
          "type": "uint256"
        },
        {
          "internalType": "uint256",
          "name": "amount1",
          "type": "uint256"
        },
        {
          "internalType": "uint256",
          "name": "liquidity",
          "type": "uint256"
        },
        {
          "internalType": "uint256",
          "name": "rewards",
          "type": "uint256"
        },
        {
          "internalType": "bool",
          "name": "isActive",
          "type": "bool"
        }
      ],
      "stateMutability": "view",
      "type": "function"
    },
    {
      "inputs": [],
      "name": "nextPositionId",
      "outputs": [
        {
          "internalType": "uint256",
          "name": "",
          "type": "uint256"
        }
      ],
      "stateMutability": "view",
      "type": "function"
    },
    {
      "inputs": [],
      "name": "owner",
      "outputs": [
        {
          "internalType": "address",
          "name": "",
          "type": "address"
        }
      ],
      "stateMutability": "view",
      "type": "function"
    },
    {
      "inputs": [
        {
          "internalType": "uint256",
          "name": "",
          "type": "uint256"
        }
      ],
      "name": "positions",
      "outputs": [
        {
          "internalType": "address",
          "name": "owner",
          "type": "address"
        },
        {
          "internalType": "uint256",
          "name": "amount0",
          "type": "uint256"
        },
        {
          "internalType": "uint256",
          "name": "amount1",
          "type": "uint256"
        },
        {
          "internalType": "uint256",
          "name": "liquidity",
          "type": "uint256"
        },
        {
          "internalType": "uint256",
          "name": "rewards",
          "type": "uint256"
        },
        {
          "internalType": "uint256",
          "name": "lastRewardUpdate",
          "type": "uint256"
        },
        {
          "internalType": "bool",
          "name": "isActive",
          "type": "bool"
        }
      ],
      "stateMutability": "view",
      "type": "function"
    },
    {
      "inputs": [
        {
          "internalType": "uint256",
          "name": "positionId",
          "type": "uint256"
        }
      ],
      "name": "removeLiquidity",
      "outputs": [
        {
          "internalType": "uint256",
          "name": "amount0",
          "type": "uint256"
        },
        {
          "internalType": "uint256",
          "name": "amount1",
          "type": "uint256"
        },
        {
          "internalType": "uint256",
          "name": "rewards",
          "type": "uint256"
        }
      ],
      "stateMutability": "nonpayable",
      "type": "function"
    },
    {
      "inputs": [],
      "name": "renounceOwnership",
      "outputs": [],
      "stateMutability": "nonpayable",
      "type": "function"
    },
    {
      "inputs": [],
      "name": "token0",
      "outputs": [
        {
          "internalType": "contract IERC20",
          "name": "",
          "type": "address"
        }
      ],
      "stateMutability": "view",
      "type": "function"
    },
    {
      "inputs": [],
      "name": "token1",
      "outputs": [
        {
          "internalType": "contract IERC20",
          "name": "",
          "type": "address"
        }
      ],
      "stateMutability": "view",
      "type": "function"
    },
    {
      "inputs": [
        {
          "internalType": "address",
          "name": "newOwner",
          "type": "address"
        }
      ],
      "name": "transferOwnership",
      "outputs": [],
      "stateMutability": "nonpayable",
      "type": "function"
    }
  ],
  "bytecode": "0x60c060405234801561001057600080fd5b5060405161126038038061126083398101604081905261002f91610150565b806001600160a01b03811661005e57604051631e4fbdf760e01b81526000600482015260240160405180910390fd5b610067816100e4565b506001600160a01b03838116608081905290831660a0526040516340c10f1960e01b815230600482015269d3c21bcecceda100000060248201526340c10f1990604401600060405180830381600087803b1580156100c457600080fd5b505af11580156100d8573d6000803e3d6000fd5b50505050505050610193565b600080546001600160a01b038381166001600160a01b0319831681178455604051919092169283917f8be0079c531659141344cd1fd0a4f28419497f9722a3daafe3b4186f6b6457e09190a35050565b80516001600160a01b038116811461014b57600080fd5b919050565b60008060006060848603121561016557600080fd5b61016e84610134565b925061017c60208501610134565b915061018a60408501610134565b90509250925092565b60805160a0516110776101e96000396000818161029701528181610703015261097201526000818161012501528181610443015281816106270152818161089001528181610bd30152610d5001526110776000f3fe608060405234801561001057600080fd5b50600436106100f55760003560e01c806399fbab8811610097578063d3ea435011610066578063d3ea4350146102b9578063eb02c301146102cc578063f2fde38b14610318578063fc41aa091461032b57600080fd5b806399fbab88146101a25780639c8f9f231461023c5780639cd441da1461026a578063d21220a71461029257600080fd5b80636abe4029116100d35780636abe40291461016d578063715018a61461017e578063899346c7146101885780638da5cb5b1461019157600080fd5b80630962ef79146100fa5780630dfe1681146101205780635997bb371461015f575b600080fd5b61010d610108366004610eda565b61033e565b6040519081526020015b60405180910390f35b6101477f000000000000000000000000000000000000000000000000000000000000000081565b6040516001600160a01b039091168152602001610117565b61010d662386f26fc1000081565b61010d69d3c21bcecceda100000081565b61018661053a565b005b61010d60025481565b6000546001600160a01b0316610147565b6101fb6101b0366004610eda565b600160208190526000918252604090912080549181015460028201546003830154600484015460058501546006909501546001600160a01b0390961695939492939192909160ff1687565b604080516001600160a01b0390981688526020880196909652948601939093526060850191909152608084015260a0830152151560c082015260e001610117565b61024f61024a366004610eda565b61054e565b60408051938452602084019290925290820152606001610117565b61027d610278366004610ef3565b61080a565b60408051928352602083019190915201610117565b6101477f000000000000000000000000000000000000000000000000000000000000000081565b61010d6102c7366004610eda565b610b33565b6102df6102da366004610eda565b610c59565b604080516001600160a01b03909716875260208701959095529385019290925260608401526080830152151560a082015260c001610117565b610186610326366004610f15565b610cb6565b610186610339366004610ef3565b610cf4565b600081815260016020526040812080546001600160a01b0316331461039f5760405162461bcd60e51b81526020600482015260126024820152712737ba103837b9b4ba34b7b71037bbb732b960711b60448201526064015b60405180910390fd5b600681015460ff166103c35760405162461bcd60e51b815260040161039690610f45565b6103cc83610b33565b9150600082116104145760405162461bcd60e51b81526020600482015260136024820152724e6f207265776172647320746f20636c61696d60681b6044820152606401610396565b600060048281019190915542600583015560405163a9059cbb60e01b81523391810191909152602481018390527f00000000000000000000000000000000000000000000000000000000000000006001600160a01b03169063a9059cbb906044016020604051808303816000875af1158015610494573d6000803e3d6000fd5b505050506040513d601f19601f820116820180604052508101906104b89190610f72565b6104fd5760405162461bcd60e51b815260206004820152601660248201527514995dd85c99081d1c985b9cd9995c8819985a5b195960521b6044820152606401610396565b604051828152339084907f3300bdb359cfb956935bca32e9db727413eab1ca84341f2e36caea85bb7969689060200160405180910390a350919050565b610542610e5d565b61054c6000610e8a565b565b60008181526001602052604081208054829182916001600160a01b031633146105ae5760405162461bcd60e51b81526020600482015260126024820152712737ba103837b9b4ba34b7b71037bbb732b960711b6044820152606401610396565b600681015460ff166105d25760405162461bcd60e51b815260040161039690610f45565b6105db85610b33565b6001820154600283015460068401805460ff19169055600060048501554260058501559095509350915083156106e15760405163a9059cbb60e01b8152336004820152602481018590527f00000000000000000000000000000000000000000000000000000000000000006001600160a01b03169063a9059cbb906044016020604051808303816000875af1158015610678573d6000803e3d6000fd5b505050506040513d601f19601f8201168201806040525081019061069c9190610f72565b6106e15760405162461bcd60e51b8152602060048201526016602482015275151bdad95b8c081d1c985b9cd9995c8819985a5b195960521b6044820152606401610396565b82156107bd5760405163a9059cbb60e01b8152336004820152602481018490527f00000000000000000000000000000000000000000000000000000000000000006001600160a01b03169063a9059cbb906044016020604051808303816000875af1158015610754573d6000803e3d6000fd5b505050506040513d601f19601f820116820180604052508101906107789190610f72565b6107bd5760405162461bcd60e51b8152602060048201526016602482015275151bdad95b8c481d1c985b9cd9995c8819985a5b195960521b6044820152606401610396565b6040805185815260208101859052908101839052339086907fa779f43a8272f792f597b5d0998cb96f56154d0792ec835a9057007d020cec3b9060600160405180910390a3509193909250565b600080600084118061081c5750600083115b6108685760405162461bcd60e51b815260206004820152601760248201527f4d7573742061646420736f6d65206c69717569646974790000000000000000006044820152606401610396565b831561094a576040516323b872dd60e01b8152336004820152306024820152604481018590527f00000000000000000000000000000000000000000000000000000000000000006001600160a01b0316906323b872dd906064016020604051808303816000875af11580156108e1573d6000803e3d6000fd5b505050506040513d601f19601f820116820180604052508101906109059190610f72565b61094a5760405162461bcd60e51b8152602060048201526016602482015275151bdad95b8c081d1c985b9cd9995c8819985a5b195960521b6044820152606401610396565b8215610a2c576040516323b872dd60e01b8152336004820152306024820152604481018490527f00000000000000000000000000000000000000000000000000000000000000006001600160a01b0316906323b872dd906064016020604051808303816000875af11580156109c3573d6000803e3d6000fd5b505050506040513d601f19601f820116820180604052508101906109e79190610f72565b610a2c5760405162461bcd60e51b8152602060048201526016602482015275151bdad95b8c481d1c985b9cd9995c8819985a5b195960521b6044820152606401610396565b610a368385610faa565b600280549192506000610a4883610fc3565b909155506040805160e08101825233808252602080830189815283850189815260608086018981526000608088018181524260a08a01908152600160c08b018181528d8552818a52938c90209a518b546001600160a01b0319166001600160a01b03909116178b559651968a019690965593516002890155905160038801559151600487015591516005860155516006909401805460ff191694151594909417909355835189815290810188905292830185905292945084917f175931250abbefa875152bcfbd7d338a80deb332ba3fedca8dfe1c2cf4c1e1aa910160405180910390a39250929050565b6000818152600160205260408120600681015460ff16610b565750600092915050565b6000816005015442610b689190610fdc565b90506000670de0b6b3a764000082662386f26fc100008560030154610b8d9190610fef565b610b979190610fef565b610ba19190611006565b8360040154610bb09190610faa565b6040516370a0823160e01b81523060048201529091506000906001600160a01b037f000000000000000000000000000000000000000000000000000000000000000016906370a0823190602401602060405180830381865afa158015610c1a573d6000803e3d6000fd5b505050506040513d601f19601f82011682018060405250810190610c3e9190611028565b9050808211610c4d5781610c4f565b805b9695505050505050565b60008181526001602081905260408220805491810154600282015460038301548594859485948594859492936001600160a01b031692610c988c610b33565b60069590950154939c929b50909950975091955060ff169350915050565b610cbe610e5d565b6001600160a01b038116610ce857604051631e4fbdf760e01b815260006004820152602401610396565b610cf181610e8a565b50565b610cfc610e5d565b6000828152600160205260409020600681015460ff16610d2e5760405162461bcd60e51b815260040161039690610f45565b6040516323b872dd60e01b8152336004820152306024820152604481018390527f00000000000000000000000000000000000000000000000000000000000000006001600160a01b0316906323b872dd906064016020604051808303816000875af1158015610da1573d6000803e3d6000fd5b505050506040513d601f19601f82011682018060405250810190610dc59190610f72565b610e0a5760405162461bcd60e51b815260206004820152601660248201527514995dd85c99081d1c985b9cd9995c8819985a5b195960521b6044820152606401610396565b81816004016000828254610e1e9190610faa565b909155505060405182815283907f40df43107e8b4d467127964bd3c966687c0a6a39aaede970755397fd09535e989060200160405180910390a2505050565b6000546001600160a01b0316331461054c5760405163118cdaa760e01b8152336004820152602401610396565b600080546001600160a01b038381166001600160a01b0319831681178455604051919092169283917f8be0079c531659141344cd1fd0a4f28419497f9722a3daafe3b4186f6b6457e09190a35050565b600060208284031215610eec57600080fd5b5035919050565b60008060408385031215610f0657600080fd5b50508035926020909101359150565b600060208284031215610f2757600080fd5b81356001600160a01b0381168114610f3e57600080fd5b9392505050565b602080825260139082015272506f736974696f6e206e6f742061637469766560681b604082015260600190565b600060208284031215610f8457600080fd5b81518015158114610f3e57600080fd5b634e487b7160e01b600052601160045260246000fd5b80820180821115610fbd57610fbd610f94565b92915050565b600060018201610fd557610fd5610f94565b5060010190565b81810381811115610fbd57610fbd610f94565b8082028115828204841417610fbd57610fbd610f94565b60008261102357634e487b7160e01b600052601260045260246000fd5b500490565b60006020828403121561103a57600080fd5b505191905056fea2646970667358221220f0a6504b91c7b004ad64215ebb091ede2f98e766fd6eea2d8352da43a18e059664736f6c634300081c0033",
  "linkReferences": {},
  "deployedLinkReferences": {}
}