{"abi":[{"type":"constructor","inputs":[{"name":"name","type":"string","internalType":"string"},{"name":"symbol","type":"string","internalType":"string"},{"name":"initialHolder","type":"address","internalType":"address"},{"name":"initialSupply","type":"uint256","internalType":"uint256"}],"stateMutability":"nonpayable"},{"type":"function","name":"allowance","inputs":[{"name":"owner","type":"address","internalType":"address"},{"name":"spender","type":"address","internalType":"address"}],"outputs":[{"name":"","type":"uint256","internalType":"uint256"}],"stateMutability":"view"},{"type":"function","name":"approve","inputs":[{"name":"spender","type":"address","internalType":"address"},{"name":"value","type":"uint256","internalType":"uint256"}],"outputs":[{"name":"","type":"bool","internalType":"bool"}],"stateMutability":"nonpayable"},{"type":"function","name":"balanceOf","inputs":[{"name":"account","type":"address","internalType":"address"}],"outputs":[{"name":"","type":"uint256","internalType":"uint256"}],"stateMutability":"view"},{"type":"function","name":"decimals","inputs":[],"outputs":[{"name":"","type":"uint8","internalType":"uint8"}],"stateMutability":"view"},{"type":"function","name":"deposit","inputs":[{"name":"token","type":"address","internalType":"address"},{"name":"amount","type":"uint256","internalType":"uint256"}],"outputs":[],"stateMutability":"nonpayable"},{"type":"function","name":"name","inputs":[],"outputs":[{"name":"","type":"string","internalType":"string"}],"stateMutability":"view"},{"type":"function","name":"symbol","inputs":[],"outputs":[{"name":"","type":"string","internalType":"string"}],"stateMutability":"view"},{"type":"function","name":"totalSupply","inputs":[],"outputs":[{"name":"","type":"uint256","internalType":"uint256"}],"stateMutability":"view"},{"type":"function","name":"transfer","inputs":[{"name":"to","type":"address","internalType":"address"},{"name":"value","type":"uint256","internalType":"uint256"}],"outputs":[{"name":"","type":"bool","internalType":"bool"}],"stateMutability":"nonpayable"},{"type":"function","name":"transferFrom","inputs":[{"name":"from","type":"address","internalType":"address"},{"name":"to","type":"address","internalType":"address"},{"name":"value","type":"uint256","internalType":"uint256"}],"outputs":[{"name":"","type":"bool","internalType":"bool"}],"stateMutability":"nonpayable"},{"type":"function","name":"withdraw","inputs":[{"name":"token","type":"address","internalType":"address"},{"name":"amount","type":"uint256","internalType":"uint256"}],"outputs":[],"stateMutability":"nonpayable"},{"type":"event","name":"Approval","inputs":[{"name":"owner","type":"address","indexed":true,"internalType":"address"},{"name":"spender","type":"address","indexed":true,"internalType":"address"},{"name":"value","type":"uint256","indexed":false,"internalType":"uint256"}],"anonymous":false},{"type":"event","name":"Transfer","inputs":[{"name":"from","type":"address","indexed":true,"internalType":"address"},{"name":"to","type":"address","indexed":true,"internalType":"address"},{"name":"value","type":"uint256","indexed":false,"internalType":"uint256"}],"anonymous":false},{"type":"error","name":"ERC20InsufficientAllowance","inputs":[{"name":"spender","type":"address","internalType":"address"},{"name":"allowance","type":"uint256","internalType":"uint256"},{"name":"needed","type":"uint256","internalType":"uint256"}]},{"type":"error","name":"ERC20InsufficientBalance","inputs":[{"name":"sender","type":"address","internalType":"address"},{"name":"balance","type":"uint256","internalType":"uint256"},{"name":"needed","type":"uint256","internalType":"uint256"}]},{"type":"error","name":"ERC20InvalidApprover","inputs":[{"name":"approver","type":"address","internalType":"address"}]},{"type":"error","name":"ERC20InvalidReceiver","inputs":[{"name":"receiver","type":"address","internalType":"address"}]},{"type":"error","name":"ERC20InvalidSender","inputs":[{"name":"sender","type":"address","internalType":"address"}]},{"type":"error","name":"ERC20InvalidSpender","inputs":[{"name":"spender","type":"address","internalType":"address"}]}],"bytecode":{"object":"0x6080604052346103af57610bf280380380610019816103b3565b9283398101906080818303126103af5780516001600160401b0381116103af57826100459183016103d8565b602082015190926001600160401b0382116103af576100659183016103d8565b604082015190916001600160a01b038216918290036103af576060015183516001600160401b0381116102c057600354600181811c911680156103a5575b60208210146102a257601f8111610342575b50602094601f82116001146102df579481929394955f926102d4575b50508160011b915f199060031b1c1916176003555b82516001600160401b0381116102c057600454600181811c911680156102b6575b60208210146102a257601f811161023f575b506020601f82116001146101dc57819293945f926101d1575b50508160011b915f199060031b1c1916176004555b81156101be57600254908082018092116101aa5760207fddf252ad1be2c89b69c2b068fc378daa952ba7f163c4a11628f55a4df523b3ef915f9360025584845283825260408420818154019055604051908152a36040516107c8908161042a8239f35b634e487b7160e01b5f52601160045260245ffd5b63ec442f0560e01b5f525f60045260245ffd5b015190505f80610132565b601f1982169060045f52805f20915f5b8181106102275750958360019596971061020f575b505050811b01600455610147565b01515f1960f88460031b161c191690555f8080610201565b9192602060018192868b0151815501940192016101ec565b60045f527f8a35acfbc15ff81a39ae7d344fd709f28e8600b4aa8c65c6b64bfe7fe36bd19b601f830160051c81019160208410610298575b601f0160051c01905b81811061028d5750610119565b5f8155600101610280565b9091508190610277565b634e487b7160e01b5f52602260045260245ffd5b90607f1690610107565b634e487b7160e01b5f52604160045260245ffd5b015190505f806100d1565b601f1982169560035f52805f20915f5b88811061032a57508360019596979810610312575b505050811b016003556100e6565b01515f1960f88460031b161c191690555f8080610304565b919260206001819286850151815501940192016102ef565b60035f527fc2575a0e9e593c00f959f8c92f12db2869c3395a3b0502d05e2516446f71f85b601f830160051c8101916020841061039b575b601f0160051c01905b81811061039057506100b5565b5f8155600101610383565b909150819061037a565b90607f16906100a3565b5f80fd5b6040519190601f01601f191682016001600160401b038111838210176102c057604052565b81601f820112156103af578051906001600160401b0382116102c057610407601f8301601f19166020016103b3565b92828452602083830101116103af57815f9260208093018386015e830101529056fe6080806040526004361015610012575f80fd5b5f3560e01c90816306fdde031461058c57508063095ea7b31461050a57806318160ddd146104ed57806323b872dd1461040e578063313ce567146103f357806347e7ef241461037b57806370a082311461034457806395d89b4114610240578063a9059cbb1461020f578063dd62ed3e146101bf5763f3fef3a314610095575f80fd5b346101bb5760403660031901126101bb576100ae61066e565b60405163a9059cbb60e01b81523360048201526024803590820181905291602090829060449082905f906001600160a01b03165af180156101b057610183575b5060698102908082046069149015171561015c576064900433156101705760025481810180911161015c57600255335f525f60205260405f208181540190556040519081525f7fddf252ad1be2c89b69c2b068fc378daa952ba7f163c4a11628f55a4df523b3ef60203393a3005b634e487b7160e01b5f52601160045260245ffd5b63ec442f0560e01b5f525f60045260245ffd5b6101a49060203d6020116101a9575b61019c818361069a565b8101906106d0565b6100ee565b503d610192565b6040513d5f823e3d90fd5b5f80fd5b346101bb5760403660031901126101bb576101d861066e565b6101e0610684565b6001600160a01b039182165f908152600160209081526040808320949093168252928352819020549051908152f35b346101bb5760403660031901126101bb5761023561022b61066e565b60243590336106e8565b602060405160018152f35b346101bb575f3660031901126101bb576040515f6004548060011c9060018116801561033a575b6020831081146103265782855290811561030257506001146102a4575b6102a0836102948185038261069a565b60405191829182610644565b0390f35b91905060045f527f8a35acfbc15ff81a39ae7d344fd709f28e8600b4aa8c65c6b64bfe7fe36bd19b915f905b8082106102e857509091508101602001610294610284565b9192600181602092548385880101520191019092916102d0565b60ff191660208086019190915291151560051b840190910191506102949050610284565b634e487b7160e01b5f52602260045260245ffd5b91607f1691610267565b346101bb5760203660031901126101bb576001600160a01b0361036561066e565b165f525f602052602060405f2054604051908152f35b346101bb5760403660031901126101bb575f602061039761066e565b6040516323b872dd60e01b81523360048201523060248083019190915235604482015292839160649183916001600160a01b03165af180156101b0576103d957005b6103f19060203d6020116101a95761019c818361069a565b005b346101bb575f3660031901126101bb57602060405160128152f35b346101bb5760603660031901126101bb5761042761066e565b61042f610684565b6001600160a01b0382165f818152600160209081526040808320338452909152902054909260443592915f19811061046d575b5061023593506106e8565b8381106104d25784156104bf5733156104ac57610235945f52600160205260405f2060018060a01b0333165f526020528360405f209103905584610462565b634a1406b160e11b5f525f60045260245ffd5b63e602df0560e01b5f525f60045260245ffd5b8390637dc7a0d960e11b5f523360045260245260445260645ffd5b346101bb575f3660031901126101bb576020600254604051908152f35b346101bb5760403660031901126101bb5761052361066e565b6024359033156104bf576001600160a01b03169081156104ac57335f52600160205260405f20825f526020528060405f20556040519081527f8c5be1e5ebec7d5bd14f71427d1e84f3dd0314c0f7b2291e5b200ac8c7c3b92560203392a3602060405160018152f35b346101bb575f3660031901126101bb575f6003548060011c9060018116801561063a575b6020831081146103265782855290811561030257506001146105dc576102a0836102948185038261069a565b91905060035f527fc2575a0e9e593c00f959f8c92f12db2869c3395a3b0502d05e2516446f71f85b915f905b80821061062057509091508101602001610294610284565b919260018160209254838588010152019101909291610608565b91607f16916105b0565b602060409281835280519182918282860152018484015e5f828201840152601f01601f1916010190565b600435906001600160a01b03821682036101bb57565b602435906001600160a01b03821682036101bb57565b90601f8019910116810190811067ffffffffffffffff8211176106bc57604052565b634e487b7160e01b5f52604160045260245ffd5b908160209103126101bb575180151581036101bb5790565b6001600160a01b031690811561077f576001600160a01b031691821561017057815f525f60205260405f205481811061076657817fddf252ad1be2c89b69c2b068fc378daa952ba7f163c4a11628f55a4df523b3ef92602092855f525f84520360405f2055845f525f825260405f20818154019055604051908152a3565b8263391434e360e21b5f5260045260245260445260645ffd5b634b637e8f60e11b5f525f60045260245ffdfea264697066735822122047540f5eb284d2c6252889fb03d5dc1a788256ab7880bfd17a217dd6023a21f364736f6c634300081c0033","linkReferences":{}},"methodIdentifiers":{"allowance(address,address)":"dd62ed3e","approve(address,uint256)":"095ea7b3","balanceOf(address)":"70a08231","decimals()":"313ce567","deposit(address,uint256)":"47e7ef24","name()":"06fdde03","symbol()":"95d89b41","totalSupply()":"18160ddd","transfer(address,uint256)":"a9059cbb","transferFrom(address,address,uint256)":"23b872dd","withdraw(address,uint256)":"f3fef3a3"},"id":3}