{
  "address": "0x5e6207091accF550686900BF8a308df3eF46193b",
  "abi": [
    {
      "inputs": [
        {
          "internalType": "address",
          "name": "_endpoint",
          "type": "address"
        },
        {
          "internalType": "address",
          "name": "_delegate",
          "type": "address"
        }
      ],
      "stateMutability": "nonpayable",
      "type": "constructor"
    },
    {
      "inputs": [],
      "name": "InvalidDelegate",
      "type": "error"
    },
    {
      "inputs": [],
      "name": "InvalidEndpointCall",
      "type": "error"
    },
    {
      "inputs": [
        {
          "internalType": "bytes",
          "name": "options",
          "type": "bytes"
        }
      ],
      "name": "InvalidOptions",
      "type": "error"
    },
    {
      "inputs": [],
      "name": "LzTokenUnavailable",
      "type": "error"
    },
    {
      "inputs": [
        {
          "internalType": "uint32",
          "name": "eid",
          "type": "uint32"
        }
      ],
      "name": "NoPeer",
      "type": "error"
    },
    {
      "inputs": [
        {
          "internalType": "uint256",
          "name": "msgValue",
          "type": "uint256"
        }
      ],
      "name": "NotEnoughNative",
      "type": "error"
    },
    {
      "inputs": [
        {
          "internalType": "address",
          "name": "addr",
          "type": "address"
        }
      ],
      "name": "OnlyEndpoint",
      "type": "error"
    },
    {
      "inputs": [
        {
          "internalType": "uint32",
          "name": "eid",
          "type": "uint32"
        },
        {
          "internalType": "bytes32",
          "name": "sender",
          "type": "bytes32"
        }
      ],
      "name": "OnlyPeer",
      "type": "error"
    },
    {
      "inputs": [
        {
          "internalType": "address",
          "name": "owner",
          "type": "address"
        }
      ],
      "name": "OwnableInvalidOwner",
      "type": "error"
    },
    {
      "inputs": [
        {
          "internalType": "address",
          "name": "account",
          "type": "address"
        }
      ],
      "name": "OwnableUnauthorizedAccount",
      "type": "error"
    },
    {
      "inputs": [
        {
          "internalType": "address",
          "name": "token",
          "type": "address"
        }
      ],
      "name": "SafeERC20FailedOperation",
      "type": "error"
    },
    {
      "anonymous": false,
      "inputs": [
        {
          "components": [
            {
              "internalType": "uint32",
              "name": "eid",
              "type": "uint32"
            },
            {
              "internalType": "uint16",
              "name": "msgType",
              "type": "uint16"
            },
            {
              "internalType": "bytes",
              "name": "options",
              "type": "bytes"
            }
          ],
          "indexed": false,
          "internalType": "struct EnforcedOptionParam[]",
          "name": "_enforcedOptions",
          "type": "tuple[]"
        }
      ],
      "name": "EnforcedOptionSet",
      "type": "event"
    },
    {
      "anonymous": false,
      "inputs": [
        {
          "indexed": true,
          "internalType": "address",
          "name": "previousOwner",
          "type": "address"
        },
        {
          "indexed": true,
          "internalType": "address",
          "name": "newOwner",
          "type": "address"
        }
      ],
      "name": "OwnershipTransferred",
      "type": "event"
    },
    {
      "anonymous": false,
      "inputs": [
        {
          "indexed": false,
          "internalType": "uint32",
          "name": "eid",
          "type": "uint32"
        },
        {
          "indexed": false,
          "internalType": "bytes32",
          "name": "peer",
          "type": "bytes32"
        }
      ],
      "name": "PeerSet",
      "type": "event"
    },
    {
      "inputs": [
        {
          "components": [
            {
              "internalType": "uint32",
              "name": "srcEid",
              "type": "uint32"
            },
            {
              "internalType": "bytes32",
              "name": "sender",
              "type": "bytes32"
            },
            {
              "internalType": "uint64",
              "name": "nonce",
              "type": "uint64"
            }
          ],
          "internalType": "struct Origin",
          "name": "origin",
          "type": "tuple"
        }
      ],
      "name": "allowInitializePath",
      "outputs": [
        {
          "internalType": "bool",
          "name": "",
          "type": "bool"
        }
      ],
      "stateMutability": "view",
      "type": "function"
    },
    {
      "inputs": [
        {
          "internalType": "uint32",
          "name": "_eid",
          "type": "uint32"
        },
        {
          "internalType": "uint16",
          "name": "_msgType",
          "type": "uint16"
        },
        {
          "internalType": "bytes",
          "name": "_extraOptions",
          "type": "bytes"
        }
      ],
      "name": "combineOptions",
      "outputs": [
        {
          "internalType": "bytes",
          "name": "",
          "type": "bytes"
        }
      ],
      "stateMutability": "view",
      "type": "function"
    },
    {
      "inputs": [],
      "name": "data",
      "outputs": [
        {
          "internalType": "string",
          "name": "",
          "type": "string"
        }
      ],
      "stateMutability": "view",
      "type": "function"
    },
    {
      "inputs": [],
      "name": "endpoint",
      "outputs": [
        {
          "internalType": "contract ILayerZeroEndpointV2",
          "name": "",
          "type": "address"
        }
      ],
      "stateMutability": "view",
      "type": "function"
    },
    {
      "inputs": [
        {
          "internalType": "uint32",
          "name": "eid",
          "type": "uint32"
        },
        {
          "internalType": "uint16",
          "name": "msgType",
          "type": "uint16"
        }
      ],
      "name": "enforcedOptions",
      "outputs": [
        {
          "internalType": "bytes",
          "name": "enforcedOption",
          "type": "bytes"
        }
      ],
      "stateMutability": "view",
      "type": "function"
    },
    {
      "inputs": [
        {
          "components": [
            {
              "internalType": "uint32",
              "name": "srcEid",
              "type": "uint32"
            },
            {
              "internalType": "bytes32",
              "name": "sender",
              "type": "bytes32"
            },
            {
              "internalType": "uint64",
              "name": "nonce",
              "type": "uint64"
            }
          ],
          "internalType": "struct Origin",
          "name": "",
          "type": "tuple"
        },
        {
          "internalType": "bytes",
          "name": "",
          "type": "bytes"
        },
        {
          "internalType": "address",
          "name": "_sender",
          "type": "address"
        }
      ],
      "name": "isComposeMsgSender",
      "outputs": [
        {
          "internalType": "bool",
          "name": "",
          "type": "bool"
        }
      ],
      "stateMutability": "view",
      "type": "function"
    },
    {
      "inputs": [
        {
          "components": [
            {
              "internalType": "uint32",
              "name": "srcEid",
              "type": "uint32"
            },
            {
              "internalType": "bytes32",
              "name": "sender",
              "type": "bytes32"
            },
            {
              "internalType": "uint64",
              "name": "nonce",
              "type": "uint64"
            }
          ],
          "internalType": "struct Origin",
          "name": "_origin",
          "type": "tuple"
        },
        {
          "internalType": "bytes32",
          "name": "_guid",
          "type": "bytes32"
        },
        {
          "internalType": "bytes",
          "name": "_message",
          "type": "bytes"
        },
        {
          "internalType": "address",
          "name": "_executor",
          "type": "address"
        },
        {
          "internalType": "bytes",
          "name": "_extraData",
          "type": "bytes"
        }
      ],
      "name": "lzReceive",
      "outputs": [],
      "stateMutability": "payable",
      "type": "function"
    },
    {
      "inputs": [
        {
          "internalType": "uint32",
          "name": "",
          "type": "uint32"
        },
        {
          "internalType": "bytes32",
          "name": "",
          "type": "bytes32"
        }
      ],
      "name": "nextNonce",
      "outputs": [
        {
          "internalType": "uint64",
          "name": "nonce",
          "type": "uint64"
        }
      ],
      "stateMutability": "view",
      "type": "function"
    },
    {
      "inputs": [],
      "name": "oAppVersion",
      "outputs": [
        {
          "internalType": "uint64",
          "name": "senderVersion",
          "type": "uint64"
        },
        {
          "internalType": "uint64",
          "name": "receiverVersion",
          "type": "uint64"
        }
      ],
      "stateMutability": "pure",
      "type": "function"
    },
    {
      "inputs": [],
      "name": "owner",
      "outputs": [
        {
          "internalType": "address",
          "name": "",
          "type": "address"
        }
      ],
      "stateMutability": "view",
      "type": "function"
    },
    {
      "inputs": [
        {
          "internalType": "uint32",
          "name": "eid",
          "type": "uint32"
        }
      ],
      "name": "peers",
      "outputs": [
        {
          "internalType": "bytes32",
          "name": "peer",
          "type": "bytes32"
        }
      ],
      "stateMutability": "view",
      "type": "function"
    },
    {
      "inputs": [
        {
          "internalType": "uint32",
          "name": "_dstEid",
          "type": "uint32"
        },
        {
          "internalType": "string",
          "name": "_message",
          "type": "string"
        },
        {
          "internalType": "bytes",
          "name": "_options",
          "type": "bytes"
        },
        {
          "internalType": "bool",
          "name": "_payInLzToken",
          "type": "bool"
        }
      ],
      "name": "quote",
      "outputs": [
        {
          "components": [
            {
              "internalType": "uint256",
              "name": "nativeFee",
              "type": "uint256"
            },
            {
              "internalType": "uint256",
              "name": "lzTokenFee",
              "type": "uint256"
            }
          ],
          "internalType": "struct MessagingFee",
          "name": "fee",
          "type": "tuple"
        }
      ],
      "stateMutability": "view",
      "type": "function"
    },
    {
      "inputs": [],
      "name": "renounceOwnership",
      "outputs": [],
      "stateMutability": "nonpayable",
      "type": "function"
    },
    {
      "inputs": [
        {
          "internalType": "uint32",
          "name": "_dstEid",
          "type": "uint32"
        },
        {
          "internalType": "string",
          "name": "_message",
          "type": "string"
        },
        {
          "internalType": "bytes",
          "name": "_options",
          "type": "bytes"
        }
      ],
      "name": "send",
      "outputs": [
        {
          "components": [
            {
              "internalType": "bytes32",
              "name": "guid",
              "type": "bytes32"
            },
            {
              "internalType": "uint64",
              "name": "nonce",
              "type": "uint64"
            },
            {
              "components": [
                {
                  "internalType": "uint256",
                  "name": "nativeFee",
                  "type": "uint256"
                },
                {
                  "internalType": "uint256",
                  "name": "lzTokenFee",
                  "type": "uint256"
                }
              ],
              "internalType": "struct MessagingFee",
              "name": "fee",
              "type": "tuple"
            }
          ],
          "internalType": "struct MessagingReceipt",
          "name": "receipt",
          "type": "tuple"
        }
      ],
      "stateMutability": "payable",
      "type": "function"
    },
    {
      "inputs": [
        {
          "internalType": "address",
          "name": "_delegate",
          "type": "address"
        }
      ],
      "name": "setDelegate",
      "outputs": [],
      "stateMutability": "nonpayable",
      "type": "function"
    },
    {
      "inputs": [
        {
          "components": [
            {
              "internalType": "uint32",
              "name": "eid",
              "type": "uint32"
            },
            {
              "internalType": "uint16",
              "name": "msgType",
              "type": "uint16"
            },
            {
              "internalType": "bytes",
              "name": "options",
              "type": "bytes"
            }
          ],
          "internalType": "struct EnforcedOptionParam[]",
          "name": "_enforcedOptions",
          "type": "tuple[]"
        }
      ],
      "name": "setEnforcedOptions",
      "outputs": [],
      "stateMutability": "nonpayable",
      "type": "function"
    },
    {
      "inputs": [
        {
          "internalType": "uint32",
          "name": "_eid",
          "type": "uint32"
        },
        {
          "internalType": "bytes32",
          "name": "_peer",
          "type": "bytes32"
        }
      ],
      "name": "setPeer",
      "outputs": [],
      "stateMutability": "nonpayable",
      "type": "function"
    },
    {
      "inputs": [
        {
          "internalType": "address",
          "name": "newOwner",
          "type": "address"
        }
      ],
      "name": "transferOwnership",
      "outputs": [],
      "stateMutability": "nonpayable",
      "type": "function"
    }
  ],
  "transactionHash": "0x1f92a7f51d1e1643da9e9429d01b5a4de7c56426b68373621289ba03a47cd32a",
  "args": [
    "0x6EDCE65403992e310A62460808c4b910D972f10f",
    "0x859393229a3f4D00120Ffb004e46CA4D7147245A"
  ],
  "numDeployments": 1,
  "solcInputHash": "57c2250f418c764b26e2405d11574630",
  "bytecode": "0x60e0604052601560a09081527f4e6f7468696e67207265636569766564207965742e000000000000000000000060c0526003906200003e908262000241565b503480156200004c57600080fd5b5060405162001dc838038062001dc88339810160408190526200006f916200032a565b81818181806001600160a01b038116620000a357604051631e4fbdf760e01b81526000600482015260240160405180910390fd5b620000ae816200014a565b506001600160a01b038083166080528116620000dd57604051632d618d8160e21b815260040160405180910390fd5b60805160405163ca5eb5e160e01b81526001600160a01b0383811660048301529091169063ca5eb5e190602401600060405180830381600087803b1580156200012557600080fd5b505af11580156200013a573d6000803e3d6000fd5b5050505050505050505062000362565b600080546001600160a01b038381166001600160a01b0319831681178455604051919092169283917f8be0079c531659141344cd1fd0a4f28419497f9722a3daafe3b4186f6b6457e09190a35050565b634e487b7160e01b600052604160045260246000fd5b600181811c90821680620001c557607f821691505b602082108103620001e657634e487b7160e01b600052602260045260246000fd5b50919050565b601f8211156200023c576000816000526020600020601f850160051c81016020861015620002175750805b601f850160051c820191505b81811015620002385782815560010162000223565b5050505b505050565b81516001600160401b038111156200025d576200025d6200019a565b62000275816200026e8454620001b0565b84620001ec565b602080601f831160018114620002ad5760008415620002945750858301515b600019600386901b1c1916600185901b17855562000238565b600085815260208120601f198616915b82811015620002de57888601518255948401946001909101908401620002bd565b5085821015620002fd5787850151600019600388901b60f8161c191681555b5050505050600190811b01905550565b80516001600160a01b03811681146200032557600080fd5b919050565b600080604083850312156200033e57600080fd5b62000349836200030d565b915062000359602084016200030d565b90509250929050565b608051611a20620003a8600039600081816101a9015281816103bd0152818161075e01528181610ba001528181610c8e01528181610d850152610e3c0152611a206000f3fe6080604052600436106101095760003560e01c80638da5cb5b11610095578063ca5eb5e111610064578063ca5eb5e11461030e578063e0539e581461032e578063f2fde38b1461034e578063f77e5dd31461036e578063ff7bd03d1461039b57600080fd5b80638da5cb5b14610275578063b98bd07014610293578063bb0b6a53146102b3578063bc70b354146102ee57600080fd5b80635e280f11116100dc5780635e280f1114610197578063715018a6146101e357806373d4a13a146101f85780637d25a05e1461020d57806382413eac1461024557600080fd5b806313137d651461010e57806317442b70146101235780633400288b1461014a5780635535d4611461016a575b600080fd5b61012161011c366004610fe6565b6103bb565b005b34801561012f57600080fd5b50604080516001815260026020820152015b60405180910390f35b34801561015657600080fd5b5061012161016536600461109e565b61047b565b34801561017657600080fd5b5061018a6101853660046110da565b610491565b604051610141919061115d565b3480156101a357600080fd5b506101cb7f000000000000000000000000000000000000000000000000000000000000000081565b6040516001600160a01b039091168152602001610141565b3480156101ef57600080fd5b50610121610536565b34801561020457600080fd5b5061018a61054a565b34801561021957600080fd5b5061022d61022836600461109e565b610557565b6040516001600160401b039091168152602001610141565b34801561025157600080fd5b50610265610260366004611177565b610560565b6040519015158152602001610141565b34801561028157600080fd5b506000546001600160a01b03166101cb565b34801561029f57600080fd5b506101216102ae3660046111dd565b610575565b3480156102bf57600080fd5b506102e06102ce366004611251565b60016020526000908152604090205481565b604051908152602001610141565b3480156102fa57600080fd5b5061018a61030936600461126c565b61058f565b34801561031a57600080fd5b506101216103293660046112cc565b610737565b61034161033c3660046113c6565b6107bd565b6040516101419190611430565b34801561035a57600080fd5b506101216103693660046112cc565b610846565b34801561037a57600080fd5b5061038e610389366004611472565b610884565b60405161014191906114f2565b3480156103a757600080fd5b506102656103b6366004611509565b6108c8565b7f00000000000000000000000000000000000000000000000000000000000000006001600160a01b0316331461040b576040516391ac5e4f60e01b81523360048201526024015b60405180910390fd5b6020870180359061042590610420908a611251565b6108fe565b14610463576104376020880188611251565b60405163309afaf360e21b815263ffffffff909116600482015260208801356024820152604401610402565b6104728787878787878761093a565b50505050505050565b61048361095d565b61048d828261098a565b5050565b6002602090815260009283526040808420909152908252902080546104b590611525565b80601f01602080910402602001604051908101604052809291908181526020018280546104e190611525565b801561052e5780601f106105035761010080835404028352916020019161052e565b820191906000526020600020905b81548152906001019060200180831161051157829003601f168201915b505050505081565b61053e61095d565b61054860006109df565b565b600380546104b590611525565b60005b92915050565b6001600160a01b03811630145b949350505050565b61057d61095d565b61048d61058a8284611559565b610a2f565b63ffffffff8416600090815260026020908152604080832061ffff871684529091528120805460609291906105c390611525565b80601f01602080910402602001604051908101604052809291908181526020018280546105ef90611525565b801561063c5780601f106106115761010080835404028352916020019161063c565b820191906000526020600020905b81548152906001019060200180831161061f57829003601f168201915b50505050509050805160000361068c5783838080601f01602080910402602001604051908101604052809392919081815260200183838082843760009201919091525092945061056d9350505050565b600083900361069c57905061056d565b6002831061071a576106e384848080601f016020809104026020016040519081016040528093929190818152602001838380828437600092019190915250610b4192505050565b806106f1846002818861162e565b60405160200161070393929190611658565b60405160208183030381529060405291505061056d565b8383604051639a6d49cd60e01b8152600401610402929190611680565b61073f61095d565b60405163ca5eb5e160e01b81526001600160a01b0382811660048301527f0000000000000000000000000000000000000000000000000000000000000000169063ca5eb5e190602401600060405180830381600087803b1580156107a257600080fd5b505af11580156107b6573d6000803e3d6000fd5b5050505050565b6107c5610f2a565b6000846040516020016107d8919061115d565b60408051601f198184030181526020601f8701819004810284018101909252858352925061083c918891849190889088908190840183828082843760009201829052506040805180820190915234815260208101919091529250339150610b6d9050565b9695505050505050565b61084e61095d565b6001600160a01b03811661087857604051631e4fbdf760e01b815260006004820152602401610402565b610881816109df565b50565b60408051808201909152600080825260208201526000846040516020016108ab919061115d565b604051602081830303815290604052905061083c86828686610c78565b60006020820180359060019083906108e09086611251565b63ffffffff1681526020810191909152604001600020541492915050565b63ffffffff81166000908152600160205260408120548061055a5760405163f6ff4fb760e01b815263ffffffff84166004820152602401610402565b610946848601866116af565b6003906109539082611734565b5050505050505050565b6000546001600160a01b031633146105485760405163118cdaa760e01b8152336004820152602401610402565b63ffffffff8216600081815260016020908152604091829020849055815192835282018390527f238399d427b947898edb290f5ff0f9109849b1c3ba196a42e35f00c50a54b98b910160405180910390a15050565b600080546001600160a01b038381166001600160a01b0319831681178455604051919092169283917f8be0079c531659141344cd1fd0a4f28419497f9722a3daafe3b4186f6b6457e09190a35050565b60005b8151811015610b0657610a61828281518110610a5057610a506117f3565b602002602001015160400151610b41565b818181518110610a7357610a736117f3565b60200260200101516040015160026000848481518110610a9557610a956117f3565b60200260200101516000015163ffffffff1663ffffffff1681526020019081526020016000206000848481518110610acf57610acf6117f3565b60200260200101516020015161ffff1661ffff1681526020019081526020016000209081610afd9190611734565b50600101610a32565b507fbe4864a8e820971c0247f5992e2da559595f7bf076a21cb5928d443d2a13b67481604051610b369190611809565b60405180910390a150565b600281015161ffff811660031461048d5781604051639a6d49cd60e01b8152600401610402919061115d565b610b75610f2a565b6000610b848460000151610d59565b602085015190915015610b9e57610b9e8460200151610d81565b7f00000000000000000000000000000000000000000000000000000000000000006001600160a01b0316632637a450826040518060a001604052808b63ffffffff168152602001610bee8c6108fe565b81526020018a815260200189815260200160008960200151111515815250866040518463ffffffff1660e01b8152600401610c2a929190611894565b60806040518083038185885af1158015610c48573d6000803e3d6000fd5b50505050506040513d601f19601f82011682018060405250810190610c6d919061195b565b979650505050505050565b60408051808201909152600080825260208201527f00000000000000000000000000000000000000000000000000000000000000006001600160a01b031663ddc28c586040518060a001604052808863ffffffff168152602001610cdb896108fe565b8152602001878152602001868152602001851515815250306040518363ffffffff1660e01b8152600401610d10929190611894565b6040805180830381865afa158015610d2c573d6000803e3d6000fd5b505050506040513d601f19601f82011682018060405250810190610d5091906119b1565b95945050505050565b6000813414610d7d576040516304fb820960e51b8152346004820152602401610402565b5090565b60007f00000000000000000000000000000000000000000000000000000000000000006001600160a01b031663e4fe1d946040518163ffffffff1660e01b8152600401602060405180830381865afa158015610de1573d6000803e3d6000fd5b505050506040513d601f19601f82011682018060405250810190610e0591906119cd565b90506001600160a01b038116610e2e576040516329b99a9560e11b815260040160405180910390fd5b6040805133602482018190527f00000000000000000000000000000000000000000000000000000000000000006001600160a01b03818116604485015260648085018890528551808603909101815260849094019094526020830180516001600160e01b03166323b872dd60e01b17905261048d938516928690610eb3908590610eb9565b50505050565b600080602060008451602086016000885af180610edc576040513d6000823e3d81fd5b50506000513d91508115610ef4578060011415610f01565b6001600160a01b0384163b155b15610eb357604051635274afe760e01b81526001600160a01b0385166004820152602401610402565b60405180606001604052806000801916815260200160006001600160401b03168152602001610f6c604051806040016040528060008152602001600081525090565b905290565b600060608284031215610f8357600080fd5b50919050565b60008083601f840112610f9b57600080fd5b5081356001600160401b03811115610fb257600080fd5b602083019150836020828501011115610fca57600080fd5b9250929050565b6001600160a01b038116811461088157600080fd5b600080600080600080600060e0888a03121561100157600080fd5b61100b8989610f71565b96506060880135955060808801356001600160401b038082111561102e57600080fd5b61103a8b838c01610f89565b909750955060a08a0135915061104f82610fd1565b90935060c0890135908082111561106557600080fd5b506110728a828b01610f89565b989b979a50959850939692959293505050565b803563ffffffff8116811461109957600080fd5b919050565b600080604083850312156110b157600080fd5b6110ba83611085565b946020939093013593505050565b803561ffff8116811461109957600080fd5b600080604083850312156110ed57600080fd5b6110f683611085565b9150611104602084016110c8565b90509250929050565b60005b83811015611128578181015183820152602001611110565b50506000910152565b6000815180845261114981602086016020860161110d565b601f01601f19169290920160200192915050565b6020815260006111706020830184611131565b9392505050565b60008060008060a0858703121561118d57600080fd5b6111978686610f71565b935060608501356001600160401b038111156111b257600080fd5b6111be87828801610f89565b90945092505060808501356111d281610fd1565b939692955090935050565b600080602083850312156111f057600080fd5b82356001600160401b038082111561120757600080fd5b818501915085601f83011261121b57600080fd5b81358181111561122a57600080fd5b8660208260051b850101111561123f57600080fd5b60209290920196919550909350505050565b60006020828403121561126357600080fd5b61117082611085565b6000806000806060858703121561128257600080fd5b61128b85611085565b9350611299602086016110c8565b925060408501356001600160401b038111156112b457600080fd5b6112c087828801610f89565b95989497509550505050565b6000602082840312156112de57600080fd5b813561117081610fd1565b634e487b7160e01b600052604160045260246000fd5b604051606081016001600160401b0381118282101715611321576113216112e9565b60405290565b604051601f8201601f191681016001600160401b038111828210171561134f5761134f6112e9565b604052919050565b600082601f83011261136857600080fd5b81356001600160401b03811115611381576113816112e9565b611394601f8201601f1916602001611327565b8181528460208386010111156113a957600080fd5b816020850160208301376000918101602001919091529392505050565b600080600080606085870312156113dc57600080fd5b6113e585611085565b935060208501356001600160401b038082111561140157600080fd5b61140d88838901611357565b9450604087013591508082111561142357600080fd5b506112c087828801610f89565b6000608082019050825182526001600160401b036020840151166020830152604083015161146b604084018280518252602090810151910152565b5092915050565b6000806000806080858703121561148857600080fd5b61149185611085565b935060208501356001600160401b03808211156114ad57600080fd5b6114b988838901611357565b945060408701359150808211156114cf57600080fd5b506114dc87828801611357565b925050606085013580151581146111d257600080fd5b81518152602080830151908201526040810161055a565b60006060828403121561151b57600080fd5b6111708383610f71565b600181811c9082168061153957607f821691505b602082108103610f8357634e487b7160e01b600052602260045260246000fd5b60006001600160401b0380841115611573576115736112e9565b8360051b6020611584818301611327565b86815291850191818101903684111561159c57600080fd5b865b84811015611622578035868111156115b65760008081fd5b880160603682900312156115ca5760008081fd5b6115d26112ff565b6115db82611085565b81526115e88683016110c8565b86820152604080830135898111156116005760008081fd5b61160c36828601611357565b918301919091525084525091830191830161159e565b50979650505050505050565b6000808585111561163e57600080fd5b8386111561164b57600080fd5b5050820193919092039150565b6000845161166a81846020890161110d565b8201838582376000930192835250909392505050565b60208152816020820152818360408301376000818301604090810191909152601f909201601f19160101919050565b6000602082840312156116c157600080fd5b81356001600160401b038111156116d757600080fd5b61056d84828501611357565b601f82111561172f576000816000526020600020601f850160051c8101602086101561170c5750805b601f850160051c820191505b8181101561172b57828155600101611718565b5050505b505050565b81516001600160401b0381111561174d5761174d6112e9565b6117618161175b8454611525565b846116e3565b602080601f831160018114611796576000841561177e5750858301515b600019600386901b1c1916600185901b17855561172b565b600085815260208120601f198616915b828110156117c5578886015182559484019460019091019084016117a6565b50858210156117e35787850151600019600388901b60f8161c191681555b5050505050600190811b01905550565b634e487b7160e01b600052603260045260246000fd5b600060208083018184528085518083526040925060408601915060408160051b87010184880160005b8381101561188657888303603f190185528151805163ffffffff1684528781015161ffff1688850152860151606087850181905261187281860183611131565b968901969450505090860190600101611832565b509098975050505050505050565b6040815263ffffffff8351166040820152602083015160608201526000604084015160a060808401526118ca60e0840182611131565b90506060850151603f198483030160a08501526118e78282611131565b60809690960151151560c08501525050506001600160a01b039190911660209091015290565b60006040828403121561191f57600080fd5b604051604081018181106001600160401b0382111715611941576119416112e9565b604052825181526020928301519281019290925250919050565b60006080828403121561196d57600080fd5b6119756112ff565b8251815260208301516001600160401b038116811461199357600080fd5b60208201526119a5846040850161190d565b60408201529392505050565b6000604082840312156119c357600080fd5b611170838361190d565b6000602082840312156119df57600080fd5b815161117081610fd156fea2646970667358221220095778028d390e8e565aca78008a269cb43528979e745032b36ed3e2cf6a17dd64736f6c63430008160033",
  "devdoc": {
    "errors": {
      "OwnableInvalidOwner(address)": [
        {
          "details": "The owner is not a valid owner account. (eg. `address(0)`)"
        }
      ],
      "OwnableUnauthorizedAccount(address)": [
        {
          "details": "The caller account is not authorized to perform an operation."
        }
      ],
      "SafeERC20FailedOperation(address)": [
        {
          "details": "An operation with an ERC-20 token failed."
        }
      ]
    },
    "kind": "dev",
    "methods": {
      "allowInitializePath((uint32,bytes32,uint64))": {
        "details": "This indicates to the endpoint that the OApp has enabled msgs for this particular path to be received.This defaults to assuming if a peer has been set, its initialized. Can be overridden by the OApp if there is other logic to determine this.",
        "params": {
          "origin": "The origin information containing the source endpoint and sender address."
        },
        "returns": {
          "_0": "Whether the path has been initialized."
        }
      },
      "combineOptions(uint32,uint16,bytes)": {
        "details": "If there is an enforced lzReceive option: - {gasLimit: 200k, msg.value: 1 ether} AND a caller supplies a lzReceive option: {gasLimit: 100k, msg.value: 0.5 ether} - The resulting options will be {gasLimit: 300k, msg.value: 1.5 ether} when the message is executed on the remote lzReceive() function.This presence of duplicated options is handled off-chain in the verifier/executor.",
        "params": {
          "_eid": "The endpoint ID.",
          "_extraOptions": "Additional options passed by the caller.",
          "_msgType": "The OAPP message type."
        },
        "returns": {
          "_0": "options The combination of caller specified options AND enforced options."
        }
      },
      "isComposeMsgSender((uint32,bytes32,uint64),bytes,address)": {
        "details": "_origin The origin information containing the source endpoint and sender address.  - srcEid: The source chain endpoint ID.  - sender: The sender address on the src chain.  - nonce: The nonce of the message._message The lzReceive payload.Applications can optionally choose to implement separate composeMsg senders that are NOT the bridging layer.The default sender IS the OAppReceiver implementer.",
        "params": {
          "_sender": "The sender address."
        },
        "returns": {
          "_0": "isSender Is a valid sender."
        }
      },
      "lzReceive((uint32,bytes32,uint64),bytes32,bytes,address,bytes)": {
        "details": "Entry point for receiving messages or packets from the endpoint.Entry point for receiving msg/packet from the LayerZero endpoint.",
        "params": {
          "_executor": "The address of the executor for the received message.",
          "_extraData": "Additional arbitrary data provided by the corresponding executor.",
          "_guid": "The unique identifier for the received LayerZero message.",
          "_message": "The payload of the received message.",
          "_origin": "The origin information containing the source endpoint and sender address.  - srcEid: The source chain endpoint ID.  - sender: The sender address on the src chain.  - nonce: The nonce of the message."
        }
      },
      "nextNonce(uint32,bytes32)": {
        "details": "_srcEid The source endpoint ID._sender The sender address.The path nonce starts from 1. If 0 is returned it means that there is NO nonce ordered enforcement.Is required by the off-chain executor to determine the OApp expects msg execution is ordered.This is also enforced by the OApp.By default this is NOT enabled. ie. nextNonce is hardcoded to return 0.",
        "returns": {
          "nonce": "The next nonce."
        }
      },
      "oAppVersion()": {
        "returns": {
          "receiverVersion": "The version of the OAppReceiver.sol implementation.",
          "senderVersion": "The version of the OAppSender.sol implementation."
        }
      },
      "owner()": {
        "details": "Returns the address of the current owner."
      },
      "quote(uint32,string,bytes,bool)": {
        "params": {
          "_dstEid": "Destination chain's endpoint ID.",
          "_message": "The message.",
          "_options": "Message execution options (e.g., for sending gas to destination).",
          "_payInLzToken": "Whether to return fee in ZRO token."
        },
        "returns": {
          "fee": "A `MessagingFee` struct containing the calculated gas fee in either the native token or ZRO token."
        }
      },
      "renounceOwnership()": {
        "details": "Leaves the contract without owner. It will not be possible to call `onlyOwner` functions. Can only be called by the current owner. NOTE: Renouncing ownership will leave the contract without an owner, thereby disabling any functionality that is only available to the owner."
      },
      "send(uint32,string,bytes)": {
        "details": "Encodes the message as bytes and sends it using the `_lzSend` internal function.",
        "params": {
          "_dstEid": "The endpoint ID of the destination chain.",
          "_message": "The message string to be sent.",
          "_options": "Additional options for message execution."
        },
        "returns": {
          "receipt": "A `MessagingReceipt` struct containing details of the message sent."
        }
      },
      "setDelegate(address)": {
        "details": "Only the owner/admin of the OApp can call this function.Provides the ability for a delegate to set configs, on behalf of the OApp, directly on the Endpoint contract.",
        "params": {
          "_delegate": "The address of the delegate to be set."
        }
      },
      "setEnforcedOptions((uint32,uint16,bytes)[])": {
        "details": "Sets the enforced options for specific endpoint and message type combinations.Only the owner/admin of the OApp can call this function.Provides a way for the OApp to enforce things like paying for PreCrime, AND/OR minimum dst lzReceive gas amounts etc.These enforced options can vary as the potential options/execution on the remote may differ as per the msgType. eg. Amount of lzReceive() gas necessary to deliver a lzCompose() message adds overhead you dont want to pay if you are only making a standard LayerZero message ie. lzReceive() WITHOUT sendCompose().",
        "params": {
          "_enforcedOptions": "An array of EnforcedOptionParam structures specifying enforced options."
        }
      },
      "setPeer(uint32,bytes32)": {
        "details": "Only the owner/admin of the OApp can call this function.Indicates that the peer is trusted to send LayerZero messages to this OApp.Set this to bytes32(0) to remove the peer address.Peer is a bytes32 to accommodate non-evm chains.",
        "params": {
          "_eid": "The endpoint ID.",
          "_peer": "The address of the peer to be associated with the corresponding endpoint."
        }
      },
      "transferOwnership(address)": {
        "details": "Transfers ownership of the contract to a new account (`newOwner`). Can only be called by the current owner."
      }
    },
    "version": 1
  },
  "userdoc": {
    "kind": "user",
    "methods": {
      "allowInitializePath((uint32,bytes32,uint64))": {
        "notice": "Checks if the path initialization is allowed based on the provided origin."
      },
      "combineOptions(uint32,uint16,bytes)": {
        "notice": "Combines options for a given endpoint and message type."
      },
      "endpoint()": {
        "notice": "Retrieves the LayerZero endpoint associated with the OApp."
      },
      "isComposeMsgSender((uint32,bytes32,uint64),bytes,address)": {
        "notice": "Indicates whether an address is an approved composeMsg sender to the Endpoint."
      },
      "nextNonce(uint32,bytes32)": {
        "notice": "Retrieves the next nonce for a given source endpoint and sender address."
      },
      "oAppVersion()": {
        "notice": "Retrieves the OApp version information."
      },
      "peers(uint32)": {
        "notice": "Retrieves the peer (OApp) associated with a corresponding endpoint."
      },
      "quote(uint32,string,bytes,bool)": {
        "notice": "Quotes the gas needed to pay for the full omnichain transaction in native gas or ZRO token."
      },
      "send(uint32,string,bytes)": {
        "notice": "Sends a message from the source chain to a destination chain."
      },
      "setDelegate(address)": {
        "notice": "Sets the delegate address for the OApp."
      },
      "setPeer(uint32,bytes32)": {
        "notice": "Sets the peer address (OApp instance) for a corresponding endpoint."
      }
    },
    "version": 1
  },
  "storageLayout": {
    "storage": [
      {
        "astId": 1533,
        "contract": "contracts/MyOApp.sol:MyOApp",
        "label": "_owner",
        "offset": 0,
        "slot": "0",
        "type": "t_address"
      },
      {
        "astId": 785,
        "contract": "contracts/MyOApp.sol:MyOApp",
        "label": "peers",
        "offset": 0,
        "slot": "1",
        "type": "t_mapping(t_uint32,t_bytes32)"
      },
      {
        "astId": 1381,
        "contract": "contracts/MyOApp.sol:MyOApp",
        "label": "enforcedOptions",
        "offset": 0,
        "slot": "2",
        "type": "t_mapping(t_uint32,t_mapping(t_uint16,t_bytes_storage))"
      },
      {
        "astId": 2380,
        "contract": "contracts/MyOApp.sol:MyOApp",
        "label": "data",
        "offset": 0,
        "slot": "3",
        "type": "t_string_storage"
      }
    ],
    "types": {
      "t_address": {
        "encoding": "inplace",
        "label": "address",
        "numberOfBytes": "20"
      },
      "t_bytes32": {
        "encoding": "inplace",
        "label": "bytes32",
        "numberOfBytes": "32"
      },
      "t_bytes_storage": {
        "encoding": "bytes",
        "label": "bytes",
        "numberOfBytes": "32"
      },
      "t_mapping(t_uint16,t_bytes_storage)": {
        "encoding": "mapping",
        "key": "t_uint16",
        "label": "mapping(uint16 => bytes)",
        "numberOfBytes": "32",
        "value": "t_bytes_storage"
      },
      "t_mapping(t_uint32,t_bytes32)": {
        "encoding": "mapping",
        "key": "t_uint32",
        "label": "mapping(uint32 => bytes32)",
        "numberOfBytes": "32",
        "value": "t_bytes32"
      },
      "t_mapping(t_uint32,t_mapping(t_uint16,t_bytes_storage))": {
        "encoding": "mapping",
        "key": "t_uint32",
        "label": "mapping(uint32 => mapping(uint16 => bytes))",
        "numberOfBytes": "32",
        "value": "t_mapping(t_uint16,t_bytes_storage)"
      },
      "t_string_storage": {
        "encoding": "bytes",
        "label": "string",
        "numberOfBytes": "32"
      },
      "t_uint16": {
        "encoding": "inplace",
        "label": "uint16",
        "numberOfBytes": "2"
      },
      "t_uint32": {
        "encoding": "inplace",
        "label": "uint32",
        "numberOfBytes": "4"
      }
    }
  }
}